:020000040800F2
:10000000D8040020450100089B0100089301000866
:10001000970100088D0100083D0200080000000063
:10002000000000000000000000000000E1010008E6
:100030009101000800000000C5010008E30100086C
:100040005F0100085F0100085F0100085F01000810
:100050005F0100085F0100085F0100085F01000800
:100060005F0100085F0100085F0100085F010008F0
:100070005F0100085F0100085F0100085F010008E0
:100080005F0100085F0100085F0100085F010008D0
:100090005F0100085F0100085F0100085F010008C0
:1000A0005F0100085F0100085F0100085F010008B0
:1000B0005F0100085F0100085F0100085F010008A0
:1000C0005F0100085F0100085F0100085F01000890
:1000D000C90100085F0100085F0100085F01000816
:1000E0005F0100085F0100085F0100085F01000870
:1000F0005F0100085F0100085F0100085F01000860
:100100005F0100085F0100085F0100085F0100084F
:100110005F0100085F0100085F0100085F0100083F
:100120005F0100085F0100085F0100085F0100082F
:10013000DFF80CD000F018F800480047210700084D
:10014000D80400200648804706480047FEE7FEE73F
:10015000FEE7FEE7FEE7FEE7FEE7FEE7FEE7FEE777
:10016000ED01000831010008064C074D06E0E0688B
:1001700040F0010394E8070098471034AC42F6D3EE
:10018000FFF7DAFFECE800080CE9000800BFFEE723
:10019000704700BFFEE700BFFEE7704710B50028BC
:1001A00007DA0A07140E054A00F00F031B1FD45488
:1001B00003E00A07130E024A135410BD18ED00E0C5
:1001C00000E400E07047000010B50021034800F093
:1001D00027FD012801D100F04FFB10BD0038004081
:1001E000704710B500F09EF910BD000010B5104822
:1001F000006840F470000E4908600E48006840F046
:1002000001000C49086000204860C8620846006888
:1002100009490840074908604FF41F0088600846F4
:10022000006820F48020086000F0D4FD10BD0000BC
:1002300088ED00E000100240FFFFF6FE00BFFEE781
:1002400002E008C8121F08C1002AFAD1704770479F
:10025000002001E001C1121F002AFBD170470000FD
:1002600010B5044606480068204405490860084661
:10027000006804490968884201D300F01BF910BDE9
:10028000A8000020A000002070B5044600254848C2
:1002900004600020474908700121042000F0DAF8CA
:1002A0004549884201D0012070BD0021042000F0A2
:1002B000D1F8424908600121042000F0CBF8404900
:1002C000884201D00220EFE70121042000F0C2F8AB
:1002D0003C49884201D00320E6E70021042000F0D9
:1002E000B9F8102800D001250021022000F0B2F852
:1002F0003249888008468088012801D00420D3E74D
:100300000021022000F0A6F82C49C880002104201A
:1003100000F0A0F8294988600021042000F09AF834
:100320002649C8600021022000F094F82349088281
:100330000021022000F08EF8204948820846408AB9
:10034000102801D00720AFE7012D18D1002102208D
:1003500000F080F808B10920A6E70121042000F090
:1003600079F81949884201D00A209DE7002104202C
:1003700000F070F80F49097808440E49087001210F
:10038000042000F067F81149884201D008208BE76B
:100390000021042000F05EF8084948610C4800681C
:1003A0000449097808440A49086000207CE70000F5
:1003B000980000209600002046464952BC000020CC
:1003C0004556415720746D6674636166617461645B
:1003D000A400002010B506480068FFF755FF28B9B3
:1003E0000448008904490880012010BD0020FCE772
:1003F0009C000020BC0000209400002010B50146A5
:1004000000220F48006808440E4B984202D3002097
:100410000D4B18600D48006868B909480068425AD9
:100420000B48C088012804D108480068401C074BCD
:10043000186090B210BD0020044B186090B2F9E72C
:100440009C000020ECE80008A8000020B800002074
:10045000BC00002070B502460B46002100208BB97D
:1004600000BF0CE0114C25782478641C0F4E3470CA
:100470000F4C2468645DCD00AC402043491C914280
:10048000F0D311E011460DE0084C25782478641C67
:10049000064E3470064C2468645D4D1EED00AC4081
:1004A0002043491E0029EFD170BD000096000020B6
:1004B0009800002010B50E480068C0B10D480068D3
:1004C000401E0C4908600846006880B90A48007858
:1004D0000121B1EBA00F03D1052000F011F802E0DB
:1004E000012000F00DF80021044800F069FB10BD68
:1004F000B4000020B0000020AC0000200038004014
:10050000014602480170007870470000AC000020EE
:100510000349086000BF024909680029FBD1704700
:10052000000000200448006820B103480068401E15
:1005300001490860704700000000002010B5044623
:100540000B4931F8140000F05DFA0A4951F82430E3
:10055000094951F824000322102100F029F8054828
:1005600050F82400044951F82410486110BD0000DF
:10057000480000201800002008000020034951F81E
:100580002010034A52F820205161704718000020C3
:1005900008000020034951F82010034A52F8202097
:1005A00011617047180000200800002001617047A9
:1005B000F0B50C4616460025002204F00F0504F0A5
:1005C000100747B1042E05D145F00305C76B1F4343
:1005D000C76300E03543002118E001278F401F402A
:1005E00097B102684FEA810C0F2707FA0CF7BA435C
:1005F0008F0005FA07F73A43282C01D1436102E046
:10060000482C00D1036102604F1CB9B20829E4D321
:1006100008211CE001278F401F40B7B14268A1F1BB
:1006200008074FEA870C0F2707FA0CF7BA43A1F126
:100630000807BF0005FA07F73A43282C01D14361A8
:1006400002E0482C00D1036142604F1CB9B210296E
:10065000E0D3F0BDC16941F48061C161704730B53C
:1006600004460020E0694FF24705284040F400604E
:10067000084310431843E06130BD2DE9F05F0446A4
:100680000E46174698464FF002094FF0000A00BF89
:100690004FF0000B02202062002000F007F9834693
:1006A000B8F5007F07D14FEA1B2000EB8000400027
:1006B000B0FBF6F50FE03FB94FEA5B1000EB8000AE
:1006C0004000B0FBF6F506E04FEA9B1000EB80001F
:1006D0004000B0FBF6F5681D0A21B0FBF1F505F00E
:1006E000010AA5EB0A004FEA50094FEA0A2AB9F1BC
:1006F000020F02D3B9F1FF0F03D94FF002094FF0F7
:10070000000A49EA0A0040EA08002062E06920F095
:100710000700E061E0693843E061BDE8F09F000058
:1007200000F05CFB00F082FB4FF4E06000F060F84A
:1007300001220021242000F009F8034800F07EF88F
:1007400000F060F800BFFEE7800E0008F0B50B4631
:10075000002100240025244E366806F4E066B6F534
:10076000E06F02D100BF042526E01F4E366806F474
:10077000E066B6F5C06F02D1012403251CE01A4ED5
:10078000366806F4E066B6F5A06F02D102240225B1
:1007900012E0154E366806F4E066B6F5806F02D1B9
:1007A0000324012508E0104E366806F4E066B6F52D
:1007B000407F01D104240025C4F1040603FA06F1A8
:1007C000C5F104070F26FE40164031430901074ECC
:1007D000315400F01F070126BE404711BF0007F14A
:1007E000E027C7F80061F0BD0CED00E000E400E098
:1007F00002490143024A1160704700000000FA05F7
:100800000CED00E010B50A4800780121B1EBA00F13
:1008100003D10420FFF774FE02E00020FFF770FE12
:100820000021044800F0E4F90348006810BD00000E
:10083000AC00002000380040A800002010B504469D
:100840000A48046000200A490860FFF7C3FD08B9A0
:10085000002010BD00F07EF9064802884FF40071B8
:10086000102000F005F90120F3E700009C000020B3
:10087000B40000209400002010B508490968084A17
:1008800012688818FFF7BAFD04462146054800F0B3
:1008900033F90549C888FFF7E3FC10BDA800002024
:1008A000A400002000380040BC0000202DE9F04FDB
:1008B0008CB0074600200A904AA090E8004CC0681F
:1008C000CDE905BECDF810A007900FF21C1ADAE9A9
:1008D000000ACDE9020A0FF2101ADAE9000ACDE99E
:1008E000000A44484068C0F381000B900B9820B187
:1008F000012804D002283FD103E03F4A3EE03E4AAF
:100900003CE03C48406800F4803CBCF5803F12D19C
:100910003848C06A00F08048B8F1000F01D1364C69
:1009200000E0364C3348406800F40039B9F5003F28
:1009300002D1334C00E0324C2E484068C0F3834172
:100940002C48406800F0006008B141F010012948CF
:10095000406800F0804008B141F020010F2901D229
:10096000891C06E00F2903D33E2901D8491C00E069
:100970003F2104FB01F201E01F4A00BF00BF1D48F8
:100980004068C0F3031504A8465D22FA06F319482F
:100990004068C0F3022502A8465D23FA06F00990DC
:1009A00014484068C0F3C2251DF8056023FA06F01C
:1009B000089037B1012F06D0022F06D0032F0AD19D
:1009C00006E00A9208E00A9306E009980A9003E01C
:1009D00008980A9000E000BF00BF0A980CB0BDE87C
:1009E000F08F00000000000000000000010203047E
:1009F000060708090010024000127A00006CDC02B1
:100A000000093D00064A02EB9011096800F01F033F
:100A100001229A401143024B03EB90121160704780
:100A200000100240064A02EB9011096800F01F0313
:100A300001229A409143024B03EB901211607047E0
:100A400000100240064A02EB9011096800F01F03F3
:100A500001229A401143024B03EB90121160704740
:100A600000100240016841F0400101607047000041
:100A700070B588B004460D46164640F20C60FFF78C
:100A8000C1FF40F20E70FFF7BDFF194800F036F8C5
:100A90000823224699011648FFF7E1FD2B46002264
:100AA00031461348FFF7E9FD0021114800F088F8AE
:100AB0000F48FFF7CFFD0F4800F020F8002002900C
:100AC0004FF4827001904FF4006003900320069071
:100AD0004FF400700490202007900020059001A999
:100AE000044800F0D5F80348FFF7BCFF08B070BD1C
:100AF0000038004000300140C160704710B5044626
:100B00001348204470B1B0F5806F14D0B0F5784F21
:100B10001AD14FF44370FFF795FF4FF44370FFF77E
:100B200081FF12E040F20E40FFF78CFF40F20E40D2
:100B3000FFF778FF09E040F20F40FFF783FF40F234
:100B40000F40FFF76FFF00E000BF00BF10BD0000C7
:100B500000C8FFBF10B54FF4C060FFF753FF40F26D
:100B60000260FFF74FFF40F20360FFF74BFF40F2D8
:100B70000460FFF747FF4FF43043032218210D486C
:100B8000FFF716FD4023032218210B48FFF710FD45
:100B9000A023032218210948FFF70AFD102303228E
:100BA00019460648FFF704FD10210448FFF7FEFC34
:100BB00010BD0000000C0140001001400008014081
:100BC00021B1012907D002290FD109E0426822F0A2
:100BD000800242600AE0426822F04002426005E082
:100BE000426822F02002426000E000BF00BF704770
:100BF00021B1012907D002290FD109E0426842F052
:100C0000800242600AE0426842F04002426005E031
:100C1000426842F02002426000E000BF00BF70471F
:100C200010B503460C4699685A68072C28D2DFE8AD
:100C300004F004090E13181D220001F0020102F055
:100C400080021EE001F0010102F0400219E001F013
:100C5000400102F0200214E001F0200102F0200225
:100C60000FE001F0100102F020020AE001F008019B
:100C700002F0200205E001F4807102F0200200E0A1
:100C800000BF00BF11B10AB1012010BD0020FCE778
:100C900002460020106800F441500B6818434B686E
:100CA00018438B681843CB6818430B6918434B698A
:100CB00018438B6918431060D36923F40063D36130
:100CC00070470000002000213E4A126842F4803242
:100CD0003C4B1A6000BF401C3A4A126802F40031D3
:100CE00011B9B0F5006FF6D1364A126802F400323D
:100CF0000AB900BFFEE7334AD26942F08052314B55
:100D0000DA61314A126842F440422F4B1A602D4A90
:100D100052682C4B5A601A4652685A601A465268FA
:100D200042F480625A601A46526822F440325A6095
:100D30001A46526842F440325A601A465268234BAF
:100D40001A40204B5A601A465268214B1A431D4BD9
:100D50005A601A46126842F080721A6000BF194A3F
:100D6000126802F00072002AF9D0174A126842F4A1
:100D70008032154B1A6000BF134A526802F4803269
:100D8000002AF9D0104A126842F400320E4B1A6061
:100D900000BF0D4A526802F40032002AF9D0094A15
:100DA000526822F00302074B5A601A46526842F01A
:100DB00002025A6000BF034A526802F00802002A89
:100DC000F9D070470010024000700040FFFFC3B729
:100DD0000000340810B5FFF775FF10BD10B51248BC
:100DE00000684FF47A71B0FBF1F4601EB0F1807FBF
:100DF00001D301200FE0601E4FF0E02148610F2178
:100E00004FF0FF30FFF7CAF900204FF0E021886172
:100E100007200861002008B100BFFEE70021481E3E
:100E2000FFF7BCF910BD00000400002010B5002041
:100E3000FFF784FB0120FFF781FB0220FFF77EFB19
:100E40000320FFF77BFB0020FFF7A4FB0120FFF747
:100E5000A1FB0220FFF79EFB0320FFF79BFB4FF453
:100E6000FA70FFF755FB0020FFF788FB0120FFF722
:100E700085FB0220FFF782FB0320FFF77FFB10BDFD
:100E80005249464664DA000057415645666D742063
:100E90001000000001000200401F0000007D000063
:100EA000040010006461746140DA0000000000007A
:100EB0000000000000000000000000000000000032
:100EC0000000000000000000000000000000000022
:100ED0000000000000000000000000000000000012
:100EE0000000000000000000000000000000000002
:100EF00000000000000000000000000000000000F2
:100F000000000000000000000000000000000000E1
:100F100000000000000000000000000000000000D1
:100F200000000000000000000000000000000000C1
:100F300000000000000000000000000000000000B1
:100F400000000000000000000000000000000000A1
:100F50000300030006000600080008000400040067
:100F6000060006000C000C0005000500030003004D
:100F7000070007000B000B000F000F00FEFFFEFF35
:100F8000F0FFF0FFF7FFF7FFF9FFF9FFF8FFF8FFB9
:100F9000F3FFF3FFE5FFE5FFE4FFE4FFE3FFE3FF1B
:100FA000E5FFE5FFE5FFE5FFE7FFE7FFE5FFE5FF1D
:100FB000E3FFE3FFE7FFE7FFF0FFF0FFF4FFF4FFDD
:100FC000F8FFF8FFF3FFF3FFF2FFF2FF2600260021
:100FD0001C001C0021002100560056004D004D0051
:100FE000580058005B005B0045004500530053006B
:100FF00023002300FBFFFBFF0E000E00FAFFFAFFA9
:10100000F8FFF8FFEFFFEFFFE3FFE3FF1800180022
:101010001500150013001300540054007C007C00E0
:1010200082008200880088007A007A0087008700AA
:101030007B007B005A005A0044004400380038000E
:10104000210021001B001B00C8FFC8FF3CFF3CFF24
:10105000FEFEFEFEEBFEEBFEADFEADFE3EFE3EFEF8
:1010600015FE15FEDCFDDCFDAEFDAEFD73FD73FD72
:1010700093FD93FDAEFDAEFDEBFDEBFD01FE01FE2C
:10108000DFFDDFFD05FE05FE25FE25FE1FFE1FFE22
:1010900037FE37FE32FE32FE5FFE5FFE83FE83FECA
:1010A000D8FED8FE8EFF8EFF070007000A010A0156
:1010B000100210021D031D034704470423052305E6
:1010C0009B059B05010601064E064E065D065D0664
:1010D0000F060F06EE05EE0591059105F904F904DA
:1010E00060046004A303A3030C030C0312021202A6
:1010F000AE00AE00B9FFB9FF0DFF0DFF0FFE0FFEF2
:10110000ECFCECFC38FC38FC69FB69FB88FA88FADB
:10111000F9F9F9F956F956F999F899F837F837F8CD
:1011200086F786F759F759F745F745F732F732F75B
:1011300081F781F74FF74FF789F789F7F9F7F9F753
:1011400051F851F8A5F8A5F83CF93CF9DAF9DAF9C3
:101150009DFA9DFA71FB71FBB7FCB7FCB4FDB4FDC1
:10116000BEFFBEFF1E011E01BB02BB02FA04FA0451
:101170009006900677087708150A150A4B0B4B0B5B
:10118000300C300CB40CB40CD20CD20CAC0CAC0C3B
:10119000FD0BFD0B770B770B490A490A45094509F9
:1011A000F707F707E206E20699059905DE03DE0375
:1011B000A202A2020B020B0231003100C4FEC4FEE7
:1011C000ADFDADFD03FD03FD37FC37FCCAFACAFADD
:1011D0008AFA8AFAB8F9B8F977F977F906F906F9C7
:1011E00004F904F95DF95DF92FF92FF9F4F8F4F831
:1011F00086F986F9DBF9DBF9E0F9E0F97CFA7CFAAB
:10120000A4FAA4FAFFFAFFFA92FB92FBB8FBB8FB30
:1012100037FC37FC74FC74FC38FD38FDA9FDA9FDD2
:101220004AFE4AFE7CFF7CFFECFFECFF6601660194
:101230006A026A02930393032105210559065906A0
:101240006E076E078408840852095209FF09FF09D6
:10125000390A390A6C0A6C0A3E0A3E0ABA09BA0906
:101260005F095F0955085508B807B8079406940642
:10127000CA05CA05BA04BA048C038C03AB02AB02DC
:101280002902290282008200F8FFF8FF0CFF0CFF00
:101290006FFE6FFEE9FDE9FD47FD47FD38FD38FDB6
:1012A0007DFC7DFC5CFC5CFCE1FBE1FBB7FBB7FB80
:1012B00028FB28FB62FB62FB9BFA9BFAB1FAB1FAAE
:1012C000E1FAE1FA06FB06FBD6FAD6FA65FB65FB06
:1012D00043FB43FBC7FBC7FBCBFBCBFBFDFBFDFB92
:1012E0004CFC4CFC5DFC5DFCECFCECFCF1FCF1FC12
:1012F000D8FDD8FDEEFDEEFD16FF16FF64FF64FF7E
:10130000850085005D015D01300230028C038C0395
:1013100036043604330533050E060E066B066B06DF
:101320002407240707070707500750070D070D0775
:10133000A406A4065C065C0682058205100510055D
:1013400019041904370337036C026C02A101A101CF
:10135000AB00AB002900290018FF18FF0EFF0EFF9D
:1013600023FE23FE26FE26FE9AFD9AFD6AFD6AFDF7
:10137000FFFCFFFC50FD50FD45FD45FD9FFC9FFC23
:10138000D4FDD4FDAFFCAFFC6EFD6EFD28FD28FD45
:10139000FEFCFEFC32FD32FDC0FCC0FC57FD57FDDB
:1013A000C7FCC7FC43FD43FD29FD29FD04FD04FDE9
:1013B000ACFDACFD09FD09FD13FE13FEB4FDB4FD4B
:1013C0005FFE5FFE42FE42FE43FF43FF32FF32FFFD
:1013D0000B000B00BA00BA0098009800910291022D
:1013E000EA01EA010904090484048404640564052B
:1013F000620662060507050749074907E107E10795
:101400009B079B07B207B2073A073A07C306C30612
:10141000220622064D054D05A204A2047703770398
:10142000A902A902AC01AC01D800D8006F006F007E
:10143000A2FFA2FFB4FEB4FE8BFE8BFEB7FDB7FD8C
:101440000CFE0CFE9AFC9AFC6AFD6AFDECFBECFBC0
:10145000D7FCD7FC31FB31FB2DFC2DFC11FB11FB24
:10146000BFFABFFAFBFBFBFB8FF98FF925FC25FCCC
:1014700064FA64FA5AFB5AFB48FC48FCF6FAF6FA9E
:1014800064FC64FC09FC09FCF1FBF1FBAAFCAAFC6E
:1014900075FC75FC44FD44FD46FD46FD02FE02FE62
:1014A000F0FDF0FDAEFFAEFFCBFECBFE2201220130
:1014B0003C003C00DA01DA01C002C0026D026D029C
:1014C000750575053B043B0433073307F906F90638
:1014D0001C081C08AD08AD08B908B908B708B7085A
:1014E0006A086A08D407D407A507A5071F061F06C0
:1014F0001306130674047404BE03BE03B902B902D2
:101500007D017D01B600B600B5FFB5FF2CFF2CFFB5
:10151000DEFDDEFD24FE24FE52FC52FCE5FCE5FC73
:10152000CFFBCFFBE4FBE4FBB9FAB9FA81FB81FB0B
:1015300076F976F9E9FAE9FA33F933F92DFA2DFA61
:1015400075F975F919FA19FA22FA22FACBF9CBF9D9
:1015500062FB62FBBDF9BDF928FC28FC51FB51FB85
:1015600064FB64FB97FC97FCA2FCA2FC4AFC4AFCCF
:1015700005FF05FF9BFC9BFC39FF39FF45FE45FE3F
:101580009EFF9EFFBEFFBEFFDF00DF00FE00FE00ED
:101590005002500271037103F602F6025706570615
:1015A000BE04BE048C078C07D507D507DB07DB0715
:1015B0000B090B09D108D10827082708A708A70895
:1015C000F706F706830783074A054A05D205D205C1
:1015D0006D036D03C303C30321012101C000C000DB
:1015E00095FF95FF4EFD4EFDFDFEFDFEADFAADFAF9
:1015F000AAFDAAFD2AFA2AFACCFBCCFB79FA79FAE1
:1016000021FB21FBD1F9D1F9A6FAA6FA32FA32FA76
:1016100051F951F921FB21FBCBF9CBF957FA57FAD4
:10162000F7FAF7FAB5FAB5FAB8FAB8FA67FB67FB52
:10163000E3FAE3FA27FB27FBF5FBF5FB54FA54FA30
:10164000E3FBE3FBF5FBF5FBDAFADAFA2AFE2AFE06
:101650003FFB3FFBE0FDE0FD34FD34FDF9FDF9FD0E
:101660009AFF9AFFB0FFB0FF77017701630363032E
:10167000FD03FD03E305E305FF07FF072A082A082A
:10168000200A200AFD0AFD0A7D0A7D0A9C0B9C0B9C
:10169000B90AB90AD909D9098509850999079907A4
:1016A000330733072B052B0543044304E902E90202
:1016B00057015701DF00DF00FEFEFEFEB1FFB1FF64
:1016C000D1FDD1FD5BFE5BFEDDFDDDFDAEFCAEFCC4
:1016D00076FD76FDA3FBA3FBB8FCB8FCCFFACFFAEE
:1016E00078FC78FCB3FAB3FA8EF98EF917FB17FB86
:1016F00050F850F806F906F98AF88AF8E9F7E9F798
:10170000E0F7E0F78CF88CF8E6F6E6F68DF98DF95F
:1017100071F871F8E6F8E6F86FFB6FFBA2F9A2F931
:10172000BFFBBFFB6EFC6EFC1EFC1EFC33FE33FEDB
:10173000A9FFA9FFA6FFA6FF4303430367036703AF
:101740003C053C05490749073C083C08DB09DB0927
:10175000E509E509A90BA90BD30AD30A560B560BC9
:10176000A40BA40B660A660A570A570A42094209E3
:101770001B081B08FE06FE0699059905A003A00399
:101780009102910253005300B2FFB2FFD5FDD5FD87
:101790005FFD5FFDBCFBBCFB03FC03FCF2FAF2FA4D
:1017A0009EFB9EFB1CFC1CFCF0FBF0FB96FC96FCDD
:1017B000B2FBB2FBEBFCEBFCC0FAC0FAC4FBC4FB0F
:1017C000E1F9E1F92CFA2CFA2CFA2CFA62F762F71B
:1017D0006CF96CF975F775F7B4F6B4F64EF84EF887
:1017E0007FF67FF648F748F792F892F8ABF6ABF63B
:1017F00068F968F967F967F930FA30FAB4FDB4FDB1
:10180000E7FDE7FD5201520115041504E305E30568
:10181000C908C9087D0B7D0B650D650D590E590E64
:1018200077107710451045103610361041104110D2
:10183000170E170E820D820DAB0AAB0AFF08FF08C8
:101840006C066C06220422042201220187FF87FF16
:101850007BFC7BFC60FB60FBC6F9C6F9DBF8DBF8C0
:10186000EDF7EDF7EAF7EAF749F749F7C3F7C3F7FA
:1018700067F867F8E6F8E6F8FCF7FCF784F984F90E
:1018800009F909F92DF82DF853FA53FAA2F7A2F73E
:101890000BF90BF93EF83EF823F823F80AF80AF89A
:1018A0005AF85AF830F730F77BF97BF912F912F948
:1018B00093F893F898FB98FB15FB15FBE8FBE8FB06
:1018C0000C000C00F7FEF7FE9403940313061306B6
:1018D000C306C3067A0B7A0B7F0C7F0C7B0E7B0E44
:1018E0007B117B1116121612B112B11288148814D2
:1018F000D512D5125E125E1202110211440E440E70
:10190000DE0BDE0B3D093D09DD05DD05D202D2020D
:10191000DFFFDFFF30FD30FD75FA75FA6AF96AF90D
:101920006BF76BF71CF71CF72CF62CF6B9F6B9F62B
:10193000FDF5FDF564F864F842F742F77AF77AF7B7
:1019400064FA64FA7DF77DF775F975F978F878F837
:101950000AF80AF8D2F6D2F6DEF6DEF6C8F5C8F5D1
:101960004EF44EF4FBF4FBF458F458F476F476F4A9
:10197000EDF4EDF47BF57BF5DFF6DFF66FF76FF74F
:1019800093FA93FAA9FBA9FB18FF18FF09030903AF
:10199000EF04EF048F098F09470C470CE20EE20EAB
:1019A0006E126E12AA14AA1433153315C017C0177D
:1019B000F316F31602160216D314D314FC11FC11FD
:1019C000E20EE20EA30BA30BCC07CC07D803D8037F
:1019D000FE00FE0083FD83FDFCF9FCF95FF95FF971
:1019E000F7F6F7F679F679F672F672F647F647F6F5
:1019F0008FF68FF6F2F7F2F714F914F90BF80BF8EB
:101A000060FA60FA78F978F9CCF9CCF903F903F9BE
:101A100018F818F8A8F8A8F85DF55DF5EDF4EDF400
:101A200077F577F5CEF1CEF1E9F1E9F1F2F2F2F2E4
:101A300030F030F0DDEFDDEFC5F3C5F3F2F1F2F198
:101A400078F478F454F954F9DAF9DAF9B3FFB3FF1A
:101A500024042404770777079F0C9F0C82108210C0
:101A600070137013ED17ED17D118D118A11AA11A20
:101A7000BA1BBA1BF019F019741774176E156E158E
:101A800087108710890B890B8608860878027802F0
:101A90004AFF4AFF24FC24FC2DF82DF88EF78EF720
:101AA0003BF63BF60BF50BF500F600F688F688F6EC
:101AB0007AF67AF6B7F9B7F9CAF9CAF9D2F9D2F9CA
:101AC00061FC61FC70FA70FAF4F9F4F947F947F92E
:101AD000E5F7E5F7DCF6DCF6D5F3D5F3F3F2F3F250
:101AE000EDF2EDF2ACEFACEFF9EFF9EF5CF15CF198
:101AF000A5EEA5EEE7EFE7EF52F452F485F285F29A
:101B000065F665F6EBFBEBFB4EFD4EFD3D033D033D
:101B1000D908D908940B940B5C115C116D166D16E5
:101B2000F218F218CB1CCB1CB11EB11E241F241FAF
:101B3000061F061F201C201CEF18EF18B114B1144B
:101B4000510E510EC909C909B503B5038FFE8FFEA9
:101B5000D9F9D9F948F648F607F307F32EF12EF133
:101B6000E9F0E9F0B2F0B2F0B6F1B6F191F391F329
:101B7000A1F6A1F6E4F7E4F7B6FAB6FAECFCECFC51
:101B80004DFD4DFD6BFD6BFDFDFCFDFCE2FBE2FB45
:101B90000DF90DF950F650F610F510F52CF12CF169
:101BA00023EE23EEB9EDB9ED89EB89EB56EA56EA5F
:101BB000BCEABCEA7FEC7FEC04ED04ED9CF09CF009
:101BC000B1F7B1F742FD42FD7A017A01EB0AEB0A67
:101BD000A212A21239153915C01CC01CB622B62299
:101BE00080228022FD24FD24142714272922292263
:101BF0006A1E6A1E341B341B1F131F130D0C0D0CA1
:101C0000F206F20605FF05FFCBF8CBF8B4F4B4F406
:101C100030F130F1DEEDDEEDEAEDEAEDD3EED3EEBC
:101C2000A1EFA1EF2DF22DF2BDF5BDF521F921F9BE
:101C300055FB55FB7CFF7CFF3B013B014902490200
:101C40004902490229012901A3FFA3FFEAFBEAFB9C
:101C50003DF83DF8AFF6AFF636F136F1C4EDC4ED20
:101C60002DED2DEDFBE9FBE903E903E985E985E9C4
:101C700022EB22EBC5EBC5EB4EEF4EEF0AF70AF76E
:101C800099FC99FCE8FFE8FFB00AB00A6F126F12E6
:101C900078137813ED1BED1B942294227120712090
:101CA000FA23FA23942694267B207B200E1D0E1DFA
:101CB000001B001B12121212420B420B410741077C
:101CC000C4FEC4FE67F867F88FF58FF5D4F1D4F140
:101CD00078EE78EE47EF47EF91F091F069F069F018
:101CE00029F329F342F742F77BF97BF9D1FBD1FBCA
:101CF00026002600C801C8019701970105030503C6
:101D0000EE00EE007BFE7BFEE8FBE8FB55F755F7A7
:101D1000D7F4D7F418F118F182EC82ECC8EBC8EBD9
:101D200095E995E9A2E8A2E813E913E9D1EAD1EA35
:101D3000BDECBDECF1EEF1EE49F649F645FE45FE8F
:101D4000B800B8004E094E093B143B14C514C51425
:101D50002E1A2E1ADB23DB23E121E12174227422C7
:101D60006B276B27FC21FC21581C581C691B691B25
:101D7000AE13AE13BD0ABD0A9E079E074400440081
:101D80001EF81EF896F596F5A9F2A9F243EE43EE79
:101D900051EE51EE35F035F0A3F0A3F01BF21BF23B
:101DA00080F680F605FA05FA68FB68FBF0FEF0FEA7
:101DB000CF02CF02AB01AB01720272029402940215
:101DC0002CFF2CFFB6FCB6FC5BF95BF980F580F5C7
:101DD000DEF2DEF27AEE7AEE08ED08EDFDEAFDEADB
:101DE00030E930E9E0E9E0E9D4EAD4EA26EC26EC8F
:101DF00095EE95EE4EF34EF36BFB6BFB180018005F
:101E00001005100591109110F314F314F316F31646
:101E10007F207F206B236B23FA1FFA1FFE25FE25F0
:101E200017251725D11DD11D6E1C6E1CF218F21836
:101E30006A0E6A0EB109B10974057405E3FCE3FC8E
:101E4000D4F7D4F719F619F6AFF1AFF10FF00FF0A0
:101E5000EFF0EFF03AF13AF14CF34CF31FF61FF6C6
:101E600087F887F828FC28FCF6FEF6FE140014001C
:101E70007A037A037303730380028002B402B4020C
:101E800039003900B9FCB9FC9EFA9EFA29F629F608
:101E90006EF36EF321F021F028EE28EE18EC18EC2A
:101EA00038EB38EB73EB73EB90EC90EC21EE21EE1A
:101EB000CDF0CDF05CF35CF31BFB1BFB2500250094
:101EC000FD02FD02E80CE80CDB11DB1118131813FE
:101ED000E31AE31AC21EC21E3F1B3F1B48204820C4
:101EE000B61FB61F1E191E195F175F175014501426
:101EF000600A600A2C062C060E020E021CFA1CFA5E
:101F0000EBF5EBF5CEF4CEF46BF06BF067EF67EF2B
:101F100041F141F149F149F115F315F3C7F6C7F65F
:101F200029FA29FA33FC33FCB5FFB5FFFB01FB01AD
:101F3000E503E50382038203F803F803DD02DD0213
:101F4000CEFFCEFF3FFD3FFD69FA69FA57F557F521
:101F5000FBF2FBF26FEF6FEF8EEC8EEC8DEA8DEA09
:101F600005E905E975E975E934EA34EA93EB93EBA1
:101F70000DEF0DEF1DF11DF1F0F5F0F559FF59FFD3
:101F80000A010A01C707C70783118311B312B312ED
:101F900002160216271F271FD61CD61C961C961C3D
:101FA00082218221461C461C0B170B171C171C177D
:101FB000CB0FCB0F94079407C105C1052AFF2AFF59
:101FC00030F830F81EF71EF793F493F469F069F0D7
:101FD0005DF25DF22CF32CF309F309F3D6F5D6F597
:101FE0003CFA3CFAF7FBF7FB39FE39FEEA01EA015D
:101FF0008B038B03C003C003E903E903120412043B
:10200000AE01AE0183FE83FEFBFCFBFC9CF99CF958
:1020100094F494F4C3F3C3F3B2F0B2F09FED9FEDE8
:1020200091ED91EDE6ECE6EC94EC94ECC9EEC9EEA2
:10203000ACF0ACF07FF27FF237F537F57DF97DF942
:10204000BD00BD0028022802D707D707D70FD70F3A
:102050004E104E10D612D612D31AD31A8A188A18D6
:10206000BF17BF17321D321D72187218D813D8133C
:1020700001150115A50EA50E48074807A306A306DE
:10208000E200E20052FA52FA12FA12FACEF7CEF752
:10209000A9F3A9F390F590F55EF65EF6A5F5A5F522
:1020A000F4F7F4F7F2FAF2FA9BFC9BFCB1FEB1FEF6
:1020B0006A006A004902490234023402F801F80158
:1020C000B101B10195009500E5FDE5FDEBFBEBFBF2
:1020D000A1FAA1FAF8F6F8F6B5F4B5F423F423F46E
:1020E00035F135F1ACF0ACF05BF15BF1E4F0E4F02C
:1020F000A8F1A8F119F419F430F530F5B0F6B0F6FE
:10210000B3F8B3F878FD78FD26022602000200023B
:10211000CD08CD08EB0DEB0DA40CA40C3D113D1129
:102120003617361704130413E015E015D219D21927
:10213000871387131D121D12E712E712450B450B7B
:10214000F606F606F705F705F7FFF7FF1CFC1CFC83
:1021500013FB13FBC8F8C8F8AAF6AAF63CF73CF73D
:102160006EF76EF75AF85AF807F907F9AAFAAAFAB9
:1021700054FD54FD10FF10FF72FF72FFF501F501D1
:102180001A021A0233013301C801C801BF00BF009F
:10219000CDFECDFE2EFD2EFD8EFB8EFB31F931F9ED
:1021A000E2F6E2F668F568F5C4F3C4F3E5F2E5F2A9
:1021B000DFF2DFF2C2F2C2F254F354F369F469F4CD
:1021C00041F541F568F668F64EF74EF72CF92CF913
:1021D0009E009E00C8FFC8FF7D027D02B60BB60BB5
:1021E000540B540B960B960B781578159514951483
:1021F000BB11BB11D019D019F716F71634113411D1
:102200004D134D1300100010100810082D072D0756
:10221000B203B203ABFDABFD92FB92FBEBFAEBFA20
:10222000EDF7EDF73BF73BF78CF88CF86BF86BF8B4
:1022300087F887F832FA32FA2AFC2AFCBEFCBEFC88
:102240002CFE2CFE53FF53FFA8FFA8FFF4FEF4FE64
:1022500026002600DBFEDBFE9BFD9BFDDEFCDEFC9C
:1022600064FB64FB2AF92AF920F820F85CF65CF696
:102270004DF44DF4EEF3EEF3F3F3F3F399F299F238
:10228000D4F2D4F230F430F4A5F3A5F3D1F3D1F3C2
:10229000CFF5CFF55FF55FF541F941F9E4FFE4FFD4
:1022A00074FD74FDE004E004490C490C7B0A7B0AD0
:1022B000370F370FAC18AC18031403144F164F1612
:1022C000691C691C76167616041304133314331430
:1022D000840D840D130713071A061A0664006400A0
:1022E000EDFBEDFB71FA71FA85F985F9DCF7DCF7A6
:1022F0001BF91BF915FA15FA90FB90FB49FC49FCF8
:10230000F7FEF7FE97009700530153011E021E02CD
:10231000EB02EB0223012301990099003A003A00F5
:10232000A1FDA1FD3AFC3AFC9FFA9FFA9CF89CF8AB
:1023300097F697F679F579F5AEF3AEF3F9F1F9F191
:102340008DF18DF119F219F2B2F0B2F01CF11CF11D
:102350003AF23AF24DF24DF206F206F284F484F4C7
:1023600026F626F638FE38FEDAFFDAFF0503050307
:10237000030E030E5B105B10D610D610E619E6199B
:10238000771B771B121712171A1C1A1CBF18BF18BD
:10239000C911C9110E0F0E0FB90AB90A0B030B03AD
:1023A000A000A000A7FCA7FC1AF91AF976F876F8A5
:1023B00091F991F94FF94FF911FC11FCEAFEEAFE8F
:1023C000FCFFFCFF7B027B02570557059F059F051D
:1023D000EE05EE05460646060F040F047F017F0159
:1023E0008D008D00A3FDA3FDC7FAC7FA29F929F9CD
:1023F000ABF6ABF610F510F537F337F36FF26FF27B
:10240000B5F1B5F126F026F063F063F04AF14AF138
:10241000E7EFE7EF46F046F012F212F237F137F14C
:1024200081F181F141F341F3FFF8FFF8710171018E
:10243000DAFFDAFFFC09FC0968136813E211E21104
:1024400099159915AB1BAB1B60176017A116A11648
:1024500083158315FF0EFF0EC50AC50AC005C0050A
:102460007F007F00F4FDF4FD15FC15FC0DF90DF95E
:102470002AFA2AFABEFBBEFB16FD16FD95FE95FE56
:1024800013021302C102C102BE03BE03B504B504A8
:102490009A049A0472037203A202A202D900D9001C
:1024A000E3FEE3FEA9FDA9FDE1FCE1FCBAFBBAFBFA
:1024B00092FB92FB64FB64FBA4FBA4FBF4FBF4FB28
:1024C00036FC36FCC0FCC0FCF2FCF2FC55FD55FDB0
:1024D000D5FDD5FD66FE66FE9BFE9BFE43FF43FFDA
:1024E000BFFFBFFF0E000E00DFFFDFFFF4FFF4FFB2
:1024F000E1FFE1FF0700070057005700B000B00000
:102500000F010F01EA01EA0174027402230323039D
:102510001E041E0485048504B204B2041A051A05BB
:10252000B604B604F903F903760376036202620285
:10253000EF00EF00230023004AFF4AFF47FE47FE5B
:1025400036FE36FEFEFDFEFD80FD80FDDFFDDFFD7B
:10255000E0FDE0FD83FD83FDE6FDE6FDCBFDCBFD6B
:1025600043FD43FD89FD89FD60FD60FDC8FCC8FC9D
:1025700003FD03FDF4FCF4FC7BFC7BFCCDFCCDFCFB
:10258000E0FCE0FCA3FCA3FC02FD02FDE0FCE0FC9F
:10259000EDFCEDFC4FFD4FFD17FD17FD46FD46FD23
:1025A00082FD82FD31FD31FD15FD15FD26FD26FD67
:1025B0003DFD3DFDBDFDBDFDCDFECDFE91FF91FF7D
:1025C0000A010A01DB02DB0218041804CF05CF055B
:1025D000A507A507C308C3080E0A0E0A3C0B3C0B4F
:1025E000150B150BD60AD60A5F0A5F0AE008E00849
:1025F00015071507A805A805EC03EC03E701E7019B
:10260000CE00CE00D5FFD5FFAAFEAAFE73FE73FE54
:102610001EFE1EFE76FD76FD81FD81FD41FD41FD24
:10262000C8FCC8FCCFFCCFFC8FFC8FFC1CFC1CFC46
:1026300012FC12FCECFBECFB98FB98FBB0FBB0FB34
:10264000C0FBC0FBB5FBB5FBFBFBFBFB39FC39FC5E
:1026500043FC43FCA7FCA7FCC5FCC5FCBAFCBAFCC8
:1026600029FD29FD2DFD2DFD2AFD2AFD7DFD7DFD88
:102670006EFD6EFD4CFD4CFD4AFD4AFD33FD33FD04
:102680002EFD2EFDD9FDD9FD80FE80FE38FF38FFDE
:10269000E100E100340234027D037D03530553055C
:1026A000C406C406AF07AF07F708F7088909890908
:1026B0002B092B09010901095F085F08D506D5061A
:1026C000750575054404440472027202F700F700B0
:1026D0001C001C00E4FEE4FE12FE12FEDFFDDFFD26
:1026E00039FD39FDE1FCE1FCF6FCF6FCDCFCDCFC30
:1026F000CDFCCDFCF5FCF5FCF5FCF5FCF2FCF2FCA8
:10270000F8FCF8FCF7FCF7FCE4FCE4FCE2FCE2FC7F
:10271000E6FCE6FCE2FCE2FCF5FCF5FC0CFD0CFD45
:1027200011FD11FD2CFD2CFD53FD53FD30FD30FD41
:102730005DFD5DFD8BFD8BFD6DFD6DFDA2FDA2FDC3
:10274000C5FDC5FDA9FDA9FDA9FDA9FDA3FDA3FD2D
:102750007FFD7FFDBDFDBDFD80FE80FEDAFEDAFE61
:10276000DCFFDCFF480148013002300275037503CD
:10277000FD04FD04D605D6059E069E06960796071F
:102780008A078A072C072C07EB06EB06F405F405ED
:10279000B804B804D803D8039B029B025601560123
:1027A00098009800BEFFBEFFFCFEFCFEADFEADFE35
:1027B00033FE33FEDEFDDEFDD4FDD4FDCCFDCCFDCD
:1027C000B6FDB6FDBBFDBBFDCEFDCEFDDEFDDEFDE7
:1027D000E9FDE9FD04FE04FE17FE17FE20FE20FEC3
:1027E00031FE31FE3EFE3EFE48FE48FE4BFE4BFEF5
:1027F00042FE42FE3EFE3EFE40FE40FE25FE25FE1F
:102800003FFE3FFE34FE34FE13FE13FE31FE31FE6A
:1028100017FE17FEF2FDF2FDE6FDE6FDBFFDBFFD72
:102820009AFD9AFDEBFDEBFDE1FEE1FE4AFF4AFF5A
:102830004C004C0001020102E202E202F103F1034A
:10284000870587054F064F06AB06AB06850785074C
:10285000520752076B066B06E605E605BF04BF0488
:10286000350335032B022B02DA00DA007AFF7AFFF8
:10287000BDFEBDFE10FE10FE62FD62FD69FD69FD3C
:102880004FFD4FFD1EFD1EFD81FD81FDB9FDB9FD12
:10289000C4FDC4FD02FE02FE3CFE3CFE3FFE3FFEC8
:1028A0006EFE6EFE78FE78FE74FE74FE45FE45FEFA
:1028B00032FE32FE29FE29FEFDFDFDFDE8FDE8FDAC
:1028C0001AFE1AFEFDFDFDFDDDFDDDFDF1FDF1FD54
:1028D000B5FDB5FD76FD76FD88FD88FD45FD45FD20
:1028E0000CFD0CFDFDFCFDFC90FC90FC55FC55FC2A
:1028F000E8FCE8FC92FE92FE3DFF3DFF9400940050
:102900008F038F039B059B05FD06FD06C309C309C5
:10291000F40BF40B5B0C5B0C5A0D5A0D8A0D8A0DEF
:10292000810B810BCC09CC09AB07AB0744044404F1
:102930007D017D01E6FEE6FE38FC38FC98FA98FA47
:10294000BEF9BEF912F912F9AAF9AAF9B6FAB6FA5D
:102950006CFB6CFBE7FCE7FC93FE93FE70FF70FFE3
:102960004400440063006300D3FFD3FF1BFF1BFF41
:10297000FCFDFCFD71FC71FCDAFADAFAA4F9A4F9A9
:10298000CDF8CDF8A8F8A8F87FF87FF889F889F88D
:1029900093F893F89EF79EF752F752F795F795F74D
:1029A0002FF62FF644F544F5D5F4D5F494F394F3CB
:1029B000E9F2E9F21AF61AF633FC33FCC5FEC5FE5D
:1029C000FE02FE02DD0BDD0B8D108D108D128D12BF
:1029D0007D177D17CA19CA19C017C0179616961603
:1029E0000A130A13770D770D4408440887018701FD
:1029F00023FC23FCE8F8E8F885F585F55EF45EF441
:102A0000C1F5C1F5DCF6DCF6D8F9D8F955FD55FD70
:102A100071FF71FF7602760297049704A204A20464
:102A200048044804A402A4023700370003FE03FE52
:102A3000A1FBA1FBE0F8E0F852F752F799F699F6FE
:102A4000B9F6B9F669F769F721F821F81DF91DF90A
:102A5000DAF8DAF8BBF7BBF724F824F8B7F7B7F7DA
:102A600073F573F59CF49CF49FF39FF3FDF1FDF176
:102A700037F337F32DFB2DFB0D010D01B903B9031E
:102A8000DA0CDA0CCB15CB154E174E17661A661AF0
:102A90000D1D0D1DC81AC81A721772174411441162
:102AA000770B770B56055605F9FCF9FC31F831F830
:102AB0000DF70DF757F457F4F3F4F3F4A6F8A6F86E
:102AC00021FB21FBDCFEDCFE3E023E02FC03FC039C
:102AD0003006300651065106380438040002000260
:102AE0001BFF1BFFB6FBB6FB6DF96DF976F776F7AA
:102AF00086F586F5BEF5BEF566F666F66BF76BF7FE
:102B0000EFF8EFF841FA41FA23FA23FA0FF80FF839
:102B10001FF61FF6DAF5DAF523F323F355F055F037
:102B2000B5EFB5EFCEEECEEE92ED92EDCCF3CCF369
:102B30007E007E009D059D05EA0AEA0A701770175F
:102B4000A81DA81DDD1CDD1CEC1DEC1D631B631BFB
:102B500028172817D40FD40F84068406070207020B
:102B600035FC35FC19F519F518F518F5E7F6E7F613
:102B700053F753F7FBFBFBFBA7FFA7FFB302B3021F
:102B8000580658063606360699059905B705B7055D
:102B9000EB01EB01B1FDB1FD2CFB2CFB2EF82EF867
:102BA000CBF5CBF5FDF5FDF59EF59EF59FF69FF671
:102BB00019F919F983FA83FA56FC56FCCBFDCBFDC3
:102BC0002AFD2AFD02FA02FA47F547F52AF32AF30D
:102BD0005AF15AF11EED1EEDE1EBE1EBC5ECC5EC4F
:102BE000D8ECD8EC85EF85EFF9FFF9FF7D0E7D0E6F
:102BF000A911A9113E1B3E1B1A271A27D625D62537
:102C000049214921501C501CB615B615860F860F58
:102C1000CF02CF0252FB52FB1BFB1BFB78F678F670
:102C2000CAF3CAF38EF98EF936FD36FDEA00EA00E2
:102C3000DD04DD0445064506EF08EF081508150814
:102C400062036203C501C501F8FEF8FE36F936F9E4
:102C50001EF61EF648F548F549F449F475F575F584
:102C6000B4F7B4F759F959F98EFC8EFC90FD90FD3C
:102C700050FE50FE33FF33FFF4FDF4FDC2F9C2F9FC
:102C800019F319F3F8EEF8EE44EF44EFEAEBEAEB50
:102C9000BEE9BEE9FAEBFAEB8CEE8CEE47EF47EFBC
:102CA0003FFA3FFA170F170FB916B916ED18ED18BE
:102CB000F322F322DD26DD26042004202E182E1810
:102CC000AB0EAB0E420B420BED04ED04ECF9ECF94C
:102CD00013FA13FA88FD88FD27FB27FB98FD98FD62
:102CE0007D037D038E068E0682098209060806088A
:102CF0001B071B0720072007860186010AFC0AFC28
:102D000010FB10FBC2F8C2F863F663F6D2F6D2F6F7
:102D100048F848F89AF99AF90EFC0EFC7DFD7DFD05
:102D2000EAFDEAFD12FF12FF1CFD1CFD9BFB9BFB55
:102D3000DDFADDFA6BF86BF897F497F458EE58EE7D
:102D400013EB13EBB2EDB2ED84EC84EC53EB53EBED
:102D50009BEE9BEE05F205F239F339F355FE55FE75
:102D6000831283126C196C19E119E119C520C52071
:102D70007F237F23CB1CCB1C7C137C13D708D70865
:102D8000360736078C048C04C0FBC0FB70FC70FC5B
:102D9000DE01DE01F301F301AB03AB0330073007C3
:102DA0006C086C087C097C099905990518021802C1
:102DB0006D016D01C0FDC0FD2AF92AF921F821F845
:102DC0008FF88FF8BEF9BEF9A2FAA2FA47FB47FBCB
:102DD000B8FCB8FC14FF14FFB5FEB5FEDEFCDEFC4B
:102DE000B9FCB9FCB6FAB6FAFDF8FDF890F790F721
:102DF000D3F5D3F59EF39EF37CEE7CEEE1EBE1EBB5
:102E000098EE98EE43EE43EE95ED95ED81EF81EF70
:102E100017F217F20EF40EF434003400611361134C
:102E200087198719131A131A521F521F6920692014
:102E30006B1A6B1A78107810750575054C054C05E2
:102E40004C044C0421FE21FE52FF52FF8A038A03E8
:102E5000280528055C075C07110711075F065F0658
:102E600091069106EA01EA0149FE49FEBCFCBCFC60
:102E700045FA45FA6AF86AF8B0F7B0F75AF85AF81E
:102E800019FB19FB44FC44FC3AFC3AFCB1FCB1FCD4
:102E90002CFE2CFE68FD68FD94FB94FB1DFA1DFAC8
:102EA0006BF86BF81BF81BF8E1F6E1F669F569F5CC
:102EB0002AF32AF37AEE7AEE85ED85ED5FEF5FEF88
:102EC000C0EEC0EE31EF31EF76F076F0D0F1D0F118
:102ED000CAF4CAF4A403A40372157215FE19FE19EC
:102EE000721A721A0D1E0D1EE11DE11DC818C818B8
:102EF000A00CA00C48034803A005A005830583058A
:102F0000D802D8026F026F02520452048D088D0855
:102F1000340A340A67066706E704E704900390035F
:102F20006F006F0089FD89FD01FA01FAB4F8B4F869
:102F30005CF95CF912F912F9E0F9E0F9F0FBF0FB49
:102F400035FD35FD57FD57FDE6FCE6FC0CFD0CFD9F
:102F5000FFFBFFFBEDFAEDFAADF8ADF894F794F74F
:102F6000C9F7C9F715F715F7A9F5A9F58FF18FF18D
:102F7000F1EDF1EDB4EFB4EF2FF02FF0B0EFB0EFD3
:102F80008DF08DF0C3F1C3F1E7F2E7F22DFA2DFADF
:102F90004A0D4A0D361B361B691C691C351B351B37
:102FA000EB1CEB1CB51CB51CFE13FE139A049A0413
:102FB000AB00AB00D104D104CC04CC04BB02BB02F7
:102FC000C001C001B906B906320D320D8C0B8C0B55
:102FD000D305D3054304430453035303EB00EB0031
:102FE000DBFBDBFBF3F7F3F7EBF8EBF826FA26FA5B
:102FF00066F966F901FA01FA0DFC0DFCE6FDE6FD45
:1030000044FD44FD4BFC4BFC17FC17FC92FB92FB70
:1030100064FA64FABAF7BAF761F761F7C7F7C7F766
:1030200046F746F786F486F4FBEEFBEE9CED9CED4E
:1030300018F018F04EEF4EEF27EF27EF1EF01EF0BE
:103040001AF21AF2F2F3F2F31CFB1CFB110D110D34
:103050005F1A5F1A741C741C6E1B6E1BA51BA51BCC
:103060006C1A6C1A4B124B12710571054102410228
:10307000960596051307130724052405DF02DF02D2
:103080004F064F06100B100B96089608810281021E
:10309000F8FFF8FF59005900B3FFB3FF52FB52FB92
:1030A0004DF84DF80BFA0BFA67FC67FCB1FCB1FC6C
:1030B00017FC17FC14FD14FD02FF02FF52FE52FE26
:1030C0005CFB5CFB00F900F911F911F952F952F9B6
:1030D00074F874F8C7F6C7F6C5F6C5F65FF55FF580
:1030E000C6F0C6F027EE27EE6CED6CEDD6EED6EE10
:1030F000C7F0C7F0BDF0BDF057F157F1DAF4DAF4DC
:103100001E031E03F112F112BD18BD1878187818AD
:10311000A517A517E717E71703150315E00AE00A37
:10312000580358038D048D0482088208570A570AF1
:10313000BC06BC0630053005A608A608AE0AAE0AD5
:10314000B706B70618011801A7FEA7FE2400240041
:1031500053FF53FF4BFB4BFBB2F9B2F952FB52FB4F
:103160004EFE4EFEC7FEC7FEF0FCF0FCE3FCE3FCA7
:10317000B3FDB3FDAFFCAFFC9AF99AF9C8F7C8F7F5
:10318000DDF7DDF79AF89AF8E3F7E3F796F696F6A7
:1031900055F655F6BCF3BCF372F072F01DEE1DEE61
:1031A00060ED60ED1CF01CF057F157F1AEF1AEF19F
:1031B000FAF1FAF141FA41FAA70BA70BF916F91641
:1031C000B319B319181818186C176C178E178E17B7
:1031D000C911C911AC07AC07210421047B067B0689
:1031E000F70AF70A4A0A4A0A020602060206020615
:1031F00019091909180918097204720406FF06FF53
:1032000018FE18FE67FF67FFE6FCE6FCACF9ACF9B8
:10321000F9F8F9F867FB67FB38FE38FE99FD99FD70
:1032200046FC46FC94FC94FCFAFCFAFCBCFBBCFBA0
:1032300095F995F9B0F8B0F8B4F8B4F8DDF8DDF820
:103240000FF70FF7C9F5C9F57BF47BF452F152F192
:103250001AEF1AEF12ED12EDFCEDFCED4EF04EF010
:1032600014F114F163F163F16BF36BF36000600030
:10327000080F080F21162116F916F9163316331602
:103280009D179D17F416F4166E0F6E0F8E088E089C
:10329000E307E307800A800A740B740B0E080E081C
:1032A000CB05CB05830783075A095A092707270748
:1032B0004D024D0276FF76FF9FFF9FFFDCFDDCFD98
:1032C0000FFB0FFB61F961F97AFA7AFA0AFD0AFD40
:1032D0006AFD6AFD76FC76FC09FC09FC09FC09FC28
:1032E00066FB66FB17FA17FA2AF92AF9A8F8A8F874
:1032F000B3F8B3F843F743F7EEF5EEF54CF44CF4BE
:1033000021F121F1A3EFA3EF4DEE4DEE3BEF3BEFAB
:10331000DEF0DEF0A4F1A4F12FF22FF255F455F413
:10332000A8FFA8FFD60CD60C0A140A1433163316BD
:103330004116411611181118E716E716FA0FFA0F81
:10334000700A700A90099009260B260BC40AC40A59
:10335000F406F40681048104F805F8058B078B0751
:10336000A405A405AF01AF01AFFFAFFF25FF25FF07
:103370000AFE0AFE2FFC2FFCCAFACAFAE3FBE3FBA3
:103380008CFD8CFDCCFDCCFDF7FCF7FCF8FBF8FBCD
:1033900087FB87FB23FB23FB8CFA8CFA64F964F927
:1033A000DAF8DAF808F908F955F855F8E7F6E7F623
:1033B0006EF36EF340F140F1A4F0A4F0C6F0C6F055
:1033C000A7F1A7F1D2F1D2F188F288F2D5F3D5F3C3
:1033D000AEFAAEFAA906A906090F090F361336137D
:1033E00082148214FE15FE159816981610121012EB
:1033F000910C910C640A640ABC0ABC0AC20AC20A93
:10340000CA07CA0776047604F304F304B406B406C4
:10341000FD05FD05D102D1024A004A006FFF6FFF92
:10342000FDFEFDFE84FD84FDA4FBA4FB74FB74FB88
:1034300096FC96FC50FD50FD1EFD1EFD2DFC2DFC46
:10344000B1FBB1FBB8FBB8FB84FB84FB01FA01FACA
:10345000D0F8D0F8C0F8C0F87FF87FF809F709F77E
:1034600078F378F315F115F1AAF0AAF0FDF0FDF06C
:1034700093F193F164F164F1FAF1FAF12BF32BF388
:10348000BFF6BFF6ABFFABFF04090409F30FF30F60
:10349000FC13FC13F515F515BA17BA17681668165C
:1034A00041124112FF0EFF0E460D460D550C550CF4
:1034B000510A510AB906B906EC04EC04500550054E
:1034C00054055405D703D703B201B2014F004F0092
:1034D0009EFF9EFFC2FEC2FE67FD67FD38FC38FC02
:1034E000E1FBE1FB01FC01FC36FC36FC00FC00FCCE
:1034F0007AFB7AFB2EFB2EFB55FB55FBEDFAEDFA22
:10350000DFF9DFF948F948F963F863F832F732F781
:10351000D4F4D4F422F222F232F132F13FF13FF14D
:103520003BF23BF213F313F35EF35EF307F407F49D
:1035300019F719F7A7FEA7FE090709072D0D2D0D8D
:103540003B113B115714571427172717FD16FD166B
:103550006E136E13E50FE50FD20DD20D940C940C83
:103560007D0A7D0AD606D606900490047F047F0467
:103570006B046B04380338035E015E0149004900A7
:103580005A005A0033003300EEFEEEFE4EFD4EFDB3
:1035900068FC68FC34FC34FC15FC15FC66FB66FB1F
:1035A00099FA99FA5DFA5DFAB9FAB9FAA4FAA4FAA5
:1035B000D7F9D7F988F988F9B3F8B3F80DF70DF70B
:1035C00015F515F5D2F2D2F2D3F1D3F198F198F1C5
:1035D00099F199F1C2F2C2F2EAF3EAF3FAF4FAF4D9
:1035E00058F658F6CBF9CBF91700170043064306F7
:1035F000DD0ADD0A4D0E4D0E9D119D118A148A14AF
:10360000CE14CE14C412C41296109610DF0EDF0E24
:10361000590D590DA00AA00A12071207E704E70482
:10362000FE03FE031F031F03B601B6012F002F0088
:10363000A3FFA3FFE7FFE7FFB1FFB1FFA1FEA1FEDC
:103640008EFD8EFD1CFD1CFDDAFCDAFC43FC43FC08
:1036500053FB53FBAFFAAFFAA8FAA8FAD0FAD0FAA4
:103660008FFA8FFAD0F9D0F987F987F9FAF8FAF8D2
:10367000ABF7ABF743F643F625F525F508F508F566
:1036800042F542F526F526F5BDF5BDF5AFF6AFF6E8
:1036900080F780F75BF85BF871FA71FA90FE90FEA4
:1036A00003030303960696067D097D098E0C8E0C96
:1036B000740F740F971097100B100B10E40EE40E9C
:1036C000A50DA50D920C920CA30AA30A0D080D08D6
:1036D00019061906C504C504890389031B021B02C8
:1036E000B300B300F0FFF0FFD6FFD6FFA8FFA8FF9E
:1036F00015FF15FF58FE58FEA6FDA6FD2BFD2BFD60
:1037000086FC86FCD3FBD3FB74FB74FBF4FAF4FA5F
:103710007EFA7EFA47FA47FA38FA38FAF4F9F4F9F9
:10372000DAF9DAF9BFF9BFF981F981F9B5F9B5F933
:10373000FAF9FAF989FA89FA2CFB2CFB66FB66FB8D
:10374000D4FBD4FB5FFC5FFC27FD27FDE4FDE4FD1B
:10375000ABFEABFEFBFFFBFFE900E900A401A40107
:103760004C024C02DF02DF02CC03CC038704870447
:10377000F404F4042B052B0533053305090509056D
:10378000B304B30458045804DD03DD03700370036D
:10379000040304036A026A02D701D701820182018D
:1037A00027012701E800E800B200B20073007300AF
:1037B0003E003E00FEFFFEFFC7FFC7FFA8FFA8FFB9
:1037C0008CFF8CFF7EFF7EFF7DFF7DFF6CFF6CFF1B
:1037D00073FF73FF89FF89FFA6FFA6FFC3FFC3FF27
:1037E000DFFFDFFFFFFFFFFFF7FFF7FFEEFFEEFF5B
:1037F000FDFFFDFF1F001F0062006200BF00BF0051
:103800003B013B01C001C00147024702CD02CD028E
:1038100055035503BC03BC03140414045604560496
:10382000630463045804580425042504B703B7034C
:1038300035033503A002A002E201E2010C010C01F4
:103840001E001E0031FF31FF3CFE3CFE49FD49FDDC
:1038500066FC66FC8AFB8AFBE0FAE0FA45FA45FA68
:10386000CCF9CCF972F972F943F943F93FF93FF910
:1038700050F950F96DF96DF9B7F9B7F902FA02FA92
:103880004AFA4AFA8FFA8FFAC9FAC9FAF8FAF8FA34
:1038900016FB16FB61FB61FBB7FBB7FB39FC39FC80
:1038A000B2FCB2FC43FD43FD3DFE3DFE74FF74FFE0
:1038B000B400B40039023902C403C4035C055C05DA
:1038C000DD06DD06260826082C092C09050A050A4E
:1038D0008E0A8E0ABC0ABC0ABD0ABD0A4F0A4F0AEC
:1038E000C909C9091909190919081908E306E306DC
:1038F000BA05BA055E045E04D802D8023701370162
:10390000A1FFA1FF1DFE1DFEA7FCA7FC52FB52FB61
:1039100029FA29FA2FF92FF970F870F8EDF7EDF779
:103920009BF79BF784F784F799F799F7E0F7E0F7AF
:103930004AF84AF8C7F8C7F856F956F9FBF9FBF9FF
:1039400087FA87FA15FB15FB8CFB8CFBEDFBEDFB77
:103950001EFC1EFC5BFC5BFC9FFC9FFCEAFCEAFC83
:103960004CFD4CFDADFDADFD45FE45FE35FF35FF83
:10397000420042007C017C01EC02EC025A045A0431
:10398000D105D1052407240739083908090909098F
:10399000B009B009F009F009FE09FE09C609C60917
:1039A00049094909C408C408080808080E070E0791
:1039B000FC05FC05F904F904D603D6038802880245
:1039C0003E013E01F5FFF5FFB0FEB0FE79FD79FD49
:1039D00066FC66FC7AFB7AFBB0FAB0FA0DFA0DFAD7
:1039E000A0F9A0F958F958F936F936F93AF93AF93F
:1039F0005CF95CF9A1F9A1F900FA00FA65FA65FA37
:103A0000D5FAD5FA3DFB3DFB9CFB9CFBF1FBF1FBA2
:103A100030FC30FC54FC54FC66FC66FC8EFC8EFCD6
:103A2000B6FCB6FCFCFCFCFC51FD51FDBAFDBAFD38
:103A300069FE69FE54FF54FF5D005D00A001A00116
:103A4000F402F40252045204A705A705CC06CC06E2
:103A5000AE07AE0761086108CF08CF08FB08FB0876
:103A600006090609C508C508710871080208020898
:103A700067076707A206A206CF05CF05E604E6049E
:103A8000C903C903920292024D014D01FEFFFEFFE0
:103A9000A5FEA5FE50FD50FD1EFC1EFC0FFB0FFBFE
:103AA0001EFA1EFA5CF95CF9CCF8CCF86AF86AF8F0
:103AB00034F834F826F826F849F849F89BF89BF8CA
:103AC00004F904F983F983F914FA14FAA5FAA5FAAA
:103AD00031FB31FBA7FBA7FB06FC06FC48FC48FCBE
:103AE00087FC87FCBBFCBBFCF9FCF9FC44FD44FDF6
:103AF0008EFD8EFDFFFDFFFD9AFE9AFE6FFF6FFFAC
:103B00006300630080018001B002B002DE03DE03C7
:103B1000090509050F060F06D306D30669076907CD
:103B2000D107D107F807F80702080208D407D4071D
:103B30007F077F071307130785068506DE05DE0569
:103B40001C051C054E044E045B035B03500250022F
:103B5000390139011B001B00FCFEFCFEDCFDDCFD15
:103B6000D6FCD6FCF3FBF3FB2CFB2CFB88FA88FA83
:103B70000AFA0AFAB2F9B2F980F980F96FF96FF925
:103B80007FF97FF9BAF9BAF90DFA0DFA71FA71FAFB
:103B9000E8FAE8FA67FB67FBE7FBE7FB55FC55FC37
:103BA000B3FCB3FCF4FCF4FC26FD26FD52FD52FDF3
:103BB00075FD75FDADFDADFDDCFDDCFD20FE20FEDF
:103BC00090FE90FE2BFF2BFFEBFFEBFFC600C60025
:103BD000C201C201BF02BF02BC03BC03AC04AC04FF
:103BE0006E056E05FF05FF0573067306AC06AC0691
:103BF000C406C406BD06BD06870687064106410603
:103C0000DD05DD0566056605D504D50434043404F8
:103C10007E037E03AE02AE02D001D001E300E300DA
:103C2000F1FFF1FFFCFEFCFE0CFE0CFE39FD39FD40
:103C30007AFC7AFCDAFBDAFB57FB57FBF6FAF6FA6A
:103C4000B8FAB8FA99FA99FA97FA97FAAEFAAEFA78
:103C5000E1FAE1FA30FB30FB89FB89FBEAFBEAFB86
:103C60004EFC4EFCAAFCAAFC09FD09FD57FD57FDC0
:103C700098FD98FDBFFDBFFDE0FDE0FDF9FDF9FDFC
:103C800017FE17FE4DFE4DFE7AFE7AFEB7FEB7FE1A
:103C900013FF13FF94FF94FF37003700F600F60080
:103CA000CF01CF01A902A90286038603550455045A
:103CB000F604F60473057305D405D405FD05FD056A
:103CC0001206120606060606D705D70597059705BC
:103CD0002D052D05B304B304280428048E038E0398
:103CE000E402E402290229026801680199009900AE
:103CF000C8FFC8FFF7FEF7FE30FE30FE86FD86FDEA
:103D0000ECFCECFC71FC71FC0DFC0DFCC4FBC4FB79
:103D10009CFB9CFB8FFB8FFB9BFB9BFBB7FBB7FBD1
:103D2000E8FBE8FB2AFC2AFC77FC77FCD4FCD4FCFB
:103D30002FFD2FFD84FD84FDD7FDD7FD1FFE1FFE47
:103D400056FE56FE76FE76FE95FE95FEA7FEA7FE73
:103D5000BDFEBDFED7FED7FEE8FEE8FE0EFF0EFF5D
:103D60004CFF4CFFA9FFA9FF22002200B600B600BD
:103D70005801580104020402B602B6025B035B0359
:103D8000DB03DB034D044D04A404A404CB04CB04E7
:103D9000EA04EA04E504E504C904C9049A049A049F
:103DA00049044904F603F60390039003180318032B
:103DB00090029002FB01FB0159015901AF00AF00D5
:103DC000070007005CFF5CFFBBFEBBFE2DFE2DFE67
:103DD000A7FDA7FD35FD35FDD0FCD0FC7CFC7CFCAF
:103DE00047FC47FC27FC27FC23FC23FC34FC34FC69
:103DF00059FC59FC8AFC8AFCC8FCC8FC13FD13FD65
:103E000064FD64FDB7FDB7FD14FE14FE5EFE5EFEAC
:103E1000A6FEA6FEE7FEE7FE13FF13FF2FFF2FFF10
:103E200040FF40FF51FF51FF58FF58FF76FF76FFDC
:103E30008FFF8FFFAAFFAAFFDEFFDEFF2500250010
:103E400082008200F200F20070017001EF01EF01C8
:103E50006B026B02E602E602420342037A037A0334
:103E6000B003B003CB03CB03BC03BC03B103B1036A
:103E700080038003510351030F030F03B902B902FA
:103E800060026002E001E0017C017C010A010A019C
:103E90009A009A0020002000ACFFACFF34FF34FFF2
:103EA000C8FEC8FE6AFE6AFE10FE10FECAFDCAFD0C
:103EB0009AFD9AFD67FD67FD4EFD4EFD2EFD2EFD20
:103EC00028FD28FD31FD31FD4AFD4AFD6FFD6FFDE6
:103ED000AAFDAAFDDFFDDFFD26FE26FE60FE60FED8
:103EE000A3FEA3FECEFECEFE03FF03FF3BFF3BFF80
:103EF0006AFF6AFF8BFF8BFFA9FFA9FFB1FFB1FF2C
:103F0000BCFFBCFFC3FFC3FFDAFFDAFFEBFFEBFF31
:103F1000150015005C005C0093009300FA00FA00A5
:103F200028012801BC01BC01380238028A028A0239
:103F30009E029E022203220395039503A303A3037B
:103F400034033403F502F502840284023B023B028F
:103F5000B601B6018801880193009300BEFFBEFF41
:103F600009FF09FF8BFE8BFEC4FDC4FDC1FDC1FD31
:103F70006DFE6DFEE6FDE6FD77FD77FD46FD46FD37
:103F80008CFD8CFD60FD60FDCDFDCDFDF1FDF1FDF5
:103F90002EFE2EFE5DFE5DFEB6FEB6FEE9FEE9FEDD
:103FA00026FF26FF66FF66FFE3FEE3FEEBFEEBFE69
:103FB000F2FEF2FED1FED1FEDCFEDCFECAFECAFE3F
:103FC000DCFEDCFEB5FEB5FE0DFF0DFF69FE69FEF1
:103FD00029FE29FE50FD50FD5FFD5FFDC2FDC2FDC3
:103FE00066FE66FE23FF23FF8CFF8CFF2A002A005B
:103FF0009F009F0068016801E301E3010A020A02D1
:10400000E202E202F903F903F304F30409050905E6
:104010000B050B0520052005D804D8047C047C047E
:104020000D040D049303930372027202D201D201B4
:10403000080108016A006A0088FF88FFE1FFE1FFCC
:1040400085FF85FFDDFEDDFE5DFE5DFE7FFF7FFF00
:10405000C6FEC6FE40FE40FE01FE01FE3AFD3AFDF0
:104060005EFC5EFC31FC31FC89FC89FC3BFC3BFCCA
:10407000CCFBCCFB19FC19FCF5FCF5FC7FFC7FFCB0
:10408000C7FCC7FC55FD55FD2FFD2FFDCFFCCFFC18
:10409000B6FDB6FDD0FCD0FC8BFC8BFCB1FBB1FBBC
:1040A000ADFBADFB28FC28FCF7FCF7FC3AFE3AFE22
:1040B000F0FEF0FEAC00AC0041024102F703F70352
:1040C00052055205CA06CA06F207F207FE08FE08A4
:1040D000630A630A690A690A150A150AE209E2090C
:1040E000E008E008CF07CF07930693067305730532
:1040F000A003A003620262020D010D01E5FFE5FFCE
:10410000DFFEDFFE36FE36FE28FD28FD25FD25FDFF
:104110005FFD5FFD21FC21FC52FC52FC13FC13FCF3
:104120005CFB5CFB1FFB1FFBA6FBA6FB7EFB7EFB79
:1041300038FB38FB47FB47FBD0FBD0FB34FC34FC9F
:10414000E9FBE9FBEDFBEDFBEEFBEEFBD3FAD3FA6B
:1041500065FA65FA18FA18FA32F932F9B5F8B5F8CD
:10416000D9F7D9F7BAF7BAF72AF72AF726F826F8CF
:1041700013FA13FA92FB92FBDCFEDCFEB402B402EB
:104180001F061F06DF09DF09C60DC60D6C106C1077
:10419000F712F7122415241533153315F714F714F5
:1041A000D913D913531153112D0E2D0EC30AC30A5F
:1041B000940694066B026B026AFE6AFE00FB00FB2B
:1041C00033F833F81CF51CF5A1F3A1F3CCF2CCF2D3
:1041D00045F245F28AF28AF2ECF3ECF374F574F5E9
:1041E000C8F6C8F6D8F8D8F815FB15FB80FC80FC9B
:1041F000E1FDE1FDC3FEC3FE08FF08FF79FE79FE85
:10420000CBFDCBFDACFCACFC97FA97FAFFF8FFF8BE
:10421000D1F6D1F6AFF4AFF4D7F2D7F2B8F1B8F1E6
:104220007EF17EF140F140F149F349F370F770F708
:1042300099FA99FA5FFF5FFFAE05AE05270A270AD4
:10424000680E680E17141714521752177119711946
:10425000DE1BDE1BFA1BFA1B791A791A3518351882
:104260001615161574107410370B370B790679066E
:104270008C018C0136FC36FCE7F8E7F8CDF5CDF57E
:10428000A4F2A4F2CAF1CAF1D4F1D4F1A2F1A2F1DC
:10429000DEF2DEF26CF56CF55AF75AF71EF91EF9EC
:1042A00017FC17FC4BFE4BFE39FF39FF98009800B6
:1042B00050015001A400A400BCFFBCFF06FF06FF94
:1042C000CFFCCFFC5FFA5FFAB5F8B5F86BF66BF68A
:1042D00025F425F4B2F2B2F2EDF1EDF11EF11EF18A
:1042E00039F139F10FF50FF518F818F86BFA6BFA88
:1042F000370137019C069C06E808E808520F520F68
:104300005C145C142E152E153C183C186E1A6E1A8F
:1043100074187418991699167D157D15F510F510F9
:10432000560B560BD007D0073B033B0303FD03FDA1
:10433000E0F9E0F938F738F73DF33DF301F201F227
:1043400063F263F26EF16EF1FFF1FFF1BAF4BAF4C9
:1043500048F648F694F794F7BDFABDFA1DFD1DFD29
:10436000E3FDE3FD71FF71FFB700B70020002000FF
:1043700061FF61FF0FFF0FFFCFFCCFFC80FA80FAD7
:1043800054F954F9E6F6E6F6ABF4ABF49CF39CF37F
:10439000A7F2A7F268F168F184F284F25FF65FF6A3
:1043A0002AF82AF870FB70FB550255020806080629
:1043B00052095209521052107D137D13EB14EB1465
:1043C000A418A4187F197F19521752179816981617
:1043D000EF14EF14C30FC30F310B310B04080408A3
:1043E0007D027D0205FD05FD9BFA9BFAE7F6E7F6E7
:1043F0004FF34FF3D3F2D3F25AF25AF235F135F1CB
:1044000091F291F280F480F451F551F53DF73DF7CA
:1044100021FA21FA8DFB8DFBCBFCCBFC8CFE8CFEB4
:104420008CFF8CFF6AFF6AFF37FF37FF0FFF0FFF1C
:1044300016FD16FD3CFB3CFB7DFA7DFA65F865F840
:10444000A3F6A3F61AF61AF625F525F531F431F49C
:10445000FAF4FAF477F877F868FA68FAADFCADFC8C
:10446000C802C802CA06CA0606090609330F330F76
:10447000E812E812D113D1130A170A175E185E1852
:1044800062166216701570154D144D14F80FF80F62
:10449000730B730B58085808B903B9035CFE5CFE34
:1044A00096FB96FBA6F8A6F80CF50CF5F1F3F1F3E4
:1044B000EDF3EDF3F6F2F6F28CF38CF3A2F5A2F540
:1044C000A2F6A2F6D7F7D7F779FA79FA0EFC0EFC26
:1044D000C0FCC0FC57FE57FE53FF53FFD5FED5FE70
:1044E000FAFEFAFEDAFEDAFE2FFD2FFDE5FBE5FB14
:1044F000C3FAC3FAC0F8C0F898F798F707F707F7B8
:1045000020F620F680F580F5FAF5FAF506F606F6BF
:104510000BF70BF7C3FAC3FACDFCCDFCF4FEF4FEA7
:10452000470447045007500746094609660E660EC1
:1045300006110611A811A81128142814EA14EA1467
:10454000AA12AA12FC11FC11DD10DD10AF0CAF0C89
:1045500041094109C606C6065E025E023DFE3DFEF9
:1045600014FC14FC2DF92DF946F646F6ABF5ABF527
:1045700031F531F548F448F431F531F5B6F6B6F6D3
:104580001CF71CF782F882F89EFA9EFA71FB71FB09
:1045900047FC47FCC5FDC5FD3AFE3AFE27FE27FE57
:1045A000CAFECAFE55FE55FE74FD74FD93FC93FCD5
:1045B00062FB62FB4DFA4DFA87F987F99EF89EF887
:1045C00019F819F882F782F772F772F77AF77AF723
:1045D00074F874F8ABFBABFB6AFD6AFD56FF56FF3F
:1045E0003D043D04FE06FE06CD08CD08BE0DBE0D01
:1045F00042104210E910E91099139913B714B71437
:10460000AB12AB1210121012611161113C0D3C0D76
:1046100078097809710771074203420398FE98FEF2
:10462000BAFCBAFC1CFA1CFA9CF69CF6EEF5EEF508
:10463000B9F5B9F54BF44BF4F4F4F4F4B5F6B5F67A
:10464000F3F6F3F617F817F878FA78FA71FB71FBBE
:10465000FEFBFEFB8AFD8AFD62FE62FE23FE23FE58
:10466000B9FEB9FECFFECFFEE4FDE4FD18FD18FD56
:1046700020FC20FCF8FAF8FA1FFA1FFA53F953F954
:10468000ADF8ADF82AF82AF8B5F7B5F7F5F7F5F76C
:104690001BF81BF81FFA1FFA2FFD2FFD85FE85FE64
:1046A0008501850110061006E607E607AA0AAA0A90
:1046B000DF0EDF0E55105510561156118F138F1344
:1046C0007B137B1368116811DC10DC10360F360F7A
:1046D000080B080BE607E6079805980554015401F6
:1046E0009AFD9AFDDFFBDFFB7EF97EF911F711F7EA
:1046F0009AF69AF668F668F6D8F5D8F58DF68DF63E
:1047000003F803F8D4F8D4F8ECF9ECF983FB83FB55
:104710009CFC9CFC06FD06FD8DFD8DFD2DFE2DFEF9
:1047200016FE16FEF4FDF4FDB6FDB6FD3CFD3CFDA7
:1047300048FC48FC2DFB2DFB85FA85FA17FA17FA81
:104740004DF94DF9D7F8D7F8DBF8DBF8AFF8AFF84B
:10475000D3F8D3F861F961F9A9FBA9FB6DFE6DFEF1
:10476000DDFFDDFFAE02AE02C406C406CB08CB08F7
:10477000000B000B5E0E5E0E30103010AF10AF104D
:104780009511951192119211890F890FA90DA90DFB
:10479000D80BD80BA608A608290529059002900277
:1047A000B0FFB0FF97FC97FCA6FAA6FA5EF95EF997
:1047B00031F831F8BCF7BCF7AFF7AFF7E2F7E2F743
:1047C0008EF88EF870F970F978FA78FAA6FBA6FBE5
:1047D00092FC92FC4DFD4DFD00FE00FE20FE20FEF1
:1047E00008FE08FE0FFE0FFEDAFDDAFD79FD79FD09
:1047F000D9FCD9FC23FC23FC54FB54FBC2FAC2FABB
:1048000068FA68FA2DFA2DFAF2F9F2F9F1F9F1F9EC
:1048100007FA07FA42FA42FAB0FAB0FA6DFB6DFBFA
:10482000BEFDBEFD0F000F00310131016C036C03B2
:104830008A068A067E087E08480A480A640C640CC8
:10484000F70DF70D990E990EAF0EAF0E5B0E5B0EC6
:104850004D0D4D0D4F0B4F0B3A093A091D071D0722
:10486000A204A204320232023400340097FE97FE02
:104870001DFD1DFD0EFC0EFC4BFB4BFBE3FAE3FAAA
:10488000AEFAAEFA89FA89FA9FFA9FFAFEFAFEFAB0
:1048900061FB61FBE5FBE5FB73FC73FCD1FCD1FC28
:1048A0001CFD1CFD60FD60FD44FD44FD2AFD2AFD4C
:1048B00027FD27FD10FD10FDF3FCF3FC9EFC9EFC84
:1048C0002FFC2FFCCFFBCFFBC3FBC3FBCFFBCFFBEE
:1048D000BBFBBBFBA9FBA9FBEEFBEEFB06FC06FC4E
:1048E00009FC09FC3FFC3FFCC9FCC9FC67FE67FEF4
:1048F00000000000CE00CE0003020302CB03CB0376
:1049000073057305DE06DE06ED07ED07E208E20833
:10491000A709A709D109D10966096609C408C4080D
:10492000CF07CF07BB06BB06790579051904190423
:10493000CC02CC02C001C001EC00EC002600260035
:1049400077FF77FFC2FEC2FE32FE32FECEFDCEFD05
:104950006BFD6BFDF9FCF9FCC1FCC1FCA4FCA4FCE3
:10496000A2FCA2FCA0FCA0FC9BFC9BFC92FC92FC89
:10497000A4FCA4FCA5FCA5FCBEFCBEFCCAFCCAFCB5
:10498000DFFCDFFC03FD03FDFFFCFFFCE4FCE4FCBB
:10499000CEFCCEFCBAFCBAFCA6FCA6FCB0FCB0FC7B
:1049A000A6FCA6FC98FC98FC9DFC9DFCAFFCAFFC13
:1049B00096FC96FCA5FCA5FCC7FCC7FC85FD85FD07
:1049C000CEFECEFEC9FFC9FF98009800C201C20109
:1049D0000C030C035A045A04760576054206420677
:1049E000F006F006650765076507650711071107FB
:1049F0008F068F060106010677057705B704B70411
:104A0000CE03CE03F202F20255025502C701C701DE
:104A10003E013E0194009400DDFFDDFF4EFF4EFF9E
:104A2000E6FEE6FE61FE61FEE2FDE2FD7FFD7FFD4A
:104A30002DFD2DFDF8FCF8FCE2FCE2FCCFFCCFFCE8
:104A4000C4FCC4FCC5FCC5FCCCFCCCFCDBFCDBFC26
:104A500006FD06FD28FD28FD44FD44FD63FD63FDC4
:104A600079FD79FD98FD98FDBAFDBAFDCFFDCFFD2A
:104A7000DCFDDCFDEBFDEBFDF3FDF3FD07FE07FECA
:104A80001BFE1BFE29FE29FE18FE18FE23FE23FE38
:104A90003CFE3CFEC1FEC1FE97FF97FF3F003F007A
:104AA000D500D5009A019A01700270025503550392
:104AB00023042304B904B904370537058E058E0590
:104AC0009D059D057505750529052905D304D304A4
:104AD0008C048C041F041F0488038803EE02EE027A
:104AE00065026502D701D7014E014E01B900B90038
:104AF0001800180090FF90FF1EFF1EFFA0FEA0FEF2
:104B00002EFE2EFECFFDCFFD7BFD7BFD42FD42FD47
:104B100020FD20FDFFFCFFFCEDFCEDFCE9FCE9FCC9
:104B2000E9FCE9FCF5FCF5FC17FD17FD3CFD3CFD3F
:104B30005FFD5FFD85FD85FDAAFDAAFDE0FDE0FDB1
:104B400014FE14FE3AFE3AFE5AFE5AFE79FE79FE33
:104B500096FE96FEBCFEBCFED8FED8FEEFFEEFFE33
:104B6000F9FEF9FE0CFF0CFF19FF19FF39FF39FFA1
:104B70005EFF5EFF98FF98FF1A001A009C009C00E1
:104B8000000100016D016D01DF01DF0153025302DD
:104B9000D702D7024F034F03BA03BA030F040F041F
:104BA0003C043C0444044404370437040C040C045F
:104BB000DB03DB03950395032D032D03B602B60239
:104BC00042024202C201C20139013901B900B900F1
:104BD00031003100A7FFA7FF2EFF2EFFBBFEBBFE5B
:104BE00055FE55FE0FFE0FFECEFDCEFD91FD91FD53
:104BF0006FFD6FFD5CFD5CFD52FD52FD55FD55FDE9
:104C00005DFD5DFD6CFD6CFD8CFD8CFDB7FDB7FDA4
:104C1000DCFDDCFD08FE08FE30FE30FE61FE61FEBC
:104C200093FE93FEBCFEBCFEDBFEDBFEFFFEFFFE42
:104C30001DFF1DFF3AFF3AFF57FF57FF6BFF6BFF4A
:104C40007DFF7DFF92FF92FFA0FFA0FFA2FFA2FFCA
:104C5000AFFFAFFFBAFFBAFFE0FFE0FF170017009A
:104C60003E003E00640064009A009A00CE00CE0030
:104C70000B010B01510151019C019C01E701E7016E
:104C80002302230249024902660266027402740288
:104C90007402740267026702430243020E020E02AC
:104CA000D501D5019201920145014501F100F100C4
:104CB0009500950041004100F3FFF3FFA2FFA2FF22
:104CC0005BFF5BFF24FF24FFE0FEE0FEA5FEA5FEE8
:104CD0007DFE7DFE59FE59FE44FE44FE3DFE3DFE36
:104CE00030FE30FE33FE33FE48FE48FE59FE59FECC
:104CF00068FE68FE79FE79FE8DFE8DFEA4FEA4FEA0
:104D0000C0FEC0FED6FED6FEEDFEEDFE06FF06FF9F
:104D10001CFF1CFF36FF36FF4CFF4CFF5BFF5BFFA9
:104D20006FFF6FFF86FF86FF96FF96FFACFFACFF1D
:104D3000C2FFC2FFD5FFD5FFE7FFE7FF0300030077
:104D400013001300280028003F003F005D005D00B5
:104D50009B009B00C400C400DB00DB00FD00FD00E5
:104D6000220122013C013C015601560173017301ED
:104D700095019501A501A5019F019F01960196014D
:104D800090019001770177015E015E013D013D01D7
:104D90000D010D01D900D900A200A2006600660035
:104DA0003500350005000500C4FFC4FF8BFF8BFFF5
:104DB00056FF56FF24FF24FF04FF04FFECFEECFE29
:104DC000C2FEC2FEB5FEB5FEA9FEA9FE9EFE9EFE77
:104DD000A1FEA1FEA8FEA8FEA5FEA5FEAFFEAFFEA9
:104DE000B2FEB2FEB8FEB8FEC8FEC8FEDAFEDAFEBB
:104DF000F7FEF7FE11FF11FF38FF38FF0EFF0EFF21
:104E0000D5FED5FEF9FEF9FE26FF26FF36FF36FF5A
:104E100039FF39FF58FF58FF88FF88FFA9FFA9FF16
:104E2000C5FFC5FFEAFFEAFF1D001D003600360082
:104E30006200620080008000C300C3001001100106
:104E4000350135014B014B01760176018D018D0154
:104E5000A301A301AA01AA01C801C801D401D40178
:104E6000D101D101A801A801A801A8017801780108
:104E70000202020232033203180218021D001D0052
:104E800041FF41FF5FFF5FFF09FF09FFC9FEC9FE48
:104E90009AFE9AFE5FFE5FFE7EFE7EFECCFECCFE9C
:104EA000B4FEB4FE58FE58FE80FE80FEC4FEC4FE72
:104EB000E9FEE9FE2FFF2FFF6FFF6FFF2BFF2BFF98
:104EC000E5FEE5FEDCFEDCFEF2FEF2FE02FF02FF86
:104ED00003FF03FF1BFF1BFFD9FED9FE98FE98FEC0
:104EE000C0FEC0FEE6FEE6FEFBFEFBFECCFECCFEF8
:104EF000ADFEADFEEAFEEAFE1CFF1CFF31FF31FFF6
:104F00004BFF4BFF8CFF8CFFB0FFB0FFDAFFDAFFE7
:104F100042004200CE00CE005F015F01BF01BF0131
:104F2000E501E5011F021F029F029F02B502B502C3
:104F30000403040388038803FD03FD03EC03EC036F
:104F4000AC03AC037203720334033403DC02DC02EF
:104F50007C027C020F020F02A301A301270127019B
:104F6000D700D70046004600CEFFCEFFF2FFF2FF8B
:104F7000A3FFA3FF0EFF0EFF62FE62FE44FE44FE8F
:104F800041FE41FE85FE85FE29FE29FEB2FDB2FDF1
:104F9000FFFDFFFDF2FDF2FD97FD97FD88FD88FD09
:104FA000DDFDDDFDA7FDA7FD62FD62FDD1FDD1FDAB
:104FB000C0FDC0FD5AFD5AFD6CFD6CFD91FD91FDDB
:104FC00026FD26FD3DFD3DFD2DFD2DFD16FD16FDAD
:104FD00021FD21FD3AFD3AFD5AFD5AFD85FD85FD75
:104FE000DFFDDFFD34FE34FEF1FEF1FE1700170099
:104FF0005C015C0144024402E302E30274037403B3
:1050000046044604D704D704A405A40502060206F4
:105010002906290609060906C905C90556055605C2
:10502000D204D204220422046B036B039F029F026A
:10503000E101E101080108016D006D00C4FFC4FF3A
:1050400014FF14FFC1FEC1FE66FE66FE05FE05FEEE
:105050007CFD7CFD32FD32FDEAFCEAFC19FD19FD08
:10506000FFFCFFFCEAFCEAFC1FFD1FFD69FD69FD7A
:10507000DDFDDDFD09FE09FEC5FDC5FDF2FDF2FD0C
:10508000FBFDFBFDB5FDB5FD8FFD8FFD6FFD6FFDDC
:10509000E7FCE7FCACFCACFC63FC63FC3FFC3FFCC6
:1050A00049FC49FCFEFBFEFBB0FBB0FB7EFB7EFB3C
:1050B000B6FBB6FB24FC24FCFAFCFAFC10FF10FF44
:1050C000E401E4012B042B047D057D050A060A0694
:1050D000AB06AB06700770078D088D08DF08DF0888
:1050E00073087308AB07AB07FC06FC066D066D067C
:1050F0008E058E056F046F042B032B03F301F30160
:10510000CD00CD00E3FFE3FF71FF71FF1CFF1CFF2B
:10511000EAFEEAFED9FED9FEC4FEC4FE9FFE9FFE53
:105120004AFE4AFED2FDD2FD32FD32FDD8FCD8FC4B
:10513000A9FCA9FCB1FCB1FCB4FCB4FCAFFCAFFC15
:1051400099FC99FC76FC76FC10FC10FC9FFB9FFB05
:105150005BFB5BFB14FB14FBC4FAC4FA60FA60FA55
:1051600091F991F93AF83AF847F747F7E6F6E6F693
:105170005EF75EF712F812F822F822F873F773F769
:10518000A2F6A2F6DCF5DCF59BF69BF6B8FCB8FCC3
:10519000320832089E139E13CA19CA19FD19FD1947
:1051A000A717A717551655168015801544114411D9
:1051B000F108F1087800780001FC01FC7AFC7AFC27
:1051C000EFFEEFFE520052001F001F00830083001D
:1051D0001802180231043104A204A2047E027E02E5
:1051E0006FFF6FFF93FD93FD0BFD0BFDD0FCD0FC1B
:1051F00028FC28FCE8FAE8FA89FA89FA4DFB4DFB0D
:105200007FFC7FFC6BFD6BFD6DFD6DFD2CFD2CFDB2
:1052100010FD10FD76FC76FCD1FBD1FBCFFACFFA66
:1052200006F906F9F5F6F5F6A2F4A2F4B1F1B1F13A
:10523000C1EFC1EF84EF84EF0EF10EF199F399F312
:1052400055F555F5AAF5AAF5B9F5B9F521F621F602
:10525000D4F7D4F767FE67FE3E0A3E0A44164416AA
:105260000F1D0F1D171D171D21192119A715A71592
:10527000CE13CE1321102110D208D208B100B100F4
:10528000DAFBDAFB5CFC5CFC220022007F037F037C
:1052900075047504AD04AD047E057E05E106E106E6
:1052A000C706C706B303B303F2FEF2FE34FB34FBBA
:1052B000C2F9C2F912FA12FAE0FAE0FAD7FAD7FA0A
:1052C00013FB13FB84FC84FC57FE57FE82FF82FF16
:1052D00044FF44FF6CFD6CFDACFBACFB54FA54FA8C
:1052E0005FF95FF9A8F8A8F855F755F758F558F59C
:1052F000A0F3A0F333F233F2ADF1ADF13BF23BF2A8
:105300002EF32EF395F495F4F3F5F3F510F710F76B
:105310000DF80DF8D9F8D9F872F972F974FD74FD29
:10532000A407A407B514B5141C1E1C1E861F861FD7
:10533000111A111A58135813840F840FCE0CCE0C67
:10534000D207D2073001300185FC85FC19FD19FD1B
:105350001A021A028E078E07CD09CD09F508F50845
:105360005A075A07B606B60654065406A403A40301
:10537000CEFECEFE53FA53FA4CF84CF8D7F8D7F8D5
:1053800052FB52FB51FD51FD6DFE6DFECDFFCDFF79
:10539000F400F40056015601AF00AF002EFE2EFEC1
:1053A0005EFB5EFB7CF97CF979F879F876F876F8A3
:1053B00016F816F87AF67AF698F498F41AF31AF3BF
:1053C0009AF29AF286F386F333F433F447F447F40F
:1053D00006F406F439F439F465F565F55DF75DF723
:1053E0009FF89FF862FB62FB4D044D04681268123F
:1053F0002F1F2F1F8C238C23FD1DFD1D041404144F
:10540000910C910CBF08BF083505350546004600D4
:1054100037FC37FC2FFD2FFDD403D4033F0C3F0C8A
:1054200040114011521052103A0B3A0B56055605D6
:105430000901090133FD33FD3CF93CF989F689F690
:10544000EDF6EDF617FA17FA3CFF3CFF96039603CC
:1054500025052505C504C5049502950299FF99FF08
:1054600014FD14FD77FA77FA6AF86AF8EDF7EDF7AC
:105470003EF83EF8CFF9CFF9F6FAF6FA16FA16FA30
:10548000A7F7A7F7AFF4AFF465F265F265F265F23E
:1054900018F318F317F317F32CF22CF28AF18AF1B0
:1054A000D4F2D4F211F611F6F6F8F6F896FA96FA66
:1054B000920092008C0D8C0DA91CA91CD324D3241E
:1054C000DC20DC20C614C61488098809350435049C
:1054D000B502B502F700F7008DFE8DFEA3FEA3FE18
:1054E000FD03FD03470C470C26122612851185117A
:1054F000370B370BEB02EB02C9FCC9FC47F947F944
:10550000B7F6B7F639F539F55FF65FF640FA40FAC7
:10551000B3FFB3FFE804E804AE06AE06A605A60591
:10552000A002A00286FE86FE5DFB5DFB70F970F9AD
:1055300064F864F826F926F95CFA5CFACBFBCBFB3D
:105540000EFD0EFD5FFC5FFC79F979F952F552F51D
:1055500041F141F13BEF3BEFD1EFD1EFF8F0F8F043
:10556000BEF1BEF1BBF1BBF15AF25AF219F519F5D1
:105570004BF94BF901FC01FC3BFD3BFD0F030F0315
:1055800051105110151F151FF625F6258A208A2067
:10559000931393132C082C08C603C603B503B50355
:1055A0006B036B030502050253025302D706D706AD
:1055B000760D760DD710D710D30DD30D1E061E060F
:1055C00002FE02FE4EF94EF9C5F7C5F777F777F7F9
:1055D000EFF7EFF715FA15FA92FD92FDC001C00141
:1055E0000D050D05A004A0049001900159FE59FE7F
:1055F000A9FBA9FB67FA67FA5BFA5BFA38FA38FA93
:1056000031FB31FBC7FCC7FCB8FDB8FDFCFDFCFD60
:1056100087FC87FC35F935F91AF51AF54CF14CF190
:1056200032EF32EF9CEF9CEFE6F0E6F0E9F1E9F1C2
:1056300036F236F281F281F27DF47DF46FF86FF884
:10564000EFFBEFFB01FD01FD24002400B30AB30AC8
:10565000DA19DA1969246924072307231B171B1792
:10566000530953091D021D02FE01FE01C203C203BC
:1056700008040804E903E90395069506310C310C8A
:105680006D106D10EE0EEE0EF507F5072DFF2DFFD8
:1056900005F905F94EF74EF70CF80CF846F946F9FE
:1056A0002BFB2BFB66FE66FED101D101700470045A
:1056B000B204B204770177018FFD8FFD20FB20FB40
:1056C000FDF9FDF953FA53FAE3FAE3FA0BFB0BFB8E
:1056D00052FC52FC9AFD9AFDDFFDDFFDDBFCDBFC9A
:1056E000EBF9EBF9F3F5F3F544F244F295EF95EFAE
:1056F000EFEEEFEE3BF03BF0A8F1A8F187F287F276
:10570000CCF2CCF29DF39DF3FBF5FBF561F961F969
:105710008EFB8EFB18FC18FC150115016B0E6B0E31
:10572000B91EB91E0F270F279D219D217A127A12CB
:105730008C048C04AEFFAEFFD501D5011005100519
:10574000F605F60524062406EA08EA08D60DD60D65
:105750002E102E104E0C4E0C3A033A03B3F9B3F947
:105760001DF51DF521F621F671F971F94CFC4CFC83
:105770008CFE8CFEB400B400F702F702D704D70405
:10578000A103A103E8FFE8FF94FC94FCB8FAB8FA7F
:10579000DFFADFFA52FC52FCAAFCAAFCDBFCDBFCC1
:1057A00060FD60FD7CFD7CFD40FD40FD8EFB8EFBC1
:1057B00061F861F8D5F4D5F498F198F1F5EFF5EFCB
:1057C000BCF0BCF094F294F2E6F3E6F32AF42AF487
:1057D000D8F3D8F3B0F4B0F424F724F7E5F9E5F9F9
:1057E0001FFB1FFB39FB39FBE800E800080F080F1F
:1057F000CE1ECE1E012501254C1D4C1D4F0D4F0DFB
:105800005F005F005FFD5FFDF800F8002A052A05D4
:10581000AA06AA061F071F07A909A909E80DE80D8E
:10582000860F860F790B790BB602B602CAF9CAF950
:10583000B6F5B6F5F5F6F5F662FA62FA80FD80FD8A
:10584000D6FFD6FFA101A10131033103460446046E
:105850009B029B022FFF2FFFB8FCB8FCBEFBBEFBD8
:1058600080FC80FC87FD87FDD5FCD5FCA3FBA3FB5A
:10587000F6FBF6FBADFCADFC3DFD3DFD65FC65FCBE
:1058800099F999F95DF65DF618F318F3B5F0B5F0EE
:105890009EF09EF09AF29AF215F515F5ABF6ABF67E
:1058A000B3F6B3F60EF60EF62AF62AF622F722F72C
:1058B000C0F8C0F8CBF9CBF9A8FDA8FD9F099F0956
:1058C000501A501A20252025D021D021C612C612E8
:1058D0009802980291FB91FB9BFD9BFDC401C401C2
:1058E0004D044D04B306B306210B210B19101910FA
:1058F0001C111C11830B830BFB01FB01EAF9EAF974
:1059000064F664F6DEF6DEF611F911F9B3FBB3FBCB
:105910000DFF0DFF250325032F062F065305530505
:10592000260126017BFD7BFDA1FBA1FB09FC09FCF7
:1059300096FD96FDF4FDF4FDFDFDFDFDF0FEF0FE8F
:10594000ABFFABFFABFFABFF04FF04FFE0FCE0FCF1
:10595000E6FAE6FAD2F9D2F99AF89AF8AFF6AFF683
:1059600099F399F319F119F1D7F1D7F145F545F507
:105970004EF84EF8E8F8E8F86BF76BF71BF61BF6F5
:1059800095F695F610F810F887F987F908FA08FAED
:10599000FDFDFDFD130B130B901C901C6726672665
:1059A000D220D2201A101A1046004600D1FAD1FA9D
:1059B000E2FDE2FD9101910182038203D606D60643
:1059C000EF0CEF0C1F121F121B111B111A091A09E1
:1059D00048FF48FF1FF91FF971F771F7DFF7DFF78D
:1059E000EBF8EBF821FB21FB85FF85FFC804C80419
:1059F000B007B0076005600527002700AAFCAAFCD5
:105A0000C4FBC4FB36FC36FC32FD32FD66FD66FD90
:105A10008AFD8AFD04FF04FF1600160017FF17FF1A
:105A20003DFD3DFD90FB90FBAEFAAEFAEDFAEDFACE
:105A30002BFA2BFA07F807F817F517F59EF29EF2E6
:105A40001FF31FF339F639F6DDF8DDF8CFF8CFF89C
:105A5000B8F6B8F615F515F5B4F5B4F589F789F784
:105A600015F915F93CF93CF9C6F9C6F9510251028C
:105A700089138913C222C2221D241D24E616E616AC
:105A8000840584050BFC0BFC03FD03FDBD00BD007C
:105A9000320232025D045D046B0A6B0AAB11AB117A
:105AA000511351138D0C8D0C120212022BFB2BFB88
:105AB0000CFA0CFA80FA80FA48F948F963F863F8AE
:105AC00047FB47FB6F016F014C064C065906590610
:105AD0007A027A023DFE3DFE9FFD9FFDD6FED6FE78
:105AE0005AFE5AFE53FD53FD32FE32FE84008400FE
:105AF0004F024F028401840140FE40FEC8FBC8FBF8
:105B000032FC32FC28FD28FDF7FCF7FCE0FAE0FA55
:105B100004F804F85CF65CF6E9F4E9F440F440F4C7
:105B200098F598F5E2F7E2F7F7F8F7F8C1F7C1F75B
:105B30009FF59FF516F516F5F5F6F5F6ADF9ADF905
:105B40007CFB7CFB0AFB0AFBFBFDFBFD890A890A47
:105B5000561B561B29232923771B771BCF0BCF0BF3
:105B6000510051009CFE9CFE84008400D7FFD7FFAB
:105B70001F001F00400640068A0F8A0FAB13AB13AD
:105B80003C0E3C0E5304530450FD50FD30FC30FCE1
:105B900096FC96FCD3FAD3FAAEF9AEF9CDFCCDFC67
:105BA0009F029F026E066E06230523052D012D011F
:105BB000E6FDE6FD3DFD3DFD31FE31FE8DFD8DFD39
:105BC000BDFCBDFCA2FEA2FEAA01AA01C202C20245
:105BD0004701470188FE88FE91FC91FC92FC92FCF3
:105BE000E0FCE0FCD4FBD4FBDCFADCFAF4F9F4F9D9
:105BF00075F975F9B2F8B2F878F678F6B9F3B9F341
:105C0000DCF3DCF350F650F604F804F887F687F678
:105C1000AFF3AFF3DEF2DEF2CFF4CFF47CF77CF734
:105C200090F990F986FA86FA3EFC3EFCDC04DC042E
:105C3000DE12DE12861D861D111C111CCA10CA1030
:105C40008A058A051D011D01A001A0013801380146
:105C500016011601F605F6058E0E8E0EDE13DE1306
:105C6000B610B61028082808B800B80027FD27FD90
:105C7000C6FBC6FB88F988F9B6F8B6F860FC60FC8C
:105C80008A028A020A060A06F304F3042C012C0194
:105C9000C3FEC3FEEBFDEBFD4DFC4DFC12FB12FB06
:105CA00046FB46FBD3FDD3FDEE01EE01FB03FB03F8
:105CB0004E024E0298FF98FF3CFE3CFE76FD76FDBC
:105CC00097FC97FCF8FBF8FB48FB48FBF3FBF3FB66
:105CD000B0FCB0FCD1FBD1FBD1F9D1F985F785F748
:105CE00043F543F59CF49CF477F577F5A4F6A4F618
:105CF000DCF6DCF6F1F5F1F546F546F57BF57BF5DE
:105D0000A2F6A2F6A9F8A9F893FB93FB5FFD5FFD4D
:105D1000D301D301520C520C06180618A91BA91B5B
:105D20005614561495099509270327031A021A02D7
:105D3000BF01BF01E800E80079047904920C920CDD
:105D4000BD12BD1299119911E80AE80AED04ED049B
:105D50005B015B01FFFDFFFDDAF9DAF9F6F7F6F713
:105D6000B0FBB0FB1B021B0270057005A504A50467
:105D7000CC02CC02EC01EC013E013E0123FE23FEED
:105D8000F1FAF1FAF3FAF3FA23FD23FDABFFABFFCF
:105D900002010201F700F700C700C700C100C100FF
:105DA00066FF66FFF3FCF3FCF7FBF7FB22FC22FC2B
:105DB00038FC38FC10FC10FC0EFB0EFB79FA79FA6B
:105DC00049FA49FA07F907F9D8F6D8F6F5F5F5F5DD
:105DD0006EF66EF640F740F7DDF6DDF6A1F5A1F5BB
:105DE0005FF55FF50CF60CF6FEF6FEF66DF86DF855
:105DF00010FB10FB5BFD5BFDF701F701910B910BB5
:105E00001D151D15921792176D126D12BA0BBA0B54
:105E100053075307AB04AB04730173018CFF8CFF72
:105E200085038503B50AB50A700E700E120D120DAA
:105E3000BB09BB094F074F071D041D0488FE88FEE0
:105E40005CF95CF962F862F8D9FBD9FBD8FFD8FF9E
:105E5000BF01BF01F702F702A504A504E804E804A6
:105E60006B026B0264FE64FE7BFC7BFCE7FCE7FCE0
:105E70001FFD1FFD09FD09FD65FE65FEFE00FE001C
:105E8000AC02AC02FE01FE0148004800A2FEA2FEE8
:105E900065FD65FD60FC60FC50FA50FAAAF9AAF9AC
:105EA000D8FAD8FA71FB71FB21FB21FB37FA37FADC
:105EB00051F851F8C9F6C9F611F611F6CEF5CEF53E
:105EC00015F615F6F4F5F4F531F631F6F4F6F4F6C8
:105ED000AEF7AEF7BCF8BCF816FB16FB67FD67FD26
:105EE000A1FFA1FF8D068D06D510D510CF16CF16B8
:105EF000FD14FD14960F960F050B050B2C072C07B0
:105F00009902990259FE59FE51FF51FF3C053C058B
:105F1000D409D409AC0AAC0AA70AA70A900A900AC5
:105F20005D085D08B402B402C7FCC7FC6FFA6FFAE3
:105F300072FA72FAF2FAF2FA80FC80FCE2FFE2FFF7
:105F40008D038D03DA04DA0441034103700170010B
:105F5000ECFFECFF74FE74FE89FC89FC4EFB4EFBEB
:105F600092FC92FCBDFEBDFED5FFD5FFB300B30091
:105F7000CC01CC0144024402B700B700AFFDAFFD35
:105F80004DFC4DFC77FB77FB5AFA5AFA07FA07FAF1
:105F90007EFA7EFA85FB85FB1CFC1CFC48FA48FA5D
:105FA000BEF7BEF7C5F6C5F68EF68EF651F651F67B
:105FB0001EF51EF5B0F4B0F4B1F5B1F559F659F689
:105FC00007F707F76DF96DF980FC80FC23FE23FECF
:105FD00082028202A00BA00B1D131D1381138113DB
:105FE00003100310440D440DDC09DC09E704E70449
:105FF0002700270000FF00FFD501D501DE04DE04E5
:106000004E064E06EB07EB0770097009B808B80892
:106010006F056F0547014701FCFDFCFD8AFB8AFB0C
:1060200027FA27FA9EFA9EFAC6FCC6FC60FF60FFBC
:10603000890189011A031A03E803E8033B033B03C0
:10604000C501C501E5FFE5FFC5FDC5FD6CFC6CFCA8
:106050000FFC0FFC7BFC7BFC85FD85FDAEFEAEFEE0
:10606000CCFFCCFFCA00CA005D005D0047FF47FFC0
:10607000A8FEA8FE31FD31FD9CFB9CFB0AFB0AFB40
:10608000B2FAB2FA70FA70FAF0F9F0F98BF88BF80C
:1060900080F780F724F724F715F715F7F2F6F2F6F4
:1060A00001F701F770F770F7ACF7ACF73EF83EF880
:1060B00020F920F994FA94FAD2FBD2FB0EFF0EFFDE
:1060C000450645068E0D8E0DCA10CA1031113111CC
:1060D0006D116D114A0F4A0F4D0A4D0A960596052E
:1060E000DD02DD024A014A01100010007B007B0046
:1060F0008A028A0286048604D705D705D006D00610
:10610000770677069C049C041C021C0288FF88FF0B
:106110004EFD4EFDF1FBF1FBA4FBA4FB76FC76FCEF
:1061200010FE10FEC8FFC8FF6C016C0191029102C5
:10613000150315036B026B025301530169006900DB
:106140004CFF4CFF32FE32FEE0FDE0FDFBFDFBFDAF
:1061500003FE03FE57FE57FE1EFF1EFF7AFF7AFF67
:1061600022FF22FF45FF45FF22FF22FF04FE04FE1F
:106170002EFD2EFDAFFCAFFCD1FBD1FBD7FAD7FA39
:10618000A6F9A6F93FF83FF847F747F7D7F6D7F64D
:106190000DF70DF750F750F7C3F7C3F751F851F863
:1061A000BFF8BFF836F936F9ACF9ACF9A3FAA3FA9F
:1061B000F7FBF7FB0B000B00DF06DF06A40CA40CBB
:1061C000710F710FF810F8107A117A11FE0EFE0E91
:1061D000E90AE90A91079107F804F8049602960281
:1061E000AE00AE00610061002F012F01CB01CB0199
:1061F000E502E502A404A4041E051E053E043E04B7
:106200005A035A03DB01DB019BFF9BFFC4FDC4FD66
:10621000BCFCBCFC25FC25FC29FC29FCBFFCBFFC0C
:1062200008FE08FE5BFF5BFF8C008C005C015C01DC
:10623000CD01CD01C501C501EA00EA00E7FFE7FF96
:1062400006FF06FF09FE09FE17FD17FDE5FCE5FC4C
:1062500049FD49FDC6FDC6FDDEFDDEFD93FE93FE54
:1062600054FF54FFDAFEDAFE46FE46FE07FE07FE46
:1062700018FD18FDDEFBDEFBABFAABFA07F907F9F8
:106280008FF78FF7E9F6E9F6F1F6F1F6E7F6E7F6BC
:1062900077F777F719F819F8D0F8D0F86AF96AF9AA
:1062A0000DFA0DFA22FB22FB25FD25FD44024402D6
:1062B0002B082B082A0C2A0C0B0F0B0F341134114E
:1062C0001B111B11A00EA00EE50BE50B0B090B0912
:1062D000EE05EE0516031603F400F4000E000E00A2
:1062E000E7FFE7FF42004200DD01DD019303930376
:1062F000F603F603380438043A043A04FC02FC02BC
:106300007D017D011F001F008AFE8AFE77FD77FD5B
:10631000D4FCD4FCBBFCBBFC3CFD3CFD06FE06FEF5
:1063200005FF05FF630063001F011F01A701A7010F
:10633000EF01EF014A014A018F008F00B0FFB0FF6B
:1063400069FE69FE79FD79FDFEFCFEFCDFFCDFFCE9
:1063500015FD15FD1CFD1CFDFDFDFDFDC2FEC2FE73
:106360007DFE7DFEC1FEC1FED4FED4FE6DFD6DFD41
:1063700038FC38FCF6FAF6FA08F908F93FF83FF865
:1063800008F808F850F750F73DF73DF7CCF7CCF791
:1063900036F836F825F925F9C8F9C8F9C4FAC4FA67
:1063A0001CFC1CFC99FD99FD8B028B0258075807B9
:1063B0005A0A5A0AA00DA00D581058105E105E100F
:1063C000160F160F710D710DDB0ADB0AF507F507C5
:1063D000DF04DF04C502C502CD00CD0044FF44FF49
:1063E0005EFF5EFFBAFFBAFFC2FFC2FF6B016B0127
:1063F00089028902DE02DE028603860364036403E7
:10640000700270027701770106000600FBFEFBFEBA
:106410001BFE1BFE48FD48FD5AFD5AFD98FD98FDE8
:10642000E9FDE9FDEDFEEDFEDCFFDCFF4900490082
:106430000B010B0103010301900090002D002D00C2
:1064400044FF44FF43FE43FEB5FDB5FD33FD33FD80
:106450004DFD4DFD45FD45FDCDFDCDFDBCFEBCFE1C
:10646000ECFEECFEF2FEF2FEF9FEF9FE62FE62FECA
:10647000D5FCD5FC84FB84FBB1FAB1FAC5F8C5F8AC
:1064800007F707F7DBF6DBF65FF65FF69AF69AF6A4
:1064900093F793F798F898F831FA31FA2AFB2AFB28
:1064A000B9FFB9FF20052005BD07BD07A80BA80B44
:1064B000AB0FAB0FB510B51039103910E40FE40F66
:1064C000CC0DCC0DF70AF70AD707D7073A053A05DE
:1064D000AB02AB0232003200ADFFADFFEAFFEAFFD4
:1064E00012FF12FF20002000DC01DC01FB01FB0198
:1064F000AB02AB029F039F032C032C03300230023C
:1065000052015201A8FFA8FF06FE06FE8FFC8FFC79
:106510009DFB9DFB05FB05FBEFFAEFFA69FB69FBB1
:106520009FFC9FFCBFFDBFFD32FF32FF6F006F007D
:106530002E012E01BC01BC018D018D01FC00FC006F
:106540005D005D0031FF31FF17FE17FE77FD77FD1F
:106550000CFD0CFDD3FCD3FCCDFCCDFC91FD91FDDD
:10656000D1FDD1FDDDFDDDFDFDFDFDFDE2FDE2FD29
:1065700026FD26FDBEFBBEFBC9FAC9FA87F987F9DD
:106580004CF74CF783F683F63FF63FF697F597F511
:106590008AF68AF66AF76AF799F899F8A7F9A7F9D7
:1065A00040FD40FD390339035B065B06BC09BC09AD
:1065B000BA0EBA0EC810C8102F102F10BB10BB1087
:1065C0008C0F8C0F660C660CD809D8093A073A076D
:1065D0001B041B045201520115001500B9FFB9FF3D
:1065E000C3FEC3FED9FED9FE68006800F600F600BF
:1065F0005F015F01EE02EE02740374030103010305
:10660000DE02DE022B022B02B000B00051FF51FF70
:1066100022FE22FEF2FCF2FC1CFC1CFCB5FBB5FBCE
:10662000DCFBDCFB1EFC1EFCC1FCC1FCC0FDC0FD94
:106630009BFE9BFE09FF09FFA7FFA7FFCBFFCBFF38
:106640007AFF7AFF36FF36FFD4FED4FE5AFE5AFE9A
:1066500009FE09FEA9FDA9FD81FD81FDBDFDBDFD70
:1066600087FD87FD8DFD8DFD72FD72FD29FD29FDE4
:10667000E2FCE2FC0FFC0FFC73FB73FBD8FAD8FAC8
:1066800084F984F928F928F904F904F9A3F8A3F89E
:1066900022F922F98DF98DF9F9F9F9F988FA88FAD0
:1066A000F5FDF5FD320232022D042D0498079807FE
:1066B000D20BD20BCF0CCF0CF40CF40C460E460EC2
:1066C000310D310D450B450BE709E709AB07AB076A
:1066D000E704E704850285020F010F01360036004A
:1066E00012FF12FFB7FEB7FE86FF86FFC8FFC8FF86
:1066F000020002001C011C01AE01AE016201620138
:1067000081018101460146014F004F0062FF62FF97
:10671000AAFEAAFEBBFDBBFDE8FCE8FC64FC64FC31
:1067200059FC59FC42FC42FC48FC48FCB4FCB4FC5B
:106730000BFD0BFD6CFD6CFD11FE11FE77FE77FE6F
:106740009BFE9BFECDFECDFE88FE88FE39FE39FE07
:10675000E3FDE3FD7FFD7FFD3FFD3FFDFFFCFFFC13
:10676000A2FCA2FCDDFCDDFC92FC92FC39FC39FCB5
:106770008EFC8EFC30FC30FCDEFBDEFB76FC76FC17
:106780002FFC2FFC13FC13FC95FC95FC60FD60FDB9
:1067900073007300A802A8021E041E046F076F078F
:1067A000AA09AA099A099A09EC0AEC0AA30BA30BF5
:1067B000580A580ADF09DF0902090209FF06FF0625
:1067C00040054005AE03AE031502150200010001AD
:1067D000D7FFD7FF35FF35FF4AFF4AFF07FF07FF07
:1067E00018FF18FFD7FFD7FFCBFFCBFFB8FFB8FFCD
:1067F00020002000B8FFB8FF28FF28FFF6FEF6FEB5
:1068000051FE51FEA8FDA8FD50FD50FDF2FCF2FC2A
:10681000A7FCA7FC5FFC5FFC5AFC5AFC53FC53FC32
:1068200013FC13FC32FC32FC5CFC5CFC2CFC2CFCEE
:1068300057FC57FC71FC71FC47FC47FC77FC77FC6C
:106840008EFC8EFC72FC72FCC1FCC1FC03FD03FDDE
:1068500010FD10FDCCFDCCFD4AFE4AFEB9FEB9FE8E
:106860000F000F00D100D100610161010E030E0382
:10687000F103F1035C045C049E059E0529062906CC
:1068800019061906820682066E066E06F505F505DE
:10689000B905B9051C051C056E046E04D303D303AA
:1068A0000C030C037B027B02FE01FE014501450146
:1068B000E900E900CA00CA00800080004E004E00D6
:1068C000430043001E001E00DFFFDFFFAAFFAAFFF8
:1068D00095FF95FF4DFF4DFFF4FEF4FEEDFEEDFE3E
:1068E000A0FEA0FE2DFE2DFE21FE21FEE7FDE7FD10
:1068F0006FFD6FFD4FFD4FFDFEFCFEFC8EFC8EFC20
:106900005CFC5CFC1BFC1BFCE3FBE3FBCDFBCDFB5D
:10691000BEFBBEFBD1FBD1FB08FC08FC57FC57FCBF
:10692000D3FCD3FC47FD47FDDFFDDFFD82FE82FE89
:10693000DBFEDBFE89FF89FF480048007F007F0007
:10694000310131011C021C02850285024A034A03FF
:1069500054045404C404C4046005600534063406B9
:106960007D067D06B006B006C206C2067106710637
:10697000E405E40501050105F403F403F602F6025B
:10698000BA01BA0194009400B8FFB8FFCBFECBFE69
:1069900028FE28FEFBFDFBFDB2FDB2FDA7FDA7FD15
:1069A000ECFDECFD22FE22FE49FE49FE88FE88FE3B
:1069B000BEFEBEFEBFFEBFFEBBFEBBFEBFFEBFFEF9
:1069C0008EFE8EFE4BFE4BFE1AFE1AFEBBFDBBFD7D
:1069D00079FD79FD57FD57FD16FD16FD16FD16FDD7
:1069E00051FD51FD47FD47FD67FD67FD9CFD9CFD89
:1069F00093FD93FD90FD90FD8AFD8AFD52FD52FDB1
:106A00002AFD2AFD12FD12FDFEFCFEFCFFFCFFFC30
:106A1000ECFCECFC01FD01FD3EFD3EFD5BFD5BFD84
:106A20008EFD8EFDF9FDF9FD49FE49FE72FE72FEF6
:106A3000FBFEFBFE78FF78FFA2FFA2FF24002400EC
:106A4000E400E4006B016B0108020802100310036C
:106A5000F803F8039F049F04700570053A063A0690
:106A600087068706DF06DF06200720070D070D07CC
:106A7000D706D70673067306E805E8053305330520
:106A80003F043F046503650398029802A301A30134
:106A9000E000E0004D004D00B4FFB4FF48FF48FFA8
:106AA000FBFEFBFECBFECBFEB5FEB5FE7AFE7AFE0C
:106AB00071FE71FE6FFE6FFE3DFE3DFE33FE33FE46
:106AC00036FE36FEF1FDF1FDC5FDC5FDA3FDA3FDBE
:106AD0006BFD6BFD4BFD4BFD25FD25FD1DFD1DFDDE
:106AE0003EFD3EFD0FFD0FFD0BFD0BFD4DFD4DFD74
:106AF0003EFD3EFD33FD33FD7BFD7BFD91FD91FDB4
:106B00009BFD9BFD96FD96FD90FD90FDEDFDEDFD41
:106B10000AFE0AFE04FE04FE6FFE6FFEA8FEA8FE3B
:106B2000B1FEB1FEC4FEC4FE92FE92FED1FED1FEC5
:106B3000F0FEF0FEA5FEA5FEF1FEF1FE75FF75FF6D
:106B40007AFF7AFF9BFF9BFF130013007300730013
:106B5000B500B500F100F1008A018A011F021F0291
:106B600075027502F302F3029D039D03ED03ED032D
:106B7000FA03FA0331043104470447042C042C04BB
:106B8000EA03EA03B403B40369036903DC02DC0229
:106B90005D025D02F001F001640164011001100169
:106BA000C600C6002A002A00D2FFD2FFB2FFB2FF01
:106BB0005CFF5CFF00FF00FF02FF02FFF7FEF7FE35
:106BC00087FE87FE38FE38FE05FE05FECAFDCAFDBB
:106BD00094FD94FD9CFD9CFD5DFD5DFDFAFCFAFCC1
:106BE00022FD22FD40FD40FD01FD01FD53FD53FD51
:106BF00000FE00FEF3FDF3FDF8FDF8FD25FE25FE89
:106C00003FFE3FFECEFECEFE23FF23FF27FF27FFE2
:106C10008EFF8EFFE2FFE2FFE7FFE7FF6EFF6EFFF2
:106C200080FF80FF2E002E00E8FFE8FF90FF90FF1E
:106C3000ECFFECFFB6FFB6FFFFFEFFFEEEFEEEFE42
:106C40006CFF6CFF93FF93FFFCFEFCFE01FF01FF56
:106C500080FF80FF02FF02FF95FE95FE50FF50FF70
:106C600054FF54FF84FE84FE13FF13FFBDFFBDFFDE
:106C70003CFF3CFFB7FEB7FE18FF18FF81FF81FF06
:106C800007FF07FFCEFECEFE1CFF1CFF28FF28FFDC
:106C900034FF34FF99FF99FF84FF84FFA7FFA7FF0C
:106CA000170017000A000A0046004600A900A900C4
:106CB0000A010A015D015D015401540139013901E4
:106CC0008E018E01B801B8017D017D01E700E7006A
:106CD000590059007A007A00BD00BD0078007800A4
:106CE00089FF89FFACFFACFF1400140018FF18FFE8
:106CF000AAFEAAFEA9FFA9FF32FF32FF17FE17FE68
:106D000042FF42FFCDFFCDFFC1FEC1FE41FE41FE6D
:106D100042FF42FFB6FFB6FFAFFEAFFEBBFEBBFEBB
:106D200069FF69FF76FF76FF87FF87FFFCFFFCFFA7
:106D3000C0FFC0FF30003000AB00AB005E005E0063
:106D4000B600B6001C011C017B017B01840184019B
:106D500030013001210121018A018A0169016901A3
:106D6000D900D9005D005D00D700D700FB00FB0013
:106D7000A0FFA0FF70FF70FF510051002700270007
:106D80000DFF0DFFFEFEFEFE5CFF5CFFAAFEAAFEED
:106D900067FE67FE6DFF6DFFB4FFB4FF73FE73FE09
:106DA0001FFF1FFF3B003B0025FF25FFDFFEDFFE2F
:106DB0008700870000000000CBFECBFE8900890021
:106DC000FE00FE0095FF95FF07FF07FF8100810091
:106DD000B900B90006FF06FF3BFF3BFF1600160097
:106DE000F0FFF0FFB0FFB0FF0A000A00BAFFBAFFE1
:106DF0005E005E0081008100E8FFE8FF8D008D00ED
:106E0000DB00DB001F011F01F500F5002E012E0144
:106E100040014001C901C901C100C100360036006E
:106E20002D012D01C600C60038003800FAFFFAFF18
:106E30000100010034FF34FFEFFEEFFEA3FFA3FFCC
:106E400076007600BFFEBFFEEBFEEBFE9B009B00D4
:106E50005DFF5DFFDCFFDCFF3C003C004E004E00B0
:106E60009E009E00310031005B005B002E002E0072
:106E700047004700AF00AF004CFF4CFF7BFF7BFF9C
:106E80007000700068FF68FF1DFF1DFF13001300F6
:106E9000FD00FD00BEFFBEFFD5FED5FEBC00BC0060
:106EA000C800C8006CFF6CFF46FF46FF20002000B2
:106EB0006A016A01EDFFEDFF5F005F006F006F0088
:106EC000440044008F008F001A001A0083008300E2
:106ED00030003000C3FFC3FF16FF16FF6BFF6BFFD0
:106EE0000F000F00B800B800D2FED2FE6FFF6FFF98
:106EF000E500E50063FF63FF2E002E004C004C0010
:106F000056005600A700A700010001003800380015
:106F1000EFFFEFFF3100310085008500F9FEF9FE3B
:106F200072FF72FF7200720055FF55FF32FF32FF91
:106F30003E003E003E013E01CCFFCCFFC0FEC0FE45
:106F4000F000F000C200C20099FF99FF7DFF7DFFB5
:106F50007C007C0096009600E1FFE1FFC2FFC2FFCB
:106F6000C2FFC2FF4800480036003600E9FFE9FFD3
:106F700085FF85FFB3FFB3FF3EFF3EFF36FF36FFC1
:106F8000F3FFF3FFBB00BB0081FF81FF32FF32FF45
:106F9000A000A000F5FFF5FFF6FEF6FE18001800B1
:106FA000A100A100E3FEE3FEE1FFE1FFE800E8004D
:106FB00004000400E3FEE3FE31FF31FF030103019F
:106FC000B7FFB7FFE6FEE6FE66FF66FF6A006A00EF
:106FD000640064001500150080FF80FF4D004D0027
:106FE0003601360176FF76FF51005100040004009F
:106FF0003CFF3CFF5BFF5BFF3D003D0025012501A1
:1070000008FF08FF79FF79FFBF00BF00A4FFA4FFBE
:107010007C007C00DDFFDDFF4C004C00BE00BE00AC
:10702000CDFFCDFFDFFFDFFFCAFFCAFF4F004F00DC
:107030005F005F00E6FEE6FE9DFF9DFF830083008C
:107040007AFF7AFF94FF94FF460046004901490108
:10705000CFFFCFFFF8FEF8FE81008100A900A90054
:107060008FFF8FFF9BFF9BFF3D003D00B100B100F4
:10707000DAFFDAFF17FF17FF30003000B300B3006C
:107080000100010020FF20FFB0FFB0FFEAFFEAFF90
:10709000AAFFAAFFB6FFB6FF9C009C000C000C00E4
:1070A00091FF91FF3E003E00FAFFFAFF81FF81FF52
:1070B000120012002500250019FF19FFFEFFFEFF38
:1070C000E1FFE1FFB000B00014001400FEFFFEFF7E
:1070D000AB00AB000E000E00E1FFE1FF8FFF8FFF62
:1070E0001D001D005500550016FF16FF9FFF9FFF56
:1070F0004A004A0091FF91FFEDFFEDFF4B004B006E
:107100000F010F01FBFFFBFF53FF53FF4D004D002D
:107110004B004B00ACFFACFFDFFFDFFFFCFFFCFFD1
:107120007C007C00FAFFFAFF59FF59FF06000600B9
:10713000820082000E000E0075FF75FF78FF78FF59
:107140004FFF4FFF68FF68FF18001800CA00CA0011
:10715000D7FFD7FFADFFADFF85008500D4FFD4FF7B
:10716000FAFFFAFF73007300E7FFE7FFFCFFFCFF85
:10717000D6FFD6FFC2FFC2FF66006600BEFFBEFF9D
:107180005CFF5CFF40004000C2FFC2FFD2FFD2FFA5
:10719000210021008E008E008C008C0081FF81FF79
:1071A000D8FFD8FF49004900D9FFD9FFEEFFEEFF15
:1071B000F7FFF7FF1D001D0053005300A6FFA6FFB9
:1071C000B8FFB8FF3900390041004100D6FFD6FFB3
:1071D0009BFF9BFF73FF73FF61FF61FFCFFFCFFF3B
:1071E0008B008B006400640098FF98FF2E002E0037
:1071F000220022005BFF5BFFF7FFF7FF0B000B0095
:1072000024FF24FF78FF78FF49004900C7FFC7FF2C
:10721000E7FFE7FF91FF91FFDEFFDEFF9E009E008C
:10722000B200B200AAFFAAFF140014009B009B004A
:107230009AFF9AFF7E007E001F001F0096009600B6
:10724000CC00CC00D7FFD7FF76FF76FFFCFFFCFF1A
:1072500034003400030003005AFF5AFFC7FFC7FF82
:10726000230023009EFF9EFF7B007B001201120182
:10727000550055009EFF9EFFFBFFFBFF2B002B00E0
:10728000B7FFB7FFFFFFFFFF6B006B000F000F00A2
:107290007C007C00A600A60013001300E5FFE5FFBC
:1072A0004C004C00080008003EFF3EFF46FF46FF32
:1072B0004F004F00DFFFDFFFD9FFD9FF8DFF8DFFAC
:1072C000CDFFCDFF9F009F00B600B600AEFFAEFF22
:1072D000030003008E008E009DFF9DFF8100810052
:1072E00027002700A900A900D400D400D3FFD3FFB2
:1072F0006CFF6CFFF0FFF0FF3C003C00220022001E
:107300005DFF5DFFC6FFC6FF210021009EFF9EFFBF
:107310007F007F001A011A01620062008AFF8AFF63
:10732000DDFFDDFF23002300D1FFD1FFFCFFFCFFC9
:107330008E008E0004000400A600A60019001900AB
:10734000C4FFC4FF29002900260026001C001C00E1
:107350008EFF8EFFD1FFD1FF6D006D003C003C0021
:10736000A4FFA4FF6AFF6AFF1BFF1BFF7BFF7BFFDD
:1073700040004000FA00FA001200120088FF88FF67
:10738000FBFFFBFF85FF85FF67FF67FF4D004D009B
:107390004600460069FF69FF340034007200720045
:1073A0001300130049FF49FF12FF12FF5F005F0047
:1073B0000F000F00B8FFB8FF96FF96FFD4FFD4FF71
:1073C00094009400A500A500A8FFA8FFF3FFF3FF19
:1073D00082008200C5FFC5FF57005700CDFFCDFFDB
:1073E0008DFF8DFF29002900A9FFA9FFE3FFE3FF1F
:1073F0002F002F008F008F00B700B7006AFF6AFFD1
:107400008DFF8DFF21002100FEFFFEFF1F001F00EA
:10741000FAFFFAFF2C002C006300630099FF99FF2C
:1074200097FF97FF1F001F00590059001000100020
:107430007AFF7AFF55FF55FF33FF33FF020002004A
:10744000EBFFEBFF9FFF9FFFBBFFBBFF3B003B0042
:107450006D006D00FCFFFCFFD9FFD9FF310031004A
:1074600087008700C1FFC1FF8EFF8EFFC3FFC3FFF0
:10747000F0FFF0FF6E006E003400340077007700FC
:10748000890089000900090012001200FCFFFCFFBE
:107490002C002C0037003700C4FFC4FF61FF61FFE0
:1074A00070FF70FFC4FFC4FF860086001200120048
:1074B000C2FFC2FF1F001F00EBFFEBFF5A005A0084
:1074C00023002300E5FFE5FF280028003C003C00E6
:1074D000690069006E006E006B006B00450045009E
:1074E000130013001A001A002B002B00EEFFEEFF12
:1074F000A0FFA0FF2500250034003400EAFFEAFFCA
:10750000C1FFC1FFDDFFDDFF5D005D003E003E000D
:10751000FEFFFEFFECFFECFF59005900370037007B
:10752000A9FFA9FFC5FFC5FFB4FFB4FF1F001F00DF
:107530005A005A00400040009F009F003D003D005F
:10754000220022001F001F000D000D00310031003D
:107550000C000C009FFF9FFF80FF80FF7EFF7EFFDF
:107560000C000C005D005D00E8FFE8FFFAFFFAFF89
:10757000EBFFEBFF290029001D001D00A8FFA8FF5D
:10758000EBFFEBFFF6FFF6FFEAFFEAFFF5FFF5FF83
:10759000C3FFC3FFD2FFD2FF19001900230023004D
:1075A0002E002E00400040002D002D0063006300DF
:1075B000270027000D000D000F000F00DDFFDDFF8D
:1075C000DDFFDDFFE0FFE0FFDEFFDEFF46004600FF
:1075D00011001100E7FFE7FFE8FFE8FFD7FFD7FF43
:1075E00022002200F7FFF7FFBBFFBBFFCBFFCBFF63
:1075F000F7FFF7FF0C000C00F3FFF3FFC7FFC7FF17
:1076000033003300240024001D001D00FEFFFEFF98
:10761000EDFFEDFF30003000F8FFF8FFE8FFE8FF76
:10762000EDFFEDFF0A000A001C001C000300030030
:10763000ECFFECFF0F000F00F2FFF2FFE1FFE1FFB4
:107640001700170010001000160016001F001F0082
:10765000EEFFEEFF060006001F001F00E3FFE3FF42
:10766000D4FFD4FFDCFFDCFFDCFFDCFFF5FFF5FF20
:10767000CFFFCFFFE8FFE8FF08000800ECFFECFFBA
:10768000EFFFEFFFC1FFC1FF130013001100110056
:10769000D2FFD2FFEEFFEEFF0F000F0037003700E2
:1076A000ECFFECFFBFFFBFFF06000600370037000E
:1076B00019001900E8FFE8FF000000001C001C0092
:1076C00012001200F2FFF2FFC8FFC8FFFEFFFEFF2C
:1076D00019001900ECFFECFFF9FFF9FFE8FFE8FFE4
:1076E000F9FFF9FF0A000A00E7FFE7FFDBFFDBFF16
:1076F000000000001E001E002700270023002300BA
:1077000011001100330033001B001B0009000900A9
:10771000FFFFFFFFE6FFE6FFE9FFE9FFF1FFF1FFF3
:10772000EDFFEDFF240024000C000C00F3FFF3FF3D
:10773000EEFFEEFFE6FFE6FF100010000000000085
:10774000E0FFE0FFDFFFDFFFF9FFF9FF05000500C5
:10775000FDFFFDFFE5FFE5FF160016000D000D0023
:107760000D000D00FAFFFAFFF4FFF4FF15001500FD
:10777000F8FFF8FFE8FFE8FFF0FFF0FF0400040067
:10778000190019000700070007000700170017007D
:107790000800080010001000200020002F002F001B
:1077A0003C003C002A002A000300030008000800F7
:1077B0000A000A00FEFFFEFFD8FFD8FFD7FFD7FF61
:1077C000D7FFD7FFD8FFD8FFF7FFF7FF2D002D0019
:1077D0002D002D001B001B001A001A001E001E00A9
:1077E0000E000E00130013001900190019001900F3
:1077F0002D002D003F003F002D002D0031003100F5
:107800004E004E002E002E0024002400F1FFF1FF58
:10781000DCFFDCFFF2FFF2FFF8FFF8FFEEFFEEFF08
:10782000F8FFF8FFD6FFD6FFE3FFE3FFFDFFFDFF04
:10783000DCFFDCFFC4FFC4FFE5FFE5FF1000100024
:10784000060006001B001B00F2FFF2FFD8FFD8FF66
:10785000FDFFFDFFF7FFF7FF1A001A0024002400C8
:10786000240024001D001D00FAFFFAFF030003009E
:107870002400240016001600090009001000100062
:10788000FCFFFCFF0100010001000100C3FFC3FF7A
:10789000BCFFBCFFB7FFB7FF9DFF9DFFBEFFBEFF54
:1078A000DEFFDEFF0B000B00F2FFF2FF0E000E000A
:1078B0002800280038003800560056004F004F00BE
:1078C00052005200450045003600360028002800CE
:1078D0001700170002000200F8FFF8FF050005007E
:1078E00004000400F0FFF0FFFEFFFEFFFDFFFDFFC0
:1078F000F2FFF2FFF8FFF8FFDAFFDAFFDEFFDEFF4C
:10790000EFFFEFFFD3FFD3FFE3FFE3FFD7FFD7FF87
:10791000C7FFC7FFD3FFD3FFC7FFC7FFB7FFB7FF3F
:10792000C1FFC1FFDAFFDAFFEEFFEEFF100010002B
:107930001C001C00400040004F004F00590059003F
:107940006A006A00590059004D004D004700470089
:107950003800380050005000470047002400240041
:1079600015001500F0FFF0FFFAFFFAFFEEFFEEFF43
:10797000D3FFD3FFB9FFB9FFB1FFB1FFADFFADFF3B
:10798000ACFFACFF9CFF9CFFBAFFBAFFC1FFC1FF79
:10799000C9FFC9FFDFFFDFFFDBFFDBFFFCFFFCFFF1
:1079A000F6FFF6FF020002000A000A0016001600A9
:1079B00008000800FDFFFDFF02000200FFFFFFFFBF
:1079C00001000100FFFFFFFF01000100FFFFFFFFBB
:1079D00001000100FFFFFFFF01000100FFFFFFFFAB
:1079E00001000100FFFFFFFF01000100FFFFFFFF9B
:1079F0000100010000000000000000000000000085
:107A00000000000000000000000000000000000076
:107A10000000000000000000000000000000000066
:107A20000000000001000100FFFFFFFF0100010056
:107A3000FFFFFFFF01000100FFFFFFFF010001004A
:107A4000FEFFFEFF02000200FEFFFEFF020002003A
:107A5000FDFFFDFFFDFFFDFF08000800FFFFFFFF2A
:107A6000DBFFDBFF2600260013001300E1FFE1FF30
:107A7000ECFFECFFF7FFF7FFFEFFFEFFC5FFC5FFC2
:107A8000FBFFFBFFFAFFFAFFD9FFD9FF230023001A
:107A900059005900C8FFC8FF240024006C006C0086
:107AA000A4FFA4FF340034004A004A00340034002C
:107AB000730073000B000B00E5FFE5FF0100010000
:107AC0002600260097FF97FFEBFFEBFF4CFF4CFFD4
:107AD000D3FFD3FFAD00AD000B010B013EFF3EFF16
:107AE000A700A700810181019CFE9CFED600D60064
:107AF000FE00FE00D000D0002F012F014E004E00EE
:107B000067FF67FF3100310029002900C1FFC1FF75
:107B1000C5FEC5FE29002900330033008DFE8DFE11
:107B2000050105019C029C020000000040FF40FF8F
:107B30003C013C015D005D0035FE35FE62006200E7
:107B4000BA01BA015CFF5CFFAB00AB005D025D02F5
:107B5000100010008FFF8FFFD802D802B1FFB1FFD5
:107B60005AFF5AFFE4FFE4FF2D002D0029012901EF
:107B7000E2FFE2FF0100010012FE12FEAEFDAEFDCB
:107B800069FF69FF00030003CAFFCAFF89FD89FD81
:107B9000A603A60330FD30FD50FF50FF9003900375
:107BA000AAFEAAFE72017201F200F2008BFF8BFFA7
:107BB0002BFF2BFF2DFF2DFF180218025CFE5CFE31
:107BC0001BFD1BFDBE02BE0216FE16FE04FE04FED9
:107BD000DC01DC01C902C9025100510087FD87FDAB
:107BE0003C013C01FC00FC0046FD46FDEB00EB00C7
:107BF000860186016AFF6AFFAA00AA0054FF54FFAB
:107C000016FF16FF880088000600060030FF30FFD0
:107C1000940094004C004C0036FF36FF90FF90FF1C
:107C2000B900B90068FF68FF9EFF9EFF6A016A0104
:107C30008900890005FF05FF36003600B900B9004C
:107C40005FFF5FFF9FFF9FFF19011901EFFFEFFF2C
:107C5000A3FFA3FF120112017500750026FF26FF86
:107C600007010701D800D800EAFEEAFE4F004F00E6
:107C7000D7FFD7FFAFFFAFFF7400740015001500EA
:107C8000DBFFDBFF100010006BFF6BFF5F005F008E
:107C900024002400EDFEEDFEDDFFDDFF12011201E8
:107CA000F9FFF9FFD3FED3FEA201A2010A010A01E6
:107CB0000EFF0EFFAD00AD008C008C0062FE62FE78
:107CC0004C004C005001500124FF24FFDAFFDAFF82
:107CD000D600D6008CFF8CFF3EFF3EFFD600D600BC
:107CE0000C000C00E1FEE1FE180018009C019C0154
:107CF00090FF90FFF1FEF1FE8F008F003E013E01EC
:107D000054FF54FFF5FFF5FF8C018C01EEFEEEFEF3
:107D1000FCFEFCFE82018201EEFFEEFF6DFE6DFEB9
:107D2000D500D50071007100EBFEEBFE8AFF8AFFE3
:107D3000F200F20021002100FDFEFDFED600D6007B
:107D4000E500E50027FF27FFACFFACFF7B007B00D1
:107D5000D4FFD4FF2DFF2DFFE400E4007C007C0065
:107D6000F8FEF8FE26002600D400D40028FF28FFE5
:107D700067FF67FFC500C500A1FFA1FFE0FEE0FEB1
:107D80000F000F00C500C5007DFF7DFF73FF73FF6F
:107D9000120112015E005E0047FF47FF6A006A00A1
:107DA0001B011B01FEFFFEFFCAFFCAFFF000F0002F
:107DB0003900390044FF44FF3D003D007B007B005B
:107DC0004DFF4DFFDDFFDDFF7A007A003300330009
:107DD00003000300510051000E000E00A0FFA0FFA1
:107DE00098FF98FFE0FEE0FE90FE90FEF6FEF6FEA5
:107DF00089FF89FF53FF53FFD6FFD6FF6A006A0051
:107E00008DFF8DFFF3FEF3FE6F006F00A900A90048
:107E1000F7FEF7FE18001800C501C50104000400B4
:107E200052FF52FF8E018E0150015001A800A800A0
:107E3000F302F302870387036B016B012401240122
:107E4000CA02CA0278017801F7FDF7FDEFFDEFFDE8
:107E500063FF63FFCDFDCDFDE9FBE9FB8AFD8AFDF4
:107E600068FE68FEA5FDA5FDDDFEDDFE2A002A00F8
:107E700074FF74FFC7FEC7FE28FF28FFF4FFF4FF5E
:107E800017FF17FF45FE45FE280028005402540244
:107E9000970297024E014E01290129019202920296
:107EA000940594059008900863096309AA08AA0834
:107EB00000070007CD04CD04D5FFD5FFD7F9D7F9CA
:107EC00033F833F885FA85FA61FA61FAB8FAB8FA44
:107ED000B2FFB2FFD801D80107000700ACFDACFD2E
:107EE000A7FDA7FD73FD73FD1CFA1CFA82F882F84A
:107EF000B9FBB9FB28FE28FE5FFE5FFE07FF07FF08
:107F0000070007002900290029FF29FF5400540019
:107F10004C024C02E501E5010B020B025B075B071B
:107F2000DD0DDD0DF80DF80DFA0AFA0ABE07BE07E1
:107F30008801880166F966F99FF49FF432F432F4FF
:107F400094F694F6AEFBAEFBD000D0007E047E0427
:107F50003A053A052203220389FF89FF25FB25FB09
:107F6000E4F7E4F75BF75BF79FF89FF809FC09FC7F
:107F7000D2FFD2FFF301F3017C037C03D002D002D5
:107F800085FF85FFD3FCD3FCC5FBC5FB06FE06FEC3
:107F90009D009D005A015A0151055105790C790C3B
:107FA0007C0F7C0F4E0B4E0B8005800522002200BB
:107FB00037FA37FA80F580F5DCF4DCF464F864F81D
:107FC00041FE41FE7D037D031C061C0685058505DB
:107FD000040204028EFD8EFDEDF9EDF929F829F871
:107FE000DAF8DAF8FEFAFEFACAFDCAFD270127011F
:107FF00068036803360336031201120185FF85FF0B
:10800000FEFDFEFD72FC72FC48FC48FC9CFE9CFEE2
:10801000D002D0025605560553095309900E900E12
:10802000350D350DBB06BB063200320064FA64FA2A
:108030003AF73AF7E8F5E8F59AF79AF7D2FDD2FD64
:1080400062046204E907E907CC06CC06CF01CF0140
:108050003DFD3DFD6CF96CF9C3F6C3F6ADF7ADF728
:10806000DBFADBFA44FE44FEDC01DC017604760434
:10807000F304F304A002A00205FF05FF4FFD4FFD2E
:108080001BFC1BFC14FC14FC94FD94FDBE00BE0004
:108090000A040A0434083408EF0EEF0E8E118E1114
:1080A0003A0B3A0BC001C00100FB00FBD2F6D2F63E
:1080B0004AF44AF4E3F4E3F4DAFADAFADA04DA0432
:1080C000A90CA90C390C390C64056405D2FDD2FD4C
:1080D00098F998F994F694F6BBF3BBF380F680F622
:1080E0006BFD6BFD89038903560756073E073E0764
:1080F0000105010574017401EAFCEAFC99F999F99A
:10810000E2F7E2F707F907F997FC97FC6D006D00BD
:10811000A803A80337073707930F930FFA16FA1629
:10812000A813A8138B058B0574F774F704F104F1F9
:10813000D0EFD0EFC7F1C7F16FF76FF7710271029F
:10814000CC0ECC0E83128312DB09DB09CAFCCAFCFD
:10815000A5F5A5F5D1F5D1F5C3F4C3F404F304F303
:10816000C3F7C3F75F015F0183098309C109C1092F
:10817000B703B703FFFEFFFE30FD30FD00FC00FC3F
:1081800016F916F931F731F7E3F9E3F944FF44FF43
:10819000870387030F050F05390A390AFF14FF14F7
:1081A0002B192B196E0F6E0FDAFBDAFBF6ECF6ECDF
:1081B00081EA81EA12EF12EF6FF66FF633FF33FFB9
:1081C000FF09FF0902130213E911E911B704B7040B
:1081D000D5F4D5F4DAEDDAED28F228F279F779F76B
:1081E000EAF9EAF967FE67FE75057505220B220BB1
:1081F0009208920848FF48FF89F889F8A9F8A9F879
:1082000005FD05FDACFEACFE87FC87FC85FB85FB10
:1082100014FE14FE90029002BF04BF041609160952
:10822000E712E712C918C9187811781133FD33FD28
:108230009BEB9BEB03E803E878EF78EF58FA58FAEA
:1082400060036003820C820C1013101394119411BC
:10825000770577053EF43EF484EA84EA14EE14EEE2
:1082600020F820F89AFE9AFE85018501B204B20436
:1082700014081408BE07BE070001000176F976F95C
:10828000B9F7B9F728FC28FC3F013F01D900D90014
:108290009BFC9BFCD6F9D6F9FDFBFDFB0801080110
:1082A0002B062B06820F820F87198719491A491A44
:1082B000C30BC30BD7F3D7F356E456E4FDE4FDE458
:1082C00010F210F2E900E900D80BD80B96139613C0
:1082D00004150415490D490D9CFC9CFC33EC33EC52
:1082E0007CE77CE73FEF3FEFEFFBEFFB55035503E8
:1082F000750475047D047D045D045D04ED03ED03E8
:10830000220022007EFB7EFBCCFACCFA02FE02FEAB
:108310004E024E02B201B20149FC49FC32F732F77B
:108320008EF78EF7A7FEA7FEDB07DB07A713A713C1
:10833000471E471E711E711E1D0F1D0F17F417F4E7
:1083400050DF50DF31DD31DD32ED32ED7D037D0375
:10835000C112C112A318A3187B157B15760B760BDF
:10836000CAFBCAFBF9EAF9EA07E307E34DE94DE97D
:108370007AF97AF9E607E607F50CF50C1C0B1C0BED
:10838000E805E8052F012F01D2FED2FE39FD39FDA7
:1083900035FD35FD2FFE2FFEB5FEB5FE47FE47FE2F
:1083A000DEFBDEFB8DF88DF804F704F7ECF8ECF853
:1083B000BCFFBCFF57095709D215D215F720F7208B
:1083C00077207720600F600F01F301F3B6DCB6DC95
:1083D000DED9DED914EB14EB70057005FB17FB1723
:1083E000A41CA41C50155015F007F0073FF93FF9E5
:1083F00018EB18EB79E379E3C3E7C3E732F732F719
:10840000FE08FE0829122912A40FA40F980598054A
:10841000F4FBF4FBB8F9B8F9F2FBF2FBAAFEAAFEF2
:10842000A6FFA6FFFEFFFEFF87FF87FF34FD34FD9A
:10843000DBF9DBF9C9F7C9F741F941F9F9FDF9FDB4
:1084400063046304CF0ACF0A13141314351D351DBA
:108450006F1C6F1C980B980BF7EFF7EF08DB08DB2E
:10846000FBD9FBD9FBECFBEC62086208A51AA51A44
:10847000F21DF21DAB14AB144505450597F597F5B4
:108480005CE85CE8AFE2AFE2C2E8C2E83CF93CF984
:10849000A20BA20BC115C11538143814590959097A
:1084A00015FD15FD08F708F75BF65BF6A0F8A0F8D8
:1084B0006FFC6FFC0C010C01E503E5031C021C02C0
:1084C00091FC91FCFEF8FEF87FFA7FFA59FF59FF04
:1084D000F003F0036405640512061206470D470D0C
:1084E000F018F018DB1BDB1BA10CA10C7EF07EF05A
:1084F0007EDB7EDB72DC72DC40F140F1B70AB70A4A
:1085000036183618EF16EF16A00DA00DB002B00207
:108510003CF83CF8B3EDB3ED0FE70FE748EA48EA63
:10852000AEF8AEF8760A760A4D154D15EC14EC143B
:10853000820B820B3100310086F886F85BF45BF425
:108540002FF32FF3B7F6B7F6BDFEBDFE660666063F
:10855000F607F607A702A702F2FCF2FCB8FBB8FB8D
:108560000CFE0CFEC000C000AF01AF01A501A501CB
:1085700089028902A009A009C416C416DA1DDA1DF1
:108580002F132F135DF85DF89DDE9DDEECD8ECD83F
:10859000F8E9F8E9A104A1041E171E179819981903
:1085A000681168110806080698FB98FB49F149F123
:1085B000E2E8E2E878E878E8AFF3AFF336063606AB
:1085C00066146614AF16AF16920D920D6600660023
:1085D0003BF73BF748F348F325F225F21AF41AF477
:1085E00003FB03FB700470043E0A3E0A21082108C5
:1085F0005F015F01FEFBFEFB69FA69FA41FB41FB8B
:108600003EFD3EFDCFFFCFFF5D025D024005400510
:108610007D0D7D0D161B161B972097208012801252
:10862000E2F3E2F390D890D8ACD4ACD4CCE9CCE966
:1086300003080308701B701B581B581BAE10AE10AC
:108640005B055B05E3FCE3FC33F433F4BBEABBEA14
:10865000C4E7C4E70CF10CF12C032C03AC11AC11F2
:108660007A147A14250C250C7C007C0027F927F954
:10867000ACF6ACF620F520F5D6F4D6F4D9F8D9F856
:108680007A017A01AC09AC09FF0AFF0A48054805DE
:108690001AFE1AFE61FA61FA99FA99FACDFCCDFC3C
:1086A0003DFF3DFFDFFFDFFF6AFE6AFE45FE45FE40
:1086B00070087008791C791C6D276D270C190C192E
:1086C000D9F5D9F5ACD6ACD68CD28CD23CE93CE904
:1086D000E607E60779197919F416F4169B0D9B0D38
:1086E0001D071D07E902E902B0FAB0FA33ED33EDD8
:1086F000C0E4C0E496EA96EAA1FCA1FC610D610D1C
:10870000E613E613410F410FC305C3054DFE4DFEB1
:10871000A7F9A7F91AF51AF57AF27AF2A4F5A4F5F1
:1087200049FE49FE29082908BB0BBB0BC007C0073F
:10873000B100B100EBFBEBFBC4FAC4FA15FC15FC6D
:1087400053FE53FED9FED9FE1BFD1BFDDFFADFFAF7
:1087500090FF90FF35133513E628E62825282528B5
:10876000BC09BC0962E162E133CE33CE39DB39DBCF
:1087700070F870F8F70FF70FB914B914C00EC00EE7
:10878000230C230CDE0ADE0A0705070575F675F6CD
:108790004DE74DE7C6E3C6E39EEF9EEF99019901D1
:1087A000B00DB00DDC10DC10F10CF10C1E071E0733
:1087B0003D013D0103FA03FA48F248F235F035F085
:1087C0007AF57AF53AFF3AFFCB07CB07CE09CE0907
:1087D000550755079402940277FE77FEBAFBBAFB61
:1087E000C9FBC9FB4CFD4CFDDAFDDAFD0CFE0CFEAD
:1087F000E4FCE4FCF2FDF2FDEA09EA093F1F3F1F39
:108800003829382964186418A3F4A3F4F1D8F1D8EE
:108810000ED80ED8D0EAD0EA5DFF5DFF6B0A6B0A76
:10882000D20BD20BE30EE30E061306130E0F0E0F40
:108830000601060110EE10EEF7E3F7E3B6E8B6E83E
:10884000D1F7D1F7A604A604780A780AA90CA90CD6
:10885000B70CB70C750A750A68036803B1F7B1F76E
:10886000DDEEDDEE7FEF7FEF7FF77FF7F001F001C8
:10887000F107F107B908B908F606F6064F034F03EA
:108880008FFF8FFFFAFBFAFB25FB25FB25FD25FD5E
:1088900084FE84FEFCFFFCFF56005600E1FFE1FF72
:1088A000C105C105E414E414D91FD91FCA17CA179A
:1088B000EBFDEBFD28E628E67FE17FE100EC00EC34
:1088C0007CF87CF8190019003D043D04DD0BDD0B3C
:1088D0007C157C150B150B15D107D107F9F4F9F4AC
:1088E00065E965E97FEA7FEACFF3CFF3DCFADCFAEA
:1088F00092FD92FD31033103020C020C341234124A
:10890000B60EB60EFE01FE01C5F4C5F425F125F143
:1089100068F568F577FB77FB89FE89FECEFFCEFF11
:10892000D803D803E207E2076D096D095305530523
:10893000B1FDB1FD96F996F968FA68FA3DFD3DFD85
:1089400031FF31FF95FE95FE51FE51FEAB05AB05A3
:1089500091179117CC21CC2134163416CEFBCEFBC7
:1089600074E774E713E713E720F020F0F7F5F7F565
:1089700022F922F92CFF2CFFB60CB60C7A187A18C3
:1089800037153715FA05FA056CF56CF5E3EFE3EFEB
:10899000CBF1CBF132F432F43DF33DF31EF41EF48F
:1089A0008AFF8AFFFE0DFE0D62136213340D340D33
:1089B0002E012E015DFA5DFA91FB91FBFDFBFDFBA3
:1089C000E5F8E5F8EDF4EDF49FF79FF7FA01FA0109
:1089D000830883081D081D0800040004790179013B
:1089E000A602A602BF00BF00ACFBACFBE4F7E4F7B5
:1089F000FDF8FDF82FFE2FFED601D601100A100A51
:108A000068176817131A131A3E0E3E0E65FA65FAB8
:108A10003CEE3CEE02EF02EFBEF1BEF1BDF3BDF362
:108A2000CCF7CCF7A5FFA5FF300B300BCE0FCE0F48
:108A30006B0B6B0BDC02DC02EDFBEDFB21FA21FA88
:108A400013F713F7AFF3AFF3FDF1FDF16CF66CF62E
:108A50005C015C01EE08EE08C709C709120812089C
:108A6000C305C305C005C005930293028FFA8FFAB0
:108A7000D4F4D4F47EF47EF418FB18FB9400940034
:108A800061016101810381037B067B0628092809B6
:108A90004C064C064AFD4AFD88F888F820FA20FA70
:108AA00027FE27FE05FF05FF17FF17FF630B630B6C
:108AB0004F184F182E152E15D205D2054EF74EF72A
:108AC0000EF50EF538F738F707F307F350F050F0CE
:108AD00098F598F52B012B01C90AC90ACB08CB08D8
:108AE000F803F803010201026503650366016601EC
:108AF000C8F8C8F81FF31FF3A3F4A3F4C8FAC8FA20
:108B0000090009008C008C00AD02AD027C087C08D5
:108B1000BB0ABB0A29082908AF01AF01B8FCB8FCA1
:108B200079FA79FA27F927F978F978F926FB26FBFB
:108B300072FF72FFBB03BB03EB04EB047604760405
:108B4000C901C901F4FEF4FE00FF00FF47FF47FF23
:108B500015FF15FF1AFE1AFEB603B6030510051021
:108B6000A711A711C707C7072CFF2CFF33FD33FD43
:108B70003CFD3CFD7CF77CF76BF06BF047F447F471
:108B8000DAFCDAFC58025802C001C001FEFFFEFF09
:108B9000A903A9032F072F0745054505C1FEC1FEFF
:108BA00070FB70FB84FC84FCE9FBE9FBCDF8CDF89D
:108BB0001CF91CF9DDFDDDFDD903D903FE04FE041B
:108BC0006704670484058405C104C1045500550089
:108BD00010FB10FB6AFA6AFAE1FBE1FBF2FCF2FC23
:108BE00063FD63FD3DFF3DFFFE02FE029703970319
:108BF0005E005E00C8FFC8FFF501F5019A029A0207
:108C0000D4FFD4FF95FF95FFBC09BC09900F900FCE
:108C100078077807D800D800FF01FF0183008300A0
:108C2000B9F9B9F993F293F26DF56DF5EFFBEFFB3E
:108C30001CFB1CFB83FA83FA4BFE4BFE6E046E0496
:108C4000640564052C022C02030203026D046D040A
:108C5000AE01AE0172FB72FB56FA56FA0FFD0FFD24
:108C600098FB98FBE1FAE1FA82FF82FFB303B303BA
:108C7000210421044F014F010001000130013001A6
:108C800077FF77FF45FC45FCC8FCC8FC9AFF9AFFBC
:108C900053FF53FF66FF66FF900090001F001F0008
:108CA000C7FFC7FFD500D5008F018F015A015A01B8
:108CB000F500F500980898083E0F3E0FDD07DD0728
:108CC000330233026B066B06AD01AD0120F820F8CC
:108CD000C7F5C7F549F949F9EEF9EEF9D3F5D3F53A
:108CE00030FA30FACD00CD00C2FFC2FF8BFE8BFE02
:108CF0001C031C0386068606FF03FF038D008D0000
:108D00001D011D018901890125FF25FF30FD30FD71
:108D1000ACFEACFE3BFF3BFFF4FEF4FE83FE83FEA5
:108D2000CEFECEFEA8FEA8FE2EFE2EFED3FED3FE65
:108D3000F5FEF5FE60006000A700A7006B016B0167
:108D40001202120268006800FDFEFDFEAA00AA00E1
:108D5000A600A6008AFF8AFF2FFF2FFF7A047A045D
:108D60002C0D2C0DC909C9092D032D036F086F089F
:108D7000D006D00615FB15FBE1F9E1F9ECFCECFCA3
:108D800015FA15FAD1F5D1F5A4F9A4F96DFC6DFC2D
:108D900004F804F8A1F9A1F9B6FFB6FF77FF77FF51
:108DA00082FF82FF51035103E803E803BF01BF01C3
:108DB000430343039103910327002700C9FFC9FF21
:108DC00024012401B9FFB9FFEBFCEBFC58FD58FD71
:108DD000D1FDD1FD2FFD2FFD77FC77FCD0FDD0FD1F
:108DE00001FF01FF78FF78FFAB00AB005401540195
:108DF000AC00AC0022012201EB01EB01770177010D
:108E0000B700B7008F018F01AD07AD07C408C408D4
:108E1000F902F90271047104AD06AD060CFF0CFFF6
:108E200031FC31FC9FFE9FFEB3FCB3FCB7FAB7FAEE
:108E3000DDFCDDFC1EFD1EFD9EF99EF937FA37FABA
:108E40004BFD4BFD3CFC3CFCB4FCB4FCA700A70074
:108E5000D700D700660066005A035A03DF03DF031A
:108E6000A100A100DF01DF01660366036F016F014E
:108E70006300630086008600F8FEF8FEB6FDB6FDCE
:108E8000B5FDB5FD0EFD0EFD4FFC4FFC36FD36FD6C
:108E9000BDFEBDFE0EFF0EFFB2FFB2FFC700C70052
:108EA0009E019E01BD01BD01260226023102310252
:108EB0004A054A05B308B3086A056A05D304D30412
:108EC0003F063F065901590130FE30FEA0FEA0FECC
:108ED00036FC36FCADFAADFA9DFB9DFB2CFB2CFB62
:108EE00012F912F9A8F9A8F95CFB5CFB5BFB5BFBD0
:108EF00013FD13FD6AFE6AFE81FF81FF720172019C
:108F000013031303D402D402F902F902F203F203A9
:108F10006F036F0323032303C202C202150115016D
:108F2000B8FFB8FF10FF10FFA5FEA5FEDAFDDAFDC1
:108F300025FD25FDD9FDD9FD06FE06FE5CFE5CFE85
:108F400043FF43FFCCFFCCFF530053000A010A014B
:108F50006E016E0126032603E606E606FE06FE0601
:108F60000407040757085708B205B2055403540311
:108F70003C023C022CFF2CFF3BFD3BFD7CFC7CFCBF
:108F8000AFFBAFFB79FA79FACCF9CCF96CFA6CFA51
:108F900063FA63FA55FB55FB0BFC0BFC8EFC8EFC55
:108FA000F6FDF6FD310031007A017A0156025602D3
:108FB000DB03DB03480448049E039E036003600355
:108FC000870287020C010C013D003D00FCFFFCFF05
:108FD0002AFF2AFF45FE45FE7FFE7FFE40FE40FE43
:108FE0003BFE3BFEBFFEBFFE03FF03FF53FF53FFED
:108FF000E9FFE9FFE300E300CF02CF027A047A043D
:10900000E004E004CF05CF05BC05BC0543044304E0
:109010004D034D03E201E2014100410044FF44FFE2
:10902000A1FEA1FE8CFD8CFD4CFD4CFD5FFD5FFDA6
:109030003EFD3EFD73FD73FDBEFDBEFD0FFE0FFE4A
:1090400096FE96FE1EFF1EFF7BFF7BFFFEFFFEFFD0
:109050006900690080008000800080007E007E0042
:109060004D004D002C002C000E000E0003000300EC
:10907000FFFFFFFF03000300FCFFFCFFE3FFE3FF34
:10908000C1FFC1FFA3FFA3FF89FF89FF61FF61FF4C
:1090900058FF58FF70FF70FF71FF71FF90FF90FF46
:1090A000E5FFE5FF0B000B003300330062006200B8
:1090B0009D009D00C700C700EE00EE0007010701FC
:1090C000200120012B012B012F012F012701270156
:1090D0001601160112011201250125013A013A017A
:1090E000360136015001500127012701EE00EE0044
:1090F000EB00EB00B900B90067006700000000005A
:109100009FFF9FFF5EFF5EFF24FF24FF38FF38FFB5
:10911000D8FED8FE44FE44FE60FD60FD90FC90FC4D
:1091200012FC12FCD5FBD5FBA5FBA5FBEFFBEFFB6F
:10913000A9FCA9FC0AFD0AFDA7FDA7FD60FE60FED3
:10914000F8FEF8FE80FF80FF100010007E007E0019
:10915000E700E700320132018A018A0100020002C1
:1091600018021802550255023C023C02180218026D
:10917000E001E001AB01AB016D016D01A701A701A9
:10918000D101D101F801F80128022802F201F2010F
:10919000DE01DE01BF01BF0177017701200120015F
:1091A000E100E1006B006B00170017008EFF8EFFDF
:1091B00060FF60FFD0FED0FE54FE54FE78FD78FDC7
:1091C000C7FCC7FC45FC45FCF5FBF5FBD6FBD6FB15
:1091D00021FC21FCB0FCB0FC2EFD2EFDD3FDD3FD07
:1091E00062FE62FEF0FEF0FE6FFF6FFFECFFECFF31
:1091F0004B004B00A600A600E300E3003101310163
:109200009F019F01D101D10110021002F801F80164
:10921000F001F001E801E801BA01BA018F018F0104
:1092200074017401980198018A018A01C201C20186
:109230009501950197019701750175015101510142
:1092400009010901EF00EF009C009C006D006D001A
:1092500007000700A3FFA3FF11FF11FF99FE99FE6E
:10926000FAFDFAFD5EFD5EFD17FD17FDBFFCBFFCBC
:109270009DFC9DFCACFCACFC0AFD0AFD62FD62FDA0
:10928000F7FDF7FD75FE75FE04FF04FF7CFF7CFF14
:10929000F8FFF8FF4F004F00A800A800D800D80042
:1092A0000C010C015B015B017F017F01B201B20186
:1092B000D001D001AD01AD01C701C7018601860112
:1092C000720172014001400169016901610161019E
:1092D000750175017B017B015E015E016101610128
:1092E000380138010F010F01E600E600BB00BB00AA
:1092F0005B005B001D001D009FFF9FFF28FF28FFF4
:1093000092FE92FE2EFE2EFE9DFD9DFD51FD51FD15
:1093100004FD04FDE6FCE6FCEAFCEAFC3BFD3BFD4B
:1093200085FD85FDEDFDEDFD6AFE6AFEDBFEDBFEE3
:1093300056FF56FFC8FFC8FF280028007B007B00AF
:10934000D200D200080108013C013C0186018601DF
:10935000B101B101D801D80100020002DE01DE0135
:10936000EF01EF01B201B201A801A8017601760177
:10937000AD01AD019A019A01B201B201BA01BA017F
:109380008F018F017E017E014C014C010001000123
:10939000D000D0008600860015001500CAFFCAFF65
:1093A0003DFF3DFFC2FEC2FE34FE34FED1FDD1FDC5
:1093B00059FD59FD11FD11FDD5FCD5FCC7FCC7FCBD
:1093C000E0FCE0FC3FFD3FFD92FD92FD05FE05FE49
:1093D0008EFE8EFE03FF03FF85FF85FF0200020065
:1093E00052005200C200C200FA00FA002401240117
:1093F00063016301AD01AD01A501A501F401F40113
:10940000CB01CB01C101C101A701A7017401740106
:109410005E015E014D014D01B401B4017901790194
:10942000D701D701BA01BA019001900184018401EA
:1094300035013501D500D500BD00BD002D002D0042
:10944000DAFFDAFF6FFF6FFFD2FED2FE57FE57FE44
:10945000D7FDD7FD4CFD4CFDE7FCE7FC92FC92FCF0
:1094600058FC58FC61FC61FC8CFC8CFCFDFCFDFC98
:109470007AFD7AFD12FE12FEC7FEC7FE3BFF3BFFE0
:10948000E5FFE5FF4E004E00A400A4000701070120
:109490000E010E013601360180018001770177014E
:1094A00085018501BC01BC013E013E0182018201B2
:1094B000FB00FB0021012101D500D5005301530120
:1094C0008C018C01920192012C022C02DE01DE0142
:1094D000FA01FA01EE01EE01750175015201520126
:1094E0000E010E01510051002700270060FF60FFB0
:1094F000C2FEC2FE3CFE3CFEA9FDA9FD13FD13FD0C
:10950000D3FCD3FC6BFC6BFC63FC63FC88FC88FC29
:10951000CFFCCFFC5DFD5DFDCAFDCAFD8EFE8EFE5B
:1095200044FF44FF91FF91FF74007400880088009D
:10953000FF00FF0034013401160116014D014D01F9
:109540008701870132013201990199014E014E01D3
:109550002A012A015E015E01C000C0002601260129
:10956000C400C400AC01AC019A019A01FF01FF01E3
:10957000830283023E023E02790279026E026E028B
:10958000CC01CC01FC01FC01240124018F008F00DF
:1095900029002900E8FEE8FE47FE47FE86FD86FD1D
:1095A000B4FCB4FC3DFC3DFCE6FBE6FB8FFB8FFB13
:1095B000D7FBD7FB0CFC0CFCB0FCB0FC46FD46FD19
:1095C000F2FDF2FD85FE85FE81FF81FFD2FFD2FF15
:1095D000A400A4000601060144014401D401D40101
:1095E00094019401C901C901D701D701D601D6015F
:1095F00084018401B301B3011F011F0160016001F7
:10960000CE00CE00E500E500A200A200F700F700C2
:10961000B501B5014E014E01710271023F023F02D8
:1096200046024602B402B40215021502FD01FD0114
:10963000E501E501A800A800AF00AF006DFF6DFFD8
:109640007BFE7BFED8FDD8FDD9FCD9FC3DFC3DFC62
:10965000E5FBE5FB6CFB6CFB98FB98FBBCFBBCFBE8
:1096600036FC36FC27FD27FDC2FDC2FDA7FEA7FE86
:1096700061FF61FF02000200B700B700360136014A
:109680008F018F01DF01DF0123022302F701F701C0
:109690000D020D02B601B601C901C9013801380138
:1096A00000010001B600B6006500650045004500F8
:1096B000270027001C001C00690069006701670182
:1096C000040104015302530231023102790279028A
:1096D000DD02DD02790279023C023C023E023E02DA
:1096E000F500F500DF00DF00A9FFA9FFA2FEA2FE42
:1096F000E7FDE7FDDEFCDEFC40FC40FCBBFBBBFB0A
:1097000061FB61FB42FB42FB96FB96FBC1FBC1FB8D
:10971000C5FCC5FC6FFD6FFD7FFE7FFE50FF50FF57
:109720001B001B00BF00BF007F017F01C401C401FB
:109730005402540238023802970297021F021F0295
:1097400018021802810181016001600197009700F1
:1097500056005600D8FFD8FFA1FFA1FF79FF79FF7F
:109760007AFF7AFF91FF91FF0A000A00220122018D
:10977000D800D800500250022D022D02B402B402CB
:1097800001030103C602C6026E026E027D027D0263
:109790001301130103010301A3FFA3FFBEFEBEFEDD
:1097A00001FE01FEBFFCBFFC12FC12FCBEFBBEFBB7
:1097B0003CFB3CFB6FFB6FFBD9FBD9FBF4FBF4FBE1
:1097C00032FD32FD8AFD8AFDE7FEE7FEB6FFB6FFF9
:1097D000FB00FB0073017301840284028202820297
:1097E000320332030C030C0314031403BA02BA024B
:1097F0006E026E029F019F01370137014C004C0041
:10980000CFFFCFFF11FF11FF91FE91FE6BFE6BFEAC
:1098100019FE19FE5AFE5AFE93FE93FEFEFEFEFE50
:10982000D9FFD9FF6A016A01D600D600FB02FB020C
:10983000800280021803180366036603EC02EC0240
:10984000770277027F027F0210011001A600A600B6
:10985000D1FFD1FF16FE16FE1CFE1CFE53FC53FC6E
:109860002CFC2CFC7CFB7CFB6AFB6AFB54FB54FB52
:1098700037FC37FC0CFC0CFC92FD92FDBEFDBEFDDE
:109880004AFF4AFF11001100F300F3006202620276
:109890002502250275037503DB02DB02960396039E
:1098A000EB02EB020D030D03180218020202020282
:1098B0009B009B004E004E002EFF2EFF97FE97FE52
:1098C000E1FDE1FDA0FDA0FD70FD70FD64FD64FD06
:1098D0000BFE0BFE21FE21FE58FF58FFB3FFB3FF26
:1098E0007E027E0232013201EF03EF038B038B0312
:1098F0008503850344044404390339039E029E0210
:1099000090029002F500F50023002300C7FFC7FF77
:10991000FDFCFDFCAAFDAAFD5FFB5FFB46FB46FBD1
:10992000DFFADFFA9EFA9EFAD5FAD5FAF1FBF1FBDF
:10993000D8FBD8FB98FD98FD13FE13FE6BFF6BFF61
:10994000FF00FF0045014501F102F102E802E802D3
:10995000760376034D034D037D037D03B602B60205
:10996000D002D002720172012A012A0139003900A5
:1099700013FF13FFDFFEDFFEC5FDC5FD1EFD1EFD4F
:1099800051FD51FD47FC47FC4EFD4EFD24FD24FDDD
:1099900041FE41FED8FED8FE4000400099009900EB
:1099A0003E033E0301040104BC03BC038F068F0683
:1099B0001D041D046D056D054B044B04F802F802EF
:1099C0002102210288018801E7FEE7FE75FF75FF8D
:1099D000DEFCDEFCD0FBD0FBCEFBCEFBA6F9A6F96D
:1099E00086FA86FA07FA07FA4FFA4FFA65FB65FB23
:1099F00051FC51FCDDFCDDFC31FF31FF5DFF5DFF03
:109A00005301530176027602C702C70240044004A4
:109A10005B045B0465046504F704F704D903D90308
:109A20006B036B03040304033301330189008900D2
:109A300081FF81FF32FE32FE8EFD8EFD70FD70FDD6
:109A400006FC06FCE7FCE7FC54FC54FC9BFC9BFC7E
:109A5000C4FDC4FD0EFE0EFE9CFF9CFF7000700056
:109A6000DF01DF0157025702AD05AD05770477042A
:109A70005E065E06CB06CB06DF04DF04EF05EF05CE
:109A80007903790340024002840184016AFF6AFF7E
:109A900039FE39FE7FFD7FFDFFFAFFFAF9FAF9FA88
:109AA000CFF9CFF9F7F8F7F87FF97FF98CF98CF94E
:109AB0003CFA3CFAFDFBFDFBC0FCC0FC8FFE8FFEB8
:109AC00048004800F900F900A402A40206030603B6
:109AD000A503A503B903B903F803F803AB03AB036C
:109AE000B203B203280328034E024E02E601E60148
:109AF00087008700F7FFF7FFB3FEB3FE27FE27FEC0
:109B00009AFD9AFDFBFCFBFC71FD71FDDEFCDEFCA9
:109B10007BFD7BFDCBFDCBFDF2FDF2FD0FFF0FFFCB
:109B200054FF54FF90009000C700C70082028202D9
:109B30008502850244054405B604B604FC04FC0411
:109B40003A063A0662036203560456040802080203
:109B5000A600A6001800180059FE59FE04FD04FDD9
:109B600081FC81FCEDFAEDFA41FA41FA74FA74FADB
:109B7000F9F9F9F94CFA4CFA96FB96FBF5FBF5FB73
:109B8000ACFDACFD63FF63FF1E001E004E024E02E3
:109B9000BB02BB028003800303040304BF03BF03B3
:109BA0007803780313031303830283029A019A0153
:109BB00031013101F6FFF6FFC0FFC0FF6AFE6AFE09
:109BC000E5FDE5FD92FD92FD91FC91FC5AFD5AFDEB
:109BD000FDFCFDFCAAFDAAFD57FE57FE9FFE9FFE61
:109BE00093FF93FFD3FFD3FF94009400C200C20001
:109BF000750175013D013D01FD01FD01F801F8010F
:109C000078027802F502F50201040104E903E90390
:109C1000280328036C046C04140214022602260292
:109C20007901790196FF96FF9FFF9FFF63FE63FE18
:109C300011FD11FDF4FCF4FCC6FBC6FB59FB59FBFE
:109C400088FB88FB9DFB9DFBAFFBAFFB26FD26FD44
:109C5000ACFDACFDB1FEB1FE8D008D00D800D8008A
:109C600049024902DE02DE02F002F0024703470326
:109C7000ED02ED028B028B02ED01ED016401640146
:109C800093009300FAFFFAFF46FF46FF70FF70FF54
:109C900064FE64FE51FE51FE90FE90FE9DFD9DFD12
:109CA0009FFE9FFE61FE61FEBCFEBCFE8CFF8CFF32
:109CB000B2FFB2FF5100510092009200D600D600D0
:109CC000DB00DB00D400D400E500E500810081006A
:109CD000D100D1007000700091009100B900B9006E
:109CE000E900E9003A013A0168026802A701A70108
:109CF00018021802730273022E012E017301730100
:109D0000D600D600F5FFF5FF7EFF7EFF14FF14FF9F
:109D10000BFE0BFEAEFDAEFD64FD64FDC7FCC7FC93
:109D2000EAFCEAFC3FFD3FFD19FD19FD18FE18FE97
:109D300098FE98FE21FF21FF0A000A009900990071
:109D4000DF00DF006D016D01930193016C016C0177
:109D50009D019D0148014801FA00FA00D500D50097
:109D60007F007F0044004400320032000A000A00F5
:109D7000F7FFF7FFFAFFFAFF2200220005000500B7
:109D8000340034006C006C00030003002F002F002F
:109D90000700070090FF90FFAFFFAFFF62FF62FF79
:109DA00038FF38FF68FF68FF6FFF6FFF8FFF8FFF7F
:109DB000E5FFE5FF140014004500450098009800F9
:109DC000B900B900F800F800F000F000FD00FD0057
:109DD0000C010C01C400C400BF00BF00620062009F
:109DE00029002900D8FFD8FF8DFF8DFF62FF62FF99
:109DF00033FF33FF37FF37FF34FF34FF59FF59FF7D
:109E00007FFF7FFFADFFADFFE7FFE7FFFDFFFDFF3A
:109E10002B002B002A002A00270027001A001A0016
:109E200007000700E4FFE4FFD7FFD7FFC2FFC2FF30
:109E300090FF90FFAAFFAAFF89FF89FF94FF94FF7C
:109E4000AFFFAFFFB7FFB7FFEEFFEEFF1E001E0034
:109E5000390039007A007A00790079009400940082
:109E6000A400A400890089008200820076007600A8
:109E700065006500560056007F007F0067006700A0
:109E800081008100A600A600AB00AB00B900B900BC
:109E9000D000D000BA00BA00A800A800980098002E
:109EA0006C006C004500450012001200F5FFF5FF44
:109EB000BBFFBBFF81FF81FF6FFF6FFF40FF40FFD4
:109EC00037FF37FF49FF49FF49FF49FF7EFF7EFF0C
:109ED000AAFFAAFFD5FFD5FF020002003200320020
:109EE0004300430054005400540054004200420018
:109EF0001E001E0001000100D8FFD8FFADFFADFF1E
:109F0000A1FFA1FF82FF82FF90FF90FF98FF98FFC3
:109F1000B9FFB9FFE3FFE3FF0D000D003C003C007B
:109F2000610061007C007C009A009A009800980013
:109F30009500950093009300670067005800580053
:109F4000310031000D000D00F3FFF3FFD9FFD9FF01
:109F5000C7FFC7FFBFFFBFFFC4FFC4FFB9FFB9FF03
:109F6000C8FFC8FFD3FFD3FFC1FFC1FFDBFFDBFF8B
:109F7000D3FFD3FFCFFFCFFFE8FFE8FFD4FFD4FF2D
:109F8000E3FFE3FFE8FFE8FFE1FFE1FFECFFECFFA9
:109F9000EFFFEFFFF6FFF6FFFFFFFFFF16001600D3
:109FA00026002600330033004C004C004B004B00D1
:109FB0005300530053005300420042003C003C0059
:109FC0002900290013001300FEFFFEFFE7FFE7FF53
:109FD000D4FFD4FFCAFFCAFFBDFFBDFFC2FFC2FF4F
:109FE000C2FFC2FFCAFFCAFFDFFFDFFFE5FFE5FFD9
:109FF000010001000E000E001D001D002F002F00AB
:10A000002F002F00370037003200320026002600D4
:10A010001D001D0009000900F9FFF9FFEBFFEBFF30
:10A02000DDFFDDFFDCFFDCFFD6FFD6FFDBFFDBFF64
:10A03000E2FFE2FFE9FFE9FFF6FFF6FFFFFFFFFFA8
:10A040000700070013001300160016001A001A007C
:10A050001C001C0018001800140014000D000D0056
:10A0600007000700FAFFFAFFF2FFF2FFEAFFEAFF3C
:10A07000DCFFDCFFDBFFDBFFD1FFD1FFD2FFD2FF34
:10A08000D6FFD6FFDCFFDCFFE4FFE4FFF4FFF4FFC4
:10A09000FFFFFFFF080008001B001B001D001D0044
:10A0A0002D002D0034003400350035003800380014
:10A0B000330033002C002C00220022001500150074
:10A0C00008000800FBFFFBFFEEFFEEFFE7FFE7FFE6
:10A0D000E5FFE5FFE5FFE5FFEBFFEBFFF4FFF4FF36
:10A0E000FCFFFCFF040004000E000E001300130030
:10A0F0001A001A0020002000240024002200220060
:10A10000210021001B001B00120012001100110091
:10A1100000000000FFFFFFFFF8FFF8FFEEFFEEFF7B
:10A12000FAFFFAFFF8FFF8FF050005000C000C002D
:10A130000D000D00150015000F000F00110011009B
:10A140000C000C0007000700FDFFFDFFF5FFF5FF09
:10A15000EEFFEEFFF1FFF1FFF0FFF0FFF4FFF4FF81
:10A16000FFFFFFFFF8FFF8FF0700070006000600EB
:10A1700007000700110011000A000A000D000D0081
:10A18000080008000300030002000200FAFFFAFFC3
:10A19000F7FFF7FFF7FFF7FFEFFFEFFFF5FFF5FF23
:10A1A000EDFFEDFFF1FFF1FFFCFFFCFFFAFFFAFF0F
:10A1B000FCFFFCFFF8FFF8FFFBFFFBFF04000400BF
:10A1C0000D000D00000000000A000A000600060055
:10A1D000FDFFFDFF0700070005000500100010004F
:10A1E0001300130009000900FCFFFCFF0000000041
:10A1F000FBFFFBFFFEFFFEFFF6FFF6FF0000000087
:10A20000FBFFFBFFFDFFFDFF07000700130013002E
:10A210000B000B000500050002000200FEFFFEFF20
:10A22000F9FFF9FF0000000005000500040004002C
:10A230000D000D00080008000C000C00C6FFC6FF52
:10A24000BAFFBAFF3300330052005200DCFFDCFFDC
:10A250000F000F00D9FFD9FFEBFFEBFF2E002E0000
:10A26000130013001100110011001100F7FFF7FF98
:10A27000F7FFF7FFF1FFF1FF0C000C00FEFFFEFF00
:10A28000FBFFFBFFFAFFFAFF05000500FBFFFBFFEA
:10A2900005000500F4FFF4FFF8FFF8FF06000600D4
:10A2A0001800180029002900F6FFF6FF0A000A002E
:10A2B0001E001E00E3FFE3FFE6FFE6FF92009200B0
:10A2C00092FF92FF6AFF6AFF63006300F4FFF4FFEE
:10A2D00021FF21FF7C007C00F3FEF3FEAC00AC000C
:10A2E00019011901220022007B017B0184FF84FFF8
:10A2F00013001300E900E90000000000FBFEFBFE74
:10A3000021FF21FFBA01BA01DDFEDDFE10FF10FFC3
:10A310002A002A00E3FFE3FF0B010B01CEFFCEFF73
:10A32000BA00BA009EFF9EFFE301E301BBFEBBFE45
:10A33000DAFEDAFE4901490185FD85FD3F013F0155
:10A34000A401A4016A006A005F025F025BFE5BFE7B
:10A350005C015C019CFF9CFFC0FDC0FD73007300AD
:10A360007B007B00A0FEA0FEFDFFFDFFF3FFF3FFDF
:10A3700033FF33FF50025002ACFFACFF8C018C0165
:10A3800064006400C2FEC2FE1B011B014B004B00B7
:10A390007DFF7DFFABFEABFE1E011E0126012601E7
:10A3A000C7FDC7FD590059001A001A00C500C500B5
:10A3B000C6FFC6FF4C004C00380038005E005E004F
:10A3C000A200A200B7FDB7FD2D012D017CFF7CFF8F
:10A3D000BFFEBFFE97029702EBFFEBFFE301E30135
:10A3E00076FF76FF64FF64FF1B011B01ABFFABFF31
:10A3F00068006800890089006CFF6CFF1EFF1EFF6B
:10A400002800280056005600C800C80044FF44FF3A
:10A41000DB00DB00C0FFC0FF36013601B8FEB8FE2E
:10A42000ADFEADFEC401C40120FE20FED400D40068
:10A43000C401C401A800A8001A011A0122FE22FECC
:10A44000E100E1008F008F00C3FFC3FF60006000E8
:10A45000C0FFC0FF9CFE9CFE84FE84FEACFFACFFF0
:10A460001C021C02870087008AFD8AFD1E021E0254
:10A4700017FF17FF95FF95FFF701F701FDFEFDFEA2
:10A48000680168013A003A0061FF61FFD1FFD1FF26
:10A490007DFF7DFF6E006E008EFF8EFFEB01EB01F6
:10A4A0005D005D001BFE1BFEA600A600EFFFEFFF98
:10A4B000C7FDC7FD570057009001900189FD89FD38
:10A4C000DDFFDDFFFC02FC023A003A0030FD30FD0A
:10A4D000BEFDBEFDAD02AD028600860046FD46FD16
:10A4E00062FE62FE610161015D025D02C700C7009C
:10A4F0003FFE3FFEFAFFFAFF9403940321FF21FF82
:10A5000088FE88FED000D0006B026B0290019001A3
:10A510006BFE6BFE16FE16FEFA00FA00960196011F
:10A52000D5FED5FE2EFD2EFDE9FFE9FF36023602EF
:10A53000E6FEE6FE52FE52FE70FF70FFD702D70223
:10A54000CB01CB0165FE65FEEEFFEEFF76017601E5
:10A550009C009C00E5FDE5FD87FE87FED301D3014D
:10A56000DBFFDBFF83FD83FDC6FFC6FFEA00EA00D9
:10A570009E009E00D0FFD0FF91019101460146014F
:10A580006AFE6AFE2AFF2AFF070107011E001E005D
:10A5900002FF02FF4BFF4BFF330133011101110199
:10A5A00065FE65FEC0FEC0FE99019901B601B601C7
:10A5B0006CFE6CFE62FD62FD19FF19FF460046004D
:10A5C0003E003E00FF00FF004200420054FF54FFE7
:10A5D000ED00ED00A600A600BBFFBBFFF2FFF2FFFF
:10A5E00055FF55FF8FFF8FFFEBFFEBFF96009600A7
:10A5F00039003900BDFFBDFF230023008D008D0011
:10A60000C300C300B3FEB3FE0EFF0EFF9000900028
:10A610002400240063006300460046002C012C0146
:10A620007C007C00F8FEF8FEBBFFBBFF84008400CA
:10A630009400940070FF70FFD8FED8FE1AFF1AFF36
:10A64000C4FFC4FF6D006D0057015701E5FFE5FF32
:10A6500017FF17FFB900B900440044006100610012
:10A66000D9FFD9FFBDFFBDFFC000C00049004900B0
:10A6700063FF63FF0FFF0FFF9CFF9CFFCDFFCDFF2C
:10A68000D300D300A400A400A4FFA4FF88FE88FE8A
:10A690008DFF8DFF340134012C002C00B8FEB8FE74
:10A6A000CDFECDFEF500F50027022702C800C80048
:10A6B00031FE31FEBCFFBCFFD001D00195009500FA
:10A6C000E1FEE1FE1DFF1DFFB601B6010002000222
:10A6D00009FF09FF68FD68FDF9FFF9FF2F022F024E
:10A6E0003B003B002EFD2EFDD4FED4FEF301F30112
:10A6F0006D016D01B1FFB1FF1900190016011601BE
:10A700005700570061FF61FF23FF23FF8CFF8CFF81
:10A7100054005400C200C200A2FFA2FFE8FFE8FFFD
:10A72000BF00BF0030013001DA00DA00BAFFBAFF23
:10A73000C6FEC6FE4DFF4DFF720072005600560069
:10A7400011FF11FFFEFEFEFE95009500BC00BC004F
:10A7500034003400C200C2003B013B01F1FFF1FFB5
:10A76000FDFEFDFE8EFF8EFF04000400C9FFC9FF41
:10A770001700170050005000B700B700070107018D
:10A78000830083007AFF7AFF5B005B008900890009
:10A790009CFF9CFFCAFECAFEC7FEC7FE5E005E00AD
:10A7A0002101210148004800A4FFA4FFD8FFD8FFE1
:10A7B000F2FFF2FF7A007A00D9FFD9FF53FF53FF6F
:10A7C000FEFFFEFF6C016C010001000108FF08FFA5
:10A7D000CCFECCFE09000900940094001C001C0073
:10A7E00093FF93FF18001800C000C000FCFFFCFF9F
:10A7F0003DFF3DFFBDFFBDFF9F009F0038003800BB
:10A8000029FF29FF7CFE7CFE07FF07FF7A007A0004
:10A81000BC01BC01F700F70059FF59FF9BFF9BFFEC
:10A82000FAFFFAFF6AFF6AFF5DFF5DFF2D002D0052
:10A83000B9FFB9FF15001500E600E600BA00BA003E
:10A8400074FF74FF7DFE7DFE8EFF8EFF8700870004
:10A850002A002A0051FF51FF3DFF3DFF1500150062
:10A86000D000D0003A003A003100310060006000B2
:10A87000CC00CC009700970055FF55FFF9FEF9FE7C
:10A88000BFFFBFFF80008000D8FFD8FF7FFF7FFFA2
:10A8900065006500820082000E000E008DFF8DFFB6
:10A8A000ECFFECFF6A006A006B006B00F9FFF9FF38
:10A8B000A3FFA3FF2C002C00C6FFC6FFA3FFA3FF2E
:10A8C000C1FFC1FFB0FFB0FF9B009B000B010B015C
:10A8D000150115012C002C0020FF20FF50FF50FF18
:10A8E000F4FFF4FF69006900290029008CFF8CFF48
:10A8F0001EFF1EFF33FF33FFECFFECFF8B008B00CE
:10A90000320032002C002C0017001700B100B100FB
:10A910000F010F017300730046004600EEFFEEFFCB
:10A9200023FF23FFF5FEF5FEA5FFA5FF4B004B001F
:10A9300040004000A3FFA3FF5DFF5DFFDDFFDDFFE3
:10A940009700970066016601740174018400840019
:10A950000DFF0DFFB5FEB5FE85FF85FF3000300011
:10A96000BAFFBAFF69FF69FFF1FFF1FF6B006B00EF
:10A9700024012401B901B9014F014F019CFF9CFF43
:10A980005AFE5AFE61FE61FE4BFF4BFF4A004A0031
:10A99000E200E200A400A4005000500015001500E1
:10A9A0000E000E0009000900E1FFE1FFAFFFAFFF5D
:10A9B000A2FFA2FFCAFFCAFF040004003A003A0047
:10A9C00029002900A6FFA6FF2EFF2EFF39FF39FF21
:10A9D000FDFFFDFFFA00FA00FE00FE0050005000EF
:10A9E0009DFF9DFF13FF13FF83FF83FFBDFFBDFF8F
:10A9F000C4FFC4FF1D001D001300130051005100CF
:10AA0000F700F7007901790111011101D8FFD8FF92
:10AA1000DAFEDAFEB2FEB2FEB5FEB5FE4BFF4BFF2C
:10AA200025002500F500F500D300D300E6FFE6FF82
:10AA300082FF82FFEAFFEAFF4F004F0000000000A4
:10AA400074FF74FF89FF89FF5E005E00F300F3006E
:10AA5000ED00ED00E2FFE2FFFCFEFCFE2DFF2DFF0E
:10AA60009AFF9AFF18001800650065003200320056
:10AA70005200520083008300A000A0008B008B00D6
:10AA80001400140099FF99FF57FF57FF6DFF6DFFEA
:10AA9000B0FFB0FF93009300410141012601260160
:10AAA00080008000C0FFC0FF64FF64FF85FF85FF5A
:10AAB000330033008D008D0073007300F5FFF5FF48
:10AAC00046FF46FF0FFF0FFF6FFF6FFFF8FFF8FF16
:10AAD00058005800990099006C006C00C5FFC5FF34
:10AAE0004EFF4EFF61FF61FFBFFFBFFFD7FFD7FFE4
:10AAF00096FF96FF69FF69FF9AFF9AFF480048009A
:10AB0000240124013C013C017B007B00FCFFFCFF95
:10AB1000FBFFFBFF2C002C0050005000950095001F
:10AB2000B700B7008C008C00360036008600860027
:10AB3000140114016A016A01240124012A002A0077
:10AB400044FF44FFDAFEDAFEECFEECFE4AFF4AFF69
:10AB5000E5FFE5FF12001200B1FFB1FFF1FEF1FECB
:10AB60005DFE5DFEFFFDFFFDC0FDC0FDC6FDC6FD37
:10AB7000A4FEA4FE9CFF9CFF3B003B006000600025
:10AB800079007900CA00CA006F006F00FDFFFDFF69
:10AB90001B001B00B400B4002F012F017A017A01C1
:10ABA000640264027F037F03C203C203A503A503FB
:10ABB000CA03CA03BE03BE0343034303D601D6013F
:10ABC000B7FFB7FF84FD84FD73FB73FBC2FAC2FAC3
:10ABD00040FB40FB01FD01FDD1FED1FEB6FFB6FFFB
:10ABE00048FF48FF20FE20FECEFCCEFCBCFBBCFB99
:10ABF00024FB24FBF2FBF2FB35FE35FE93009300B1
:10AC00002002200202020202A001A0011300130090
:10AC1000B7FEB7FE56FF56FFBB02BB021907190766
:10AC2000A50AA50A990C990C560C560CDA08DA08F4
:10AC30001D031D03E3FCE3FC6FF86FF8E6F6E6F690
:10AC4000C5F7C5F72FFA2FFACDFCCDFC5AFF5AFFF6
:10AC5000ECFFECFF35FE35FEABFBABFBBDF9BDF900
:10AC600045F945F972F972F9A7FAA7FA59FC59FCA6
:10AC7000D7FDD7FD45FF45FFFEFFFEFF440244021E
:10AC80000A030A0362026202A101A1015A025A02E6
:10AC9000820682062F0D2F0DC313C3134B164B16BE
:10ACA0004E114E1103060306A1F9A1F97CF17CF1C6
:10ACB000B9F0B9F0DCF5DCF5DFFCDFFCCD01CD014E
:10ACC000680268023B003B0024FE24FEB7FBB7FB92
:10ACD00066F966F940F740F7A6F6A6F600F800F820
:10ACE0007AFA7AFAF1FDF1FD84FF84FF14FF14FF74
:10ACF000E9FCE9FCB3FCB3FC6A006A0050045004B0
:10AD000045064506250425047B017B01990399032B
:10AD1000870B870B5D155D15B318B318341034100D
:10AD20007EFF7EFFB7EFB7EF2CE92CE928EE28EE87
:10AD30002AFA2AFA2F052F056F096F092E062E060B
:10AD400066006600ECFAECFA03F703F70CF50CF575
:10AD5000C4F4C4F436F636F664F964F957FE57FEC7
:10AD6000350335039B049B0451015101DEFADEFAE1
:10AD7000D7F7D7F732FB32FBE401E401D106D10665
:10AD8000A505A505D702D70219051905720E720E81
:10AD9000EB18EB187F197F19BE0BBE0BC9F6C9F66D
:10ADA00018E718E782E582E568F168F19A029A02ED
:10ADB000FD0EFD0E981098109B089B08D9FDD9FD3B
:10ADC00092F492F47DEF7DEFC3EEC3EEB0F1B0F1FB
:10ADD000A3F7A3F7C9FEC9FE590559054908490853
:10ADE000EB05EB0502FF02FF7DF77DF734F534F547
:10ADF0003DF93DF97B007B00DB06DB063D093D09A3
:10AE000073077307CC07CC07E90DE90D8716871682
:10AE100086188618E30CE30C6EF86EF803E703E778
:10AE200048E348E3DEEDDEEDF2FFF2FF900F900F16
:10AE3000E415E415651065109A039A03CBF5CBF57C
:10AE4000D0EBD0EB5EE95EE90AEE0AEEF1F7F1F73E
:10AE5000B902B902530A530A700C700C03080308B4
:10AE60009AFF9AFFECF6ECF6D9F2D9F206F606F65E
:10AE700005FE05FE02060206AF09AF09BE06BE06C4
:10AE8000D102D102A506A5067A127A12171D171D46
:10AE9000E319E319AF06AF063DEF3DEFFCE1FCE13E
:10AEA000E5E5E5E5F8F5F8F515071507E310E31016
:10AEB00083118311270B270BA200A20022F622F692
:10AEC00012EE12EEF4EBF4EBF7F0F7F01BFB1BFBCA
:10AED000E905E905120C120C500B500B64046404D4
:10AEE0000FFB0FFBBBF4BBF45EF45EF4A7F9A7F90C
:10AEF00012011201480648066E076E07090409048C
:10AF00004AFE4AFE77FD77FDD906D906F015F01501
:10AF1000791E791E451645162100210007EA07EA29
:10AF200011E211E2E1EAE1EA61FC61FC660B660B09
:10AF3000DA11DA118C0F8C0FB808B808AAFFAAFF33
:10AF40003CF63CF689EF89EF8EED8EEDF9F1F9F1E3
:10AF5000F6FAF6FA46044604940994097608760847
:10AF6000190219025EFA5EFA74F574F5C5F6C5F6B3
:10AF7000B0FCB0FCC202C2022D052D054B034B03F1
:10AF80004C004C00BCFDBCFD21FC21FC3AFF3AFF0B
:10AF90002C0A2C0A0C190C19B620B6206F176F1743
:10AFA00082FF82FF70E770E7B2DEB2DE96E896E8D5
:10AFB0002FFC2FFC0F0D0F0DFB13FB13E710E710F9
:10AFC000980898088EFE8EFE1AF51AF51BEF1BEFF7
:10AFD000D8EDD8EDFAF2FAF2F1FBF1FBF404F40447
:10AFE00015091509CC06CC064B004B0016F916F9CD
:10AFF000D6F5D6F595F795F79CFD9CFDFE02FE0271
:10B0000013041304D800D8004FFC4FFC89FB89FBC4
:10B010009BFE9BFE54025402B406B406720D720DE0
:10B020006C166C163E1B3E1BEE13EE1356005600BC
:10B0300082EA82EA8AE08AE0DEE7DEE741FA41FA64
:10B04000610B610B2B122B12250E250E5F055F0580
:10B0500034FD34FD75F775F735F435F4CDF1CDF1E8
:10B06000FAF1FAF198F698F631FF31FF3E073E0704
:10B07000A409A409FC05FC05CDFECDFE0AF90AF9D8
:10B08000DBF7DBF753FB53FB9D009D00BF03BF03C2
:10B09000660266020AFF0AFFE4FCE4FC7EFE7EFE16
:10B0A000F802F8029605960513061306030803082E
:10B0B0001A0E1A0E3215321582148214E507E507AE
:10B0C00089F489F4ACE6ACE665E765E7C8F4C8F452
:10B0D000330533052F0E2F0E030C030C2D032D0308
:10B0E000EDFAEDFA14F714F703F803F85DF95DF9DA
:10B0F0009FF89FF817F817F8E7FAE7FAD100D100A0
:10B100000C050C05CC04CC04BA00BA0091FC91FCEF
:10B1100080FB80FB18FE18FEF201F201D503D50377
:10B12000F002F0024A004A00BAFDBAFD6FFD6FFD61
:10B130009EFF9EFF5F035F03F005F005C304C30499
:10B14000B502B502BB04BB04010C010C03130313CD
:10B15000311131118F048F04F4F3F4F361EA61EAE1
:10B16000C2EDC2EDD9F9D9F945064506690B690B5F
:10B17000E907E90785008500A0FAA0FAB3F8B3F85B
:10B18000A2FAA2FA7DFC7DFC7CFC7CFC13FC13FC87
:10B19000F2FCF2FC2FFF2FFF71007100330033002F
:10B1A000F5FEF5FE34FE34FECCFECCFEA600A60075
:10B1B0003F023F0212021202D2FFD2FF3BFD3BFDD3
:10B1C00037FC37FC18FD18FDC6FFC6FFEF02EF0283
:10B1D000B305B3053906390658035803580058001B
:10B1E0002F022F02CD09CD0990119011291129119B
:10B1F000A406A40638F838F889EF89EFBDF1BDF14F
:10B2000093FA93FA7D037D03020702078B048B04F4
:10B210001B001B00D3FCD3FC7DFB7DFB0BFC0BFC5C
:10B2200058FC58FC28FC28FCC0FCC0FC34FE34FE52
:10B2300097FF97FF34FF34FFC6FDC6FDA5FCA5FCB4
:10B240000AFD0AFDDCFEDCFE2A012A013A023A026E
:10B2500046014601F3FEF3FEC5FCC5FC6DFC6DFC2A
:10B26000DFFDDFFD0A000A001901190113011301B6
:10B270004D014D01970297022C042C045F035F03DC
:10B280001F011F01A101A101B907B9072E102E103E
:10B2900020132013ED0BED0B5AFE5AFEB1F2B1F262
:10B2A00078F078F0A4F6A4F666FF66FF6005600506
:10B2B0003A053A05B801B80145FE45FE02FC02FC1C
:10B2C00060FB60FB44FB44FBEDFAEDFAD2FBD2FBE2
:10B2D0001EFE1EFE6F016F01EB02EB021901190148
:10B2E000AFFCAFFCA5F8A5F80CF80CF8AEFBAEFB74
:10B2F0005A015A01D004D00409040904450045004C
:10B30000CCFCCCFC5DFC5DFC7DFE7DFEE300E3003F
:10B310005A015A017F007F00830083005E025E02B3
:10B320000E050E05BD04BD041A021A02B001B001DB
:10B3300037073707960F960FCE12CE12B60BB60B05
:10B3400028FE28FEB7F2B7F2EFF0EFF044F744F72B
:10B3500066FF66FF52045204FC02FC0240FF40FFFD
:10B360007BFC7BFC9DFB9DFB58FC58FCE5FCE5FC55
:10B3700072FC72FCACFCACFCE3FDE3FD2F002F0083
:10B380004C014C010200020002FD02FDBEFABEFAB1
:10B3900099FB99FB4FFF4FFFA203A2034304430411
:10B3A000100210026AFF6AFFE6FEE6FE18001800AF
:10B3B0004901490115011501D0FFD0FFDBFEDBFE7D
:10B3C00035FF35FF7B007B00F701F70142034203A5
:10B3D000F403F40397049704480348033D013D0137
:10B3E0005F015F014F064F06310D310DEC0FEC0F81
:10B3F000330A330A34FF34FFC5F5C5F5A4F3A4F3CB
:10B40000B7F7B7F736FD36FDD300D3006200620010
:10B410007EFE7EFEFFFCFFFC92FC92FC2FFD2FFDCA
:10B42000C1FDC1FD4DFD4DFD32FD32FD73FD73FDCE
:10B43000ACFEACFE50FF50FFA7FEA7FE92FD92FDB2
:10B44000F8FCF8FCE6FDE6FDFAFFFAFF150215022E
:10B45000830383036202620271FF71FF5FFD5FFD80
:10B46000C6FDC6FD26002600E401E40146024602B0
:10B47000E500E50067FF67FF8DFE8DFE43FF43FF9C
:10B48000A200A200700270028B038B033604360404
:10B49000B603B603A701A7018C008C00980398039C
:10B4A000330A330AFB0EFB0EFB0CFB0C10041004DA
:10B4B0007DFA7DFA6DF56DF5B5F6B5F671FA71FAAE
:10B4C000E9FDE9FD1CFF1CFF67FE67FE8DFD8DFD9C
:10B4D000D7FCD7FCBDFCBDFCD2FCD2FC0AFD0AFDAA
:10B4E000F9FDF9FD62FE62FEA4FEA4FE73FE73FE8A
:10B4F00059FE59FEAAFEAAFEB6FEB6FE44FF44FF60
:10B50000B4FFB4FF45004500B200B20011011101C3
:10B5100090019001CD01CD01C600C6005DFF5DFF29
:10B520003FFE3FFE59FE59FE54FF54FFD200D200A9
:10B53000D801D801C001C001B200B200A0FFA0FF35
:10B5400066FF66FF220022006B016B016F026F0233
:10B55000E702E702060206020F010F0119021902B3
:10B560000A060A06C509C509130A130A6A056A0507
:10B57000F9FEF9FE96FA96FAD7F9D7F933FB33FBC1
:10B5800066FC66FC36FD36FDB7FDB7FDAAFEAAFED9
:10B5900056FF56FF14FF14FF3FFE3FFE60FD60FDA7
:10B5A00092FD92FD79FE79FE04FF04FF37FF37FF1D
:10B5B000E6FEE6FE02FF02FF2AFF2AFF7DFF7DFF77
:10B5C000DDFFDDFF18001800620062009F009F0091
:10B5D000DF00DF0025012501DF00DF003F003F0025
:10B5E000C8FFC8FF94FF94FFDAFFDAFF1F001F00B7
:10B5F0003E003E00030003009FFF9FFF7AFF7AFF9B
:10B60000ECFFECFFA400A40089018901E501E5013C
:10B61000F301F3015D015D0166006600200020007A
:10B620001302130209060906D808D8084A084A086E
:10B63000DA03DA03D0FED0FEC1FBC1FB2FFB2FFBE8
:10B64000AFFBAFFB1FFC1FFCFFFCFFFC4CFE4CFEE6
:10B65000A6FFA6FFF1FFF1FFB7FEB7FE3DFD3DFDE2
:10B6600058FC58FC07FD07FD85FE85FE34FF34FFBE
:10B670003AFF3AFFC3FEC3FEF2FEF2FE60FF60FF38
:10B68000AFFFAFFFFBFFFBFF1E001E008600860022
:10B69000F100F100F800F800DF00DF003E003E009E
:10B6A000BDFFBDFFD1FFD1FF0700070061006100B2
:10B6B0006F006F0030003000CFFFCFFF6FFF6FFFD4
:10B6C000AFFFAFFF560056004101410121022102A8
:10B6D000910291028F028F02940194018F008F00DA
:10B6E0002E012E012E052E058C098C09940A940A30
:10B6F000B606B60651005100DFFBDFFB62FA62FAC4
:10B70000E9FAE9FA51FB51FBD0FBD0FB26FD26FDFF
:10B71000CFFECFFEB0FFB0FFABFEABFEC5FCC5FC5D
:10B72000D3FBD3FB43FC43FC38FE38FE31FF31FF33
:10B73000DAFEDAFE23FE23FE3CFE3CFE87FF87FF97
:10B740004600460088008800730073009200920053
:10B75000180118014E014E01EB00EB005B005B008D
:10B76000D2FFD2FF10001000510051001C001C003D
:10B77000DDFFDDFFBFFFBFFFE9FFE9FFD9FFD9FF15
:10B78000B4FFB4FF08000800C300C300D901D90109
:10B7900090029002D802D8025002500226012601DF
:10B7A000690069007902790230073007300A300AEF
:10B7B000BC08BC08DB02DB0242FD42FDBEFABEFA59
:10B7C000B9FAB9FA0EFB0EFBFFFAFFFA29FC29FCC5
:10B7D0005DFE5DFE12001200B6FFB6FF7CFD7CFD33
:10B7E00011FC11FC89FC89FC67FE67FEC7FFC7FFDF
:10B7F000D8FED8FEA3FDA3FD53FD53FDC3FEC3FE3B
:10B800005A005A0058005800DCFFDCFFC9FFC9FF8E
:10B810008C008C0022012201B200B200BCFFBCFFF0
:10B82000A0FFA0FF600060003F013F010C010C0180
:10B83000E3FFE3FF00FF00FF0EFF0EFFC4FFC4FFA6
:10B840000C000C00CCFFCCFFC7FFC7FFA500A50074
:10B8500004020402C002C00299029902B301B301BA
:10B86000BD00BD00600060004D024D0204060406EC
:10B870003B083B0815071507A902A9027EFE7EFEBC
:10B8800079FC79FCC4FBC4FB10FB10FBD2FAD2FAA2
:10B8900094FC94FC4CFF4CFF8F008F002EFF2EFF7A
:10B8A000D8FCD8FC5CFC5CFCA1FDA1FD03FF03FF00
:10B8B00092FE92FE42FD42FD4DFD4DFDA4FEA4FE12
:10B8C000240024001E001E0073FF73FF8BFF8BFFFC
:10B8D00075007500FD00FD004900490009FF09FFE2
:10B8E000CFFECFFEE3FFE3FFF800F80018011801D8
:10B8F00037003700A9FFA9FFC0FFC0FFF5FFF5FF24
:10B90000D0FFD0FF59FF59FF5BFF5BFF0B000B001F
:10B9100036013601FF01FF01460246024E024E0289
:10B92000EB01EB01400140012C012C016503650393
:10B9300042064206E106E10681048104080108018D
:10B940003DFF3DFF43FE43FEA6FCA6FCE2FAE2FA01
:10B9500031FB31FB9FFD9FFD87FF87FF24FF24FF05
:10B960006EFD6EFD23FD23FD3BFE3BFE17FF17FF23
:10B9700057FE57FE2CFD2CFD89FD89FDDDFEDDFE09
:10B98000D8FFD8FFB3FFB3FF80FF80FF1D001D006D
:10B99000ED00ED00DB00DB00DBFFDBFF25FF25FF1B
:10B9A0007CFF7CFF75007500E300E300C400C40069
:10B9B000710071007B007B00890089002400240055
:10B9C000C2FFC2FFA2FFA2FFEAFFEAFF3500350077
:10B9D000A000A00034013401B901B9010802080235
:10B9E0001D021D02E601E601720172017E017E0167
:10B9F0003403340364056405AD05AD059403940375
:10BA0000EC00EC00C3FFC3FF15FF15FF89FD89FDA6
:10BA1000CDFBCDFBD8FBD8FB6EFD6EFD71FE71FE3C
:10BA2000E0FDE0FD01FD01FD83FD83FDA4FEA4FE1C
:10BA300001FF01FF45FE45FED2FDD2FD83FE83FEE0
:10BA400032FF32FF26FF26FFDEFEDEFE56FF56FFE8
:10BA50003D003D008F008F00100010009DFF9DFFF6
:10BA6000EAFFEAFF80008000AA00AA005800580000
:10BA700072007200F600F6002F012F01B500B5002C
:10BA80003A003A00600060008F008F00640064009C
:10BA900056005600E100E100B901B901F301F301DC
:10BAA000B301B3019A019A01A001A0015D015D01FA
:10BAB00013011301F701F7014D034D036C036C03F0
:10BAC00012021202C200C20052005200A9FFA9FFD6
:10BAD0004CFE4CFE3CFD3CFD61FD61FDD7FDD7FDFC
:10BAE000ACFDACFD2BFD2BFD3BFD3BFDF8FDF8FD5A
:10BAF00068FE68FE69FE69FE4FFE4FFEA4FEA4FECE
:10BB000024FF24FF42FF42FF1DFF1DFF5DFF5DFF7D
:10BB1000BAFFBAFFE1FFE1FFCFFFCFFFDAFFDAFFA5
:10BB20002600260055005500530053003100310017
:10BB300069006900CF00CF00F300F300A500A50065
:10BB40006300630087008700AA00AA0075007500E3
:10BB5000AC00AC001801180174017401720172018B
:10BB60004E014E016E016E01690169011D011D0149
:10BB70009B009B00FF00FF00E501E501E301E301FD
:10BB800027012701C800C800E300E3007F007F0011
:10BB90007DFF7DFFF2FEF2FE2EFF2EFFF1FEF1FE95
:10BBA00025FE25FED3FDD3FD12FE12FE50FE50FEF3
:10BBB00000FE00FEDCFDDCFD53FE53FEAEFEAEFEDD
:10BBC00095FE95FEBBFEBBFE29FF29FF4EFF4EFFF3
:10BBD00091FF91FFA9FFA9FFDFFFDFFF4C004C00A1
:10BBE0004E004E00370037004F004F00B200B20049
:10BBF000E800E800D000D00095009500C000C0002B
:10BC000031013101990099007E007E0064016401D8
:10BC1000A901A901660166012D012D017C017C01AC
:10BC20009A019A0138013801160116013E013E01C0
:10BC30005701570127012701E900E900EB00EB005C
:10BC4000150115010D010D015F005F004600460062
:10BC500066006600220022005EFF5EFFE4FEE4FE56
:10BC600022FF22FFE1FEE1FEA5FEA5FE5EFE5EFED6
:10BC700071FE71FE4BFE4BFE49FE49FE4CFE4CFE32
:10BC800071FE71FEA4FEA4FEABFEABFED1FED1FEA2
:10BC90004AFF4AFF89FF89FFD9FFD9FF0100010050
:10BCA0000800080045004500220022005900590004
:10BCB00071007100C100C100A200A200EA00EA0008
:10BCC00001010101E000E00078017801BA01BA0148
:10BCD0008D018D0195019501B601B601D501D50102
:10BCE00037013701080108014C014C0144014401AE
:10BCF000C700C70044004400730073004D004D00AE
:10BD00001B001B0007000700EBFFEBFFADFFADFFC3
:10BD1000F8FFF8FFBAFFBAFFBBFFBBFF10FF10FF31
:10BD200011FF11FF3DFF3DFF0AFF0AFFFFFEFFFE6F
:10BD30007AFE7AFE8BFE8BFE98FE98FEF5FEF5FEEF
:10BD4000C3FEC3FEE7FEE7FEE2FEE2FEBEFEBEFE6F
:10BD5000E2FEE2FE8FFF8FFFD5FFD5FFD9FFD9FFAF
:10BD6000ADFFADFFC3FFC3FF17001700D3FFD3FF25
:10BD7000E9FFE9FFF0FFF0FF4E004E003800380009
:10BD80004D004D0082008200DF00DF0040014001D5
:10BD9000500150016F016F016B016B018801880137
:10BDA000380138013E013E012C012C01FA00FA0055
:10BDB000C100C1006E006E006A006A0032003200ED
:10BDC0001600160008000800D1FFD1FFC0FFC0FF19
:10BDD0002A002A000A000A00C5FFC5FF2AFF2AFF21
:10BDE000FBFEFBFE0CFF0CFFECFEECFEE7FEE7FEAD
:10BDF0008CFE8CFE84FE84FE9BFE9BFED8FED8FE4D
:10BE0000DDFEDDFEB8FEB8FE8CFE8CFE8CFE8CFEE8
:10BE1000AFFEAFFE29FF29FF4EFF4EFF74FF74FFF8
:10BE200052FF52FF81FF81FFDCFFDCFFCEFFCEFF20
:10BE3000F7FFF7FF0B000B003F003F003A003A000E
:10BE400081008100A900A900B600B600D000D00092
:10BE5000280128016D016D01910191016C016C01B6
:10BE60006101610135013501FD00FD001B011B0170
:10BE7000FE00FE00D500D5008D008D009A009A00CE
:10BE8000570057002A002A003F003F0031003100D0
:10BE9000000000000C000C003B003B000D000D00FA
:10BEA000D2FFD2FF87FF87FF7EFF7EFF71FF71FF0A
:10BEB0006FFF6FFF61FF61FF3CFF3CFF40FF40FFF2
:10BEC00040FF40FF38FF38FF43FF43FF19FF19FFD2
:10BED00014FF14FF12FF12FF3EFF3EFF2AFF2AFF4E
:10BEE00046FF46FF68FF68FF6EFF6EFFC6FFC6FF96
:10BEF000D4FFD4FFF9FFF9FFF3FFF3FF3100310066
:10BF00004500450059005900650065009400940003
:10BF1000EC00EC0006010601D900D9003F013F0109
:10BF2000480148012F012F0101010101EA00EA0047
:10BF3000D600D600CD00CD0007010701B200B20047
:10BF4000990099004700470039003900120012009B
:10BF5000560056006D006D003400340012001200CF
:10BF6000E8FFE8FFF2FFF2FFDDFFDDFFF0FFF0FF8B
:10BF7000CFFFCFFFCFFFCFFFCDFFCDFFCAFFCAFF5F
:10BF80009EFF9EFF8FFF8FFF91FF91FFA9FFA9FFEB
:10BF900079FF79FF40FF40FF87FF87FFC6FFC6FF9D
:10BFA0009BFF9BFFA3FFA3FFA2FFA2FF9CFF9CFFA1
:10BFB00091FF91FFBDFFBDFFC0FFC0FFA8FFA8FF1D
:10BFC000CAFFCAFF77FF77FFB2FFB2FFE6FFE6FFC7
:10BFD0005500550013001300620062003A003A0059
:10BFE0005C005C002400240072007200A100A1002B
:10BFF000E300E300AF00AF00BD00BD000401040199
:10C000008A008A00E900E900B000B000B500B50080
:10C010005A005A00DF00DF0097009700830083007A
:10C02000410041003D003D00200020004800480044
:10C03000730073002000200021002100D9FFD9FFE8
:10C04000F0FFF0FFDAFFDAFF50005000410041003E
:10C050001900190018001800A8FFA8FF8FFF8FFF14
:10C06000A8FFA8FF2C002C00FAFFFAFFB1FFB1FFD8
:10C07000A6FFA6FFAFFFAFFF9DFF9DFF20002000A2
:10C08000ECFFECFF0E000E001D001D00D2FFD2FFE2
:10C090002D002D00EDFFEDFF830083002100210026
:10C0A0004900490089008900620062006A006A0054
:10C0B0003700370041004100B3FFB3FF670067005E
:10C0C00049004900680068004800480040004000FE
:10C0D000C900C900B1FFB1FFF1FFF1FFDDFFDDFFD6
:10C0E0006FFF6FFF35003500850085005301530158
:10C0F000D900D9006F006F007F007F0076007600C6
:10C10000E900E900B400B4009600960059FF59FF19
:10C110000AFF0AFFE3FEE3FE6D006D00FBFFFBFF7D
:10C12000A6FFA6FFFDFFFDFF1EFF1EFF0700070085
:10C13000450045008900890093009300A500A500F3
:10C140006A006A0002000200040004007A007A001B
:10C15000EBFFEBFF27FF27FF65FF65FF7EFF7EFFFD
:10C16000020002009E009E004F004F00E1FFE1FF31
:10C170001B001B0005000500F9FFF9FF0E000E0073
:10C180001A001A004D004D000C000C00C6FFC6FF3F
:10C19000CDFFCDFF2300230012001200CEFFCEFF03
:10C1A00069FF69FFD8FED8FEC0FEC0FE6AFF6AFFC5
:10C1B00041004100E0FFE0FFFCFFFCFF150015001F
:10C1C000A0FFA0FF5FFF5FFF0F000F00E6FFE6FF8D
:10C1D00047FF47FF24002400310031003E003E00AD
:10C1E00050FF50FF8CFF8CFF8EFF8EFF9AFF9AFF4F
:10C1F00082FF82FF61FF61FF480048003C003C0075
:10C200005A005A0018001800D5FFD5FF2100210060
:10C210002F002F0039FF39FFABFFABFF54FF54FF56
:10C2200043FF43FF6BFF6BFF3D003D00F600F60050
:10C230005F005F002900290042004200170017003C
:10C24000F7FFF7FF28002800FFFFFFFF6F006F00D8
:10C25000FAFFFAFFBBFFBBFFB0FFB0FF34003400B2
:10C26000F7FFF7FFC9FFC9FF23FF23FF77FE77FE24
:10C270003EFE3EFE34FF34FF1F001F00C2FFC2FF20
:10C2800004000400340034007BFF7BFF59FF59FF9A
:10C290001900190008000800BDFFBDFFE7FFE7FF18
:10C2A000D1FFD1FFB1FFB1FF190019002F002F00FE
:10C2B0000100010056FF56FF67FF67FFCFFFCFFF6A
:10C2C000F1FFF1FFB2FFB2FF660066002A002A000C
:10C2D000A8FFA8FF030003001500150076FF76FFF6
:10C2E000F1FFF1FF31FF31FF9AFF9AFF500050003C
:10C2F00045004500320132019900990099009900EA
:10C30000C300C300F300F30073007300EBFFEBFF07
:10C31000AC00AC0033003300D6FFD6FFC0FFC0FF37
:10C32000ABFFABFF0B000B0002000200300030003F
:10C33000110011005400540017001700D400D4005D
:10C3400050015001C200C20097009700B200B20035
:10C350004B004B00800080006B006B003600360005
:10C36000A100A10028002800D9FFD9FFF6FFF6FFA1
:10C370001F001F0008000800D1FFD1FF26FF26FF85
:10C3800061FE61FE2BFE2BFEB4FEB4FE69FF69FF69
:10C39000EFFEEFFE49FF49FF47FF47FFC6FEC6FE1F
:10C3A000E3FEE3FE9BFF9BFF0FFF0FFFDCFEDCFEC7
:10C3B000D0FFD0FF8FFF8FFFFDFFFDFF18FF18FF9D
:10C3C0000BFF0BFF42FF42FF18FF18FF0AFF0AFF97
:10C3D000C3FEC3FE9EFE9EFE82FE82FEDEFDDEFDED
:10C3E000F6FCF6FCD1FCD1FCB3FDB3FDEDFEEDFE99
:10C3F00067FE67FEF5FEF5FEE3FEE3FE32FE32FE6B
:10C4000048FE48FE53FF53FFA7FEA7FE5DFE5DFEFC
:10C41000A2FFA2FF53FF53FFD9FFD9FFA1FEA1FE48
:10C4200094FE94FED5FED5FEA4FEA4FEB4FEB4FE9A
:10C430003AFE3AFE6DFE6DFE50FF50FF20002000D8
:10C440005EFF5EFF8E008E004D004D003B003B0006
:10C4500025012501D900D900080208025002500226
:10C46000E901E901230123016201620115011501BE
:10C4700005010501B900B900AEFFAEFFDAFFDAFF32
:10C48000B4FFB4FFA1FFA1FF00000000D8FFD8FF58
:10C49000400040008300830081FF81FFADFFADFFBE
:10C4A000E0FFE0FF4E004E00D0FFD0FF70FF70FFB6
:10C4B000EFFDEFFD55FD55FD9DFD9DFD6EFF6EFFF2
:10C4C00069FF69FFFEFEFEFEA0FFA0FF90FE90FE4A
:10C4D00012FE12FECCFECCFE8EFF8EFFCFFDCFFDF6
:10C4E00054FF54FF81FF81FFBDFFBDFF36FF36FFC4
:10C4F00007FE07FEABFEABFE85FE85FE83FE83FED8
:10C5000068FE68FEDCFDDCFDFCFEFCFED0FFD0FF1B
:10C51000270027005DFF5DFFF600F60019001900F7
:10C52000A3FFA3FFD4FFD4FFADFFADFFA900A90077
:10C53000F7FFF7FFF000F000B9FFB9FF3A013A0149
:10C540000100010057FF57FF96009600BDFEBDFE9B
:10C5500038003800C000C000FF00FF0017021702BB
:10C560002C002C00F900F90056005600F100F100F3
:10C5700005010501EB00EB00D4FFD4FFF7FEF7FE49
:10C58000AEFEAEFEDCFFDCFFEE00EE0014FF14FF9B
:10C59000F500F500E5FEE5FE91FF91FFCF00CF002D
:10C5A000E4FFE4FF15011501CB00CB007000700023
:10C5B0004D004D00C6FFC6FF8A008A0046004600B7
:10C5C000EBFEEBFE3E003E0034FF34FF34FF34FF51
:10C5D000C0FFC0FF610061003D013D01C0FFC0FF21
:10C5E000F7FFF7FF1E001E00B9FFB9FFF8FFF8FFC5
:10C5F0005A005A00F4FFF4FFC400C400D6FFD6FF6F
:10C600009CFF9CFFEBFFEBFF5C005C000100010066
:10C61000B6FFB6FF16FF16FF04FE04FE62FE62FEC2
:10C620006CFF6CFF800080000AFF0AFF0700070014
:10C630008AFF8AFF95FE95FEC4FEC4FE520052009A
:10C64000E1FEE1FEB6FEB6FE8F008F00A8FFA8FF58
:10C65000B0FFB0FF86FF86FF6600660078007800B6
:10C66000A1FFA1FF660066000A000A00E9FEE9FEDC
:10C6700093FF93FF860086001BFF1BFF0EFF0EFF3C
:10C680002A012A0143FF43FF180018001EFF1EFF66
:10C6900056FF56FF89FF89FF3FFF3FFF9BFF9BFF30
:10C6A000D2FED2FEC4FFC4FFD6FFD6FFA900A90068
:10C6B00004FF04FF1A011A01E9FFE9FFBCFFBCFFF8
:10C6C000020102012F002F0034013401300130013A
:10C6D00099009900E2FFE2FFD900D9003900390042
:10C6E00031003100B2FFB2FF4200420096FF96FFD8
:10C6F000A3FFA3FF600060003F003F007D007D00BE
:10C700009D009D0097FF97FFEEFFEEFFC700C7005B
:10C71000B4FFB4FF72007200550055007D007D002B
:10C720002FFF2FFF0F000F000B000B00B3FFB3FF15
:10C730005B005B009AFF9AFFAFFFAFFF74FF74FFCF
:10C7400058FF58FFEDFFEDFFA400A40008FF08FF0D
:10C750000C010C01EBFFEBFF11FF11FF07000700BD
:10C760007100710012FF12FF9EFF9EFF160116015D
:10C77000F8FEF8FED900D900FAFFFAFF0F000F000B
:10C78000B500B500F4FFF4FFB4FFB4FFAD00AD0099
:10C79000BFFFBFFFE4FFE4FF3300330065FE65FE2B
:10C7A000CA00CA008200820006000600DBFFDBFF31
:10C7B00077FF77FF8AFF8AFF80FF80FF4E004E00E1
:10C7C000FAFDFAFDEDFEEDFE49FF49FF75FD75FD31
:10C7D0000FFF0FFF29FF29FF44FF44FF6800680097
:10C7E00045FF45FFCDFFCDFFB3FFB3FF84FF84FFBF
:10C7F000CAFFCAFFF6FFF6FFF4FFF4FFF6FFF6FFED
:10C8000012001200C4FFC4FFF1FFF1FF0700070090
:10C81000DAFFDAFFF0FFF0FFEAFFEAFFFBFFFBFFC2
:10C82000B9FFB9FF2F002F00D6FFD6FF2A002A003C
:10C83000FBFFFBFFFAFFFAFFD1FFD1FFC7FFC7FFE6
:10C840003E003E00CDFFCDFFD4FFD4FFB0FFB0FFD0
:10C85000290029003BFF3BFF610061007500750066
:10C860003C003C00E6FFE6FF50005000FBFFFBFFF2
:10C87000C9FFC9FF320032006D006D00D8FFD8FF3C
:10C88000980098007A007A004500450008000800EA
:10C8900038013801CCFFCCFF7300730062006200E6
:10C8A0005FFF5FFFA500A500040004003400340012
:10C8B000290029003100310065FF65FFBA00BA0088
:10C8C0007CFF7CFFADFFADFFF0FFF0FF8300830036
:10C8D00091FF91FFC9FFC9FF9EFF9EFF51FF51FFCE
:10C8E000D7FFD7FFA000A0006EFF6EFFE9FFE9FFB2
:10C8F00065006500A1FEA1FE3C013C0159FF59FF06
:10C900005F005F004D004D00C5FFC5FF3F003F00C9
:10C9100093FF93FF44004400200020009BFF9BFFF7
:10C92000EDFFEDFF1B001B005CFF5CFF42004200BF
:10C93000D0FFD0FFA300A300DDFFDDFFC1FFC1FFDB
:10C9400030003000CEFFCEFFFAFFFAFF360036008F
:10C95000E2FFE2FF41004100FFFFFFFFCCFFCCFF01
:10C96000E3FFE3FF48004800DCFFDCFF2B002B0067
:10C9700068FF68FF420042000F000F008A008A0033
:10C9800045004500A1FFA1FFE000E00042FF42FF9B
:10C990002501250182FF82FF8900890036FF36FFCD
:10C9A000CBFFCBFFA1FFA1FF80008000B9FFB9FF43
:10C9B000C5FFC5FFBA00BA007CFE7CFE7D017D018B
:10C9C0002BFF2BFF8B008B0079007900B3FFB3FFA7
:10C9D000A300A30068FF68FF650065001300130053
:10C9E0009FFF9FFFE5FFE5FF0000000063FF63FF7F
:10C9F00016001600D4FFD4FF800080003000300005
:10CA000092FF92FF890089007FFF7FFF5900590044
:10CA1000B5FFB5FFBB00BB00B8FFB8FF8F008F00AC
:10CA2000520052002E002E002D012D01160016007E
:10CA3000DE00DE000E000E009700970003000300EA
:10CA400015001500B0FFB0FFDCFFDCFF6AFF6AFFD6
:10CA5000A9FFA9FF08000800EBFFEBFF1700170074
:10CA60001A001A004600460018001800340034006E
:10CA7000650065001C001C008000800078007800C4
:10CA8000880088005A005A00E000E0006F006F0044
:10CA90006E006E009600960089FF89FF7E007E0082
:10CAA0008CFF8CFFFEFFFEFFC5FFC5FFB5FFB5FF86
:10CAB0007AFF7AFF0A000A004100410014001400C6
:10CAC000BA00BA0054005400C300C300A600A60078
:10CAD000040004009C009C00E8FFE8FFE6FFE6FF7E
:10CAE0002400240016FF16FF90FF90FF52FF52FF14
:10CAF00016FF16FFD4FED4FE63FF63FFD0FED0FE08
:10CB000075FF75FF7EFF7EFF97FF97FFFDFFFDFF1F
:10CB10001E001E00330033006D006D00B900B90027
:10CB2000A700A700E200E200CF00CF00840184014B
:10CB3000C200C2004A014A01B000B000A901A90127
:10CB40006C016C0140024002A501A501A401A401F1
:10CB50009D019D01C100C1000B010B01F4FFF4FF19
:10CB6000F3FFF3FF72FF72FFEAFEEAFEEFFDEFFD57
:10CB7000CCFDCCFDD4FCD4FCC6FCC6FCC3FBC3FB83
:10CB8000B9FBB9FB52FB52FB01FC01FC06FC06FCA5
:10CB900021FD21FDDFFDDFFDA1FEA1FEDEFFDEFFA9
:10CBA0008B008B00E801E801330233023C033C03B5
:10CBB000FB02FB0274047404360436048D068D06F1
:10CBC000AE05AE05CF05CF0573067306C803C803CF
:10CBD000C404C404D802D802A801A8010D010D01A3
:10CBE000D7FFD7FF16FE16FE23FD23FDC6FCC6FCAD
:10CBF0005AFA5AFAB5FAB5FAFDFAFDFAA2F9A2F90B
:10CC00000CFB0CFB6BFA6BFA3AFA3AFAD1FAD1FA4E
:10CC1000CDFBCDFBB7FBB7FB88FD88FDA9FEA9FEC8
:10CC200002FF02FFF200F2002201220103020302CE
:10CC3000D602D602D502D50228032803BB03BB03C4
:10CC4000DF03DF03C606C60600050005C006C006F2
:10CC50002C072C0703060306030603064B054B05AA
:10CC60001904190439023902D002D00243FF43FFEC
:10CC700044FF44FF4AFE4AFE90FC90FCE7FBE7FBC2
:10CC80006DFB6DFB5DFA5DFAA3F9A3F950FA50FA5A
:10CC900068F968F93EFA3EFA58FB58FB7FFB7FFBC8
:10CCA0003CFD3CFD19FE19FE7FFF7FFFD0FFD0FF4A
:10CCB000F300F300C601C6011202120274027402EC
:10CCC0005A035A03EE02EE0218041804B607B60718
:10CCD000CD03CD037C077C07F806F8063105310546
:10CCE0005406540648054805DA03DA038202820234
:10CCF000310331033DFF3DFFACFFACFF9FFE9FFEC4
:10CD000016FC16FCCAFCCAFC44FB44FBB3FAB3FA9B
:10CD1000C8F9C8F958FA58FA63F963F91CFA1CFA09
:10CD2000EFFBEFFBE8FAE8FADAFDDAFDCCFDCCFD2B
:10CD3000B1FFB1FF3DFF3DFF8D008D00C700C70073
:10CD400040014001400140018302830288018801C3
:10CD5000230423040F080F08D902D902BC08BC0819
:10CD60007C067C06DC04DC04AF06AF0646054605FF
:10CD700053035303E602E6020803080309FF09FF11
:10CD8000C0FFC0FFC6FEC6FE7CFB7CFB63FD63FDEF
:10CD9000A3FAA3FA8FFA8FFA51FA51FAF1F9F1F9DD
:10CDA000D6F9D6F96FFA6FFA6FFC6FFC2CFB2CFBEF
:10CDB00096FE96FE50FE50FEF2FFF2FFDFFFDFFF11
:10CDC00069006900ACFFACFFB300B300DBFFDBFF21
:10CDD000FB00FB00EBFFEBFF25042504580658067B
:10CDE00067026702CF09CF09E705E705F004F00401
:10CDF000F907F9073F053F05510351036404640433
:10CE0000E802E80262FF62FFF7FFF7FFABFEABFE4E
:10CE1000E6FAE6FA1BFD1BFD90F990F9CBF9CBF988
:10CE20002CFA2CFA67F867F890F990F929FA29FAA0
:10CE30006DFB6DFB62FB62FB84FE84FE89FE89FE56
:10CE40001B001B00FD00FD00BD00BD0091FF91FF18
:10CE500043014301DDFFDDFF540054006C006C0012
:10CE6000100610063F043F04590459041F0A1F0A04
:10CE70005A045A0482068206580758078004800420
:10CE80000403040380048004CA00CA009BFE9BFEC6
:10CE90001FFF1FFF22FC22FCB4F9B4F904FC04FCC0
:10CEA0008CF78CF7E3F8E3F87FFA7FFAFBF6FBF6F2
:10CEB000ABF9ABF95CFB5CFBDEFADEFA82FC82FCD0
:10CEC000EBFFEBFF4FFF4FFFFD00FD00F102F10212
:10CED0007601760103000300550255024400440028
:10CEE0005B005B0048014801420742074F034F03C4
:10CEF0009A059A05A80AA80A91049104D107D107B6
:10CF00001E081E0828052805C603C603680568050F
:10CF1000AF00AF007DFE7DFE7FFF7FFF5AFB5AFB17
:10CF200082F982F9B8FBB8FB11F811F813F813F87D
:10CF30001FFA1FFA04F804F873F873F8DEFBDEFB3F
:10CF400044FB44FB53FC53FCD7FFD7FF34003400B1
:10CF50007D007D002F022F02C301C3014CFF4CFF57
:10CF6000F300F3008700870071FF71FF87008700DF
:10CF7000740774070E020E026F056F05260A260A53
:10CF8000CD04CD0424072407F308F308C005C00529
:10CF9000750375033206320681018101BBFDBBFDBD
:10CFA000BDFFBDFFC9FBC9FB97F897F871FB71FB8B
:10CFB000FDF7FDF7EAF7EAF7D1F8D1F8C9F8C9F8B3
:10CFC0007DF87DF86FFB6FFB6CFC6CFCEAFCEAFC07
:10CFD000B7FFB7FF69016901B800B800DA01DA01EB
:10CFE000D001D001400040008500850034013401AB
:10CFF0002900290092019201210821082C022C020B
:10D000004E064E062A092A0996049604E705E70506
:10D01000D607D60718041804100210025C045C043A
:10D0200020002000CDFBCDFBF7FDF7FD4DFB4DFBB8
:10D0300007F807F8ADFAADFA2BF92BF910F810F84C
:10D040003FF93FF935FA35FABFF9BFF9DFFBDFFBEE
:10D05000D4FDD4FD52FE52FEBFFFBFFF510251026C
:10D0600004010401300130013F013F01C000C00054
:10D07000070007007E017E01EAFFEAFF86058605BC
:10D080000C070C07CE02CE02A009A00957075707CC
:10D0900060056005F406F40687068706DD02DD02FA
:10D0A0005202520235033503D2FDD2FD6FFB6FFBF6
:10D0B0005EFD5EFDB8F9B8F98DF88DF8CCF9CCF9C4
:10D0C0000AF90AF9AEF7AEF76EF96EF9AFFAAFFAF0
:10D0D00082FA82FAB9FCB9FC3EFF3EFF85FF85FF6C
:10D0E0003E013E01EB02EB029D019D015D015D01F0
:10D0F0006D016D01F600F6002B002B00EE00EE0036
:10D10000E700E7003F083F089C049C044A054A05E5
:10D11000770A770AFC05FC0555065506D806D80699
:10D12000AB05AB05F801F8019202920254025402D9
:10D13000FFFBFFFBE3FBE3FBCEFCCEFC06F906F9AD
:10D14000A3F8A3F8A9F9A9F9FDF8FDF880F780F78D
:10D1500029FA29FA29FB29FB27FB27FBAAFDAAFDAF
:10D16000660066002700270038023802C502C502A3
:10D170001301130183008300DD00DD0093FF93FFA3
:10D18000FFFFFFFF7CFF7CFF550355033E083E0871
:10D19000EA02EA022D082D082C092C09C905C90547
:10D1A0005A065A069A069A06040504052201220127
:10D1B00027032703BE00BE0094FA94FA6AFC6AFCB7
:10D1C0009EFB9EFB8BF88BF883F883F8FBF9FBF949
:10D1D00003F903F9C0F7C0F72BFB2BFBEEFBEEFBCB
:10D1E000FFFBFFFB51FF51FF7E017E0157015701FD
:10D1F000700270027C027C028F008F00C6FFC6FFA7
:10D200001F001F007BFF7BFF82FF82FF1DFF1DFFB2
:10D2100097069706AA06AA066B036B033E0A3E0A08
:10D220007008700883058305080608065706570628
:10D2300068026802DDFFDDFF580258028FFD8FFD96
:10D24000CFF9CFF9EBFBEBFB44FA44FA0CF80CF8FE
:10D2500037F837F830FA30FAC2F8C2F857F857F80A
:10D2600002FC02FCABFCABFC65FD65FD2B002B005A
:10D270004602460212021202BA01BA01D201D201DA
:10D280004D004D0071FF71FF31FF31FF250025007A
:10D290001EFF1EFF9800980093089308AF05AF0586
:10D2A00087058705D80AD80AB208B208F605F60538
:10D2B00023052305FA05FA05250125011CFF1CFF9E
:10D2C0008000800079FB79FB09F909F94DFA4DFAE4
:10D2D0009EF99EF9ACF7ACF768F768F7F9F9F9F938
:10D2E000EFF8EFF888F888F8CDFBCDFB19FD19FDB4
:10D2F000E2FDE2FD93FF93FF1F021F0205020502FC
:10D30000C800C800F900F900050005002AFF2AFF3F
:10D310007FFE7FFE080008003DFF3DFFA400A40043
:10D320000C080C083006300622062206260A260AB9
:10D3300094099409BF06BF06A304A304B905B9055F
:10D3400022022202D5FED5FE1FFF1FFF65FC65FCF1
:10D350006BF96BF921F921F9E9F9E9F97EF87EF821
:10D3600095F795F708FA08FA19FA19FAD1F9D1F9E7
:10D37000F9FBF9FB78FE78FEEAFEEAFEAEFFAEFFAF
:10D38000E501E501A001A0010B000B0076FF76FF8F
:10D39000EFFFEFFF30FF30FFB1FEB1FE640064002D
:10D3A000C8FFC8FF59045904EB07EB07D505D5059D
:10D3B00069086908CD09CD09DB08DB08CA05CA057B
:10D3C000D004D00464046404B200B200DAFEDAFED1
:10D3D00091FD91FD72FB72FBE6F9E6F994F994F97F
:10D3E00001FA01FAA1F8A1F8D7F8D7F843FA43FAFD
:10D3F0008EFA8EFA20FB20FB09FD09FD64FF64FF15
:10D40000A3FFA3FF99009900DB01DB01F000F0000E
:10D41000F9FFF9FFA0FFA0FFDEFFDEFF5BFF5BFF70
:10D4200096FF96FF4A004A0008010801E306E3065A
:10D43000340734076506650637093709A809A809BE
:10D44000D007D007F804F804CB04CB04F102F102B2
:10D45000F7FFF7FF4FFE4FFE6EFC6EFC08FB08FB6C
:10D46000E2F9E2F9AFF9AFF97EF97EF994F894F8B0
:10D4700056F956F93DFA3DFADDFADDFA89FB89FBEA
:10D48000BAFDBAFD8CFF8CFF7CFF7CFF6A006A004E
:10D49000090109010D000D004AFF4AFF21FF21FF8C
:10D4A000C6FFC6FF36FF36FF37003700460046008E
:10D4B0003603360327082708C106C106C407C40778
:10D4C0005B095B09D008D0085506550630043004C6
:10D4D000D503D50324012401D5FED5FE5BFD5BFDFC
:10D4E00079FB79FBC8FAC8FA1BFA1BFA12FA12FA8E
:10D4F0008BF98BF960F960F923FA23FA7BFA7BFA4E
:10D5000005FB05FB0AFC0AFC3DFE3DFE3AFF3AFF27
:10D510004CFF4CFF7600760083008300A4FFA4FF3D
:10D520000CFF0CFF75FF75FF13001300DBFFDBFF23
:10D53000F900F900FB00FB00270527052408240853
:10D54000AC06AC0631083108F908F90812081208CF
:10D550007205720515041504920392037800780091
:10D56000DEFEDEFEB7FDB7FDE2FBE2FB4BFB4BFB55
:10D57000BEFABEFA19FB19FB33FA33FAFAF9FAF9D3
:10D58000B9FAB9FAB3FAB3FA21FB21FB02FC02FCA7
:10D590003AFE3AFE2EFF2EFF39FF39FF7F007F0053
:10D5A0006A006A00C0FFC0FFBBFEBBFEA1FEA1FE79
:10D5B00022FF22FF06FF06FF67006700CB00CB00BB
:10D5C0004105410588088808B907B9073F093F099F
:10D5D0008A098A095C085C08A704A7048C028C02EB
:10D5E000D801D80134FE34FEB3FCB3FCC8FBC8FB41
:10D5F0004AFB4AFBCAFACAFA68FA68FA71FB71FB7D
:10D60000A9FAA9FA9CFA9CFA0DFB0DFB61FB61FBE0
:10D61000DFFBDFFBBCFCBCFC84FE84FEEDFEEDFE0C
:10D6200016FF16FF02000200C6FFC6FF75FF75FF5A
:10D630009AFE9AFEE5FEE5FE3AFF3AFFBCFFBCFF0C
:10D64000910091009A029A02EE07EE07FE08FE088A
:10D65000000900099E0A9E0A2C0A2C0AA007A007AE
:10D66000B403B40397029702870087000BFD0BFDFC
:10D67000D3FBD3FB76FB76FBC8FBC8FBBDFABDFA38
:10D680005AFB5AFBC9FBC9FB0AFB0AFB16FB16FB3C
:10D6900039FB39FBE0FBE0FB2BFC2BFC33FD33FDBE
:10D6A0004CFE4CFE09FE09FE80FE80FEEEFEEEFE04
:10D6B000BFFEBFFE94FE94FE40FE40FE0AFF0AFF3E
:10D6C00067FF67FF3C003C002E012E01D104D1040E
:10D6D0001709170918091809E109E109FE0AFE0AE4
:10D6E000D309D309B406B406AE03AE03C202C20224
:10D6F0001800180028FD28FDBAFBBAFBC1FBC1FBCE
:10D7000074FB74FB85FA85FA92FB92FBD7FBD7FB7F
:10D71000CFFACFFA48FA48FAB4FAB4FA21FB21FB5F
:10D7200022FB22FBC5FBC5FB01FD01FD89FD89FD37
:10D73000E9FDE9FDD9FDD9FD51FE51FE62FE62FE13
:10D7400047FE47FEF6FEF6FEF2FFF2FFC900C900F3
:10D7500057025702B306B3062309230930093009DB
:10D76000320A320A4E0A4E0A920892085B055B059D
:10D77000660366031902190273FF73FF23FD23FD7D
:10D780001DFC1DFC65FC65FCCBFBCBFB86FB86FB17
:10D79000EDFBEDFB91FB91FB9CFA9CFA23FA23FA3B
:10D7A00067FA67FACAFACAFA2BFB2BFBEDFBEDFB13
:10D7B00020FD20FD49FE49FE6EFE6EFE6CFE6CFEF5
:10D7C000D9FED9FEFBFEFBFE5BFF5BFFD7FFD7FF59
:10D7D000F600F600CE01CE0146044604E307E30757
:10D7E0000C090C09BE09BE094A0A4A0A9B099B0991
:10D7F000BC07BC071F051F05B003B003E901E90121
:10D800007DFF7DFF8BFD8BFDC4FCC4FCA1FCA1FC56
:10D81000F5FBF5FBBFFBBFFB9CFB9CFBBEFABEFA16
:10D82000D2F9D2F9A6F9A6F9C7F9C7F931FA31FA4E
:10D83000E1FAE1FAC5FBC5FB1FFD1FFDFCFDFCFD88
:10D8400011FE11FE56FE56FE81FE81FEEAFEEAFE44
:10D850003BFF3BFF02000200260126016302630238
:10D86000C905C905790879082E092E09080A080A88
:10D87000030A030AE708E708BE06BE0697049704F2
:10D880001B031B0301010101ADFEADFE0FFD0FFDEA
:10D89000C4FCC4FC6CFC6CFCD7FBD7FBAAFBAAFB4A
:10D8A00056FB56FB6CFA6CFAC8F9C8F9CCF9CCF9FE
:10D8B000F2F9F2F9A0FAA0FA63FB63FB75FC75FCC0
:10D8C000B3FDB3FD1CFE1CFE4DFE4DFE7DFE7DFE38
:10D8D000A8FEA8FEFDFEFDFE47FF47FF47004700EC
:10D8E000250125010C030C034C064C06F907F9072A
:10D8F000FB08FB08BB09BB096F096F09100810087A
:10D90000E205E20553045304B002B002860086002B
:10D9100090FE90FE95FD95FD6BFD6BFDC0FCC0FC7F
:10D9200017FC17FCC9FBC9FB46FB46FB4CFA4CFA3B
:10D93000C5F9C5F9B9F9B9F907FA07FAAFFAAFFAB3
:10D9400067FB67FB9EFC9EFC92FD92FDDDFDDDFD0D
:10D9500005FE05FE19FE19FE78FE78FEE2FEE2FEE7
:10D9600091FF91FFAB00AB00D201D2016D046D04B9
:10D97000F706F7063A083A08580958099109910933
:10D98000DE08DE0851075107AD05AD054F044F0411
:10D990005E025E0263006300C5FEC5FE0CFE0CFE67
:10D9A0007FFD7FFDB1FCB1FC2DFC2DFCA6FBA6FB91
:10D9B000CAFACAFA09FA09FAD2F9D2F9D6F9D6F9A5
:10D9C00053FA53FA0FFB0FFBF9FBF9FB1BFD1BFD91
:10D9D000CDFDCDFD0EFE0EFE13FE13FE24FE24FE35
:10D9E00096FE96FE11FF11FFFAFFFAFF06010601EF
:10D9F000AE02AE02870587058A078A07C408C408F5
:10DA00009C099C09630963094F084F089A069A0606
:10DA10002E052E05B103B103CC01CC01020002009A
:10DA2000C8FEC8FE4DFE4DFE95FD95FDCBFCCBFC22
:10DA300022FC22FC42FB42FB25FA25FA84F984F9F8
:10DA40006EF96EF99FF99FF949FA49FA1AFB1AFB28
:10DA500033FC33FC3CFD3CFDC8FDC8FD21FE21FE2E
:10DA60004EFE4EFEAFFEAFFE34FF34FFC6FFC6FFD4
:10DA7000A800A800A601A6019B039B03D205D2051E
:10DA8000210721071C081C086B086B08E207E20746
:10DA9000A606A60637053705120412049E029E024A
:10DAA000F900F90092FF92FFD8FED8FE57FE57FE0C
:10DAB0008AFD8AFDDFFCDFFC3DFC3DFC46FB46FBAE
:10DAC00062FA62FA11FA11FA04FA04FA46FA46FA0C
:10DAD000D1FAD1FA97FB97FB94FC94FC47FD47FDE4
:10DAE000AAFDAAFDF3FDF3FD5EFE5EFE03FF03FF4C
:10DAF0009BFF9BFF5B005B002F012F01BB02BB0262
:10DB0000BB04BB0413061306180718079D079D07DF
:10DB100067076707840684065805580549044904C1
:10DB2000F902F9026A016A010A000A0046FF46FF8B
:10DB3000C1FEC1FE00FE00FE50FD50FDB8FCB8FC69
:10DB4000D7FBD7FBE6FAE6FA81FA81FA67FA67FAB9
:10DB50008CFA8CFAFBFAFBFAA9FBA9FB96FC96FC63
:10DB600052FD52FDBCFDBCFD03FE03FE68FE68FED7
:10DB70000CFF0CFFB4FFB4FF820082004F014F0185
:10DB80008702870269046904D905D905D306D3063B
:10DB9000660766074D074D079006900672057205E9
:10DBA0006104610437033703BF01BF014C004C001F
:10DBB00069FF69FFDBFEDBFE23FE23FE61FD61FDE5
:10DBC000C4FCC4FC04FC04FC1BFB1BFBA1FAA1FA73
:10DBD00080FA80FAA0FAA0FA02FB02FB9CFB9CFBF5
:10DBE00076FC76FC3DFD3DFDC4FDC4FD10FE10FE3F
:10DBF00060FE60FEFBFEFBFEABFFABFF720072003F
:10DC00003601360141024102F503F5037005700546
:10DC100073067306060706070707070773067306EA
:10DC200073057305790479046E036E0320022002E4
:10DC3000B500B500BBFFBBFF1CFF1CFF61FE61FE12
:10DC400098FD98FDF9FCF9FC53FC53FC84FB84FB24
:10DC50000BFB0BFBE1FAE1FAF6FAF6FA45FB45FBA2
:10DC6000BCFBBCFB6FFC6FFC21FD21FDA8FDA8FDEA
:10DC7000EEFDEEFD3CFE3CFEEAFEEAFEA3FFA3FF46
:10DC80005F005F001601160119021902B903B903FA
:10DC90002F052F0539063906D306D306DF06DF0622
:10DCA0005606560671057105900490048E038E0386
:10DCB00046024602D400D400C0FFC0FF06FF06FFA4
:10DCC00031FE31FE66FD66FDC3FCC3FC1DFC1DFC80
:10DCD0005BFB5BFBF5FAF5FADCFADCFAF4FAF4FA32
:10DCE0004AFB4AFBBCFBBCFB5FFC5FFC09FD09FD7A
:10DCF0008FFD8FFDE3FDE3FD53FE53FE22FF22FF68
:10DD0000EEFFEEFFB500B5006D016D015502550245
:10DD1000C103C10304050405E505E50569066906B7
:10DD200066066606E805E805260526055E045E0427
:10DD30006903690334023402D700D700C9FFC9FF61
:10DD40000EFF0EFF45FE45FE90FD90FDF5FCF5FC37
:10DD500054FC54FCBDFBBDFB82FB82FB78FB78FBD3
:10DD600094FB94FBEDFBEDFB59FC59FCDFFCDFFC65
:10DD70005DFD5DFDCEFDCEFD2BFE2BFECDFECDFE71
:10DD8000A7FFA7FF690069002F012F01DB01DB015D
:10DD9000E902E9024504450444054405F805F8058F
:10DDA0003C063C06030603066B056B05B704B70487
:10DDB000EC03EC03DE02DE02990199014F004F00F3
:10DDC00070FF70FFB6FEB6FEE5FDE5FD08FD08FD3F
:10DDD00037FC37FC86FB86FB20FB20FB0CFB0CFB97
:10DDE0000BFB0BFB4CFB4CFBBDFBBDFB3DFC3DFCB7
:10DDF000CAFCCAFC4CFD4CFDAEFDAEFD10FE10FE93
:10DE0000E1FEE1FEE3FFE3FFC600C60083018301FC
:10DE10002D022D0238033803700470045405540594
:10DE2000DD05DD0505060506B705B7051905190564
:10DE3000690469049E039E03980298025E015E01D4
:10DE4000200020004AFF4AFF9EFE9EFED9FDD9FD1C
:10DE5000F7FCF7FC28FC28FC8CFB8CFB3EFB3EFB14
:10DE60003FFB3FFB4AFB4AFB8AFB8AFBEEFBEEFBD8
:10DE700066FC66FCFBFCFBFC88FD88FDF8FDF8FDFC
:10DE80006AFE6AFE49FF49FF550055002A012A0132
:10DE9000DA01DA01610261021C031C03FB03FB03CC
:10DEA00095049504E304E304E204E2048B048B0488
:10DEB000FB03FB035303530383028302880188019E
:10DEC0006C006C0078FF78FFD0FED0FE32FE32FE90
:10DED00087FD87FDE1FCE1FC5FFC5FFCFAFBFAFBE0
:10DEE000DBFBDBFBEAFBEAFB0EFC0EFC5BFC5BFCFA
:10DEF000AFFCAFFC21FD21FD9EFD9EFD1AFE1AFE2A
:10DF000091FE91FE2EFF2EFF21002100FB00FB0061
:10DF1000B601B6014B024B02B802B80250035003DF
:10DF2000F303F303700470049A049A046C046C0401
:10DF30000B040B0489038903EC02EC022A022A0277
:10DF4000460146014600460076FF76FFDFFEDFFE13
:10DF50004FFE4FFEB8FDB8FD3BFD3BFDD9FCD9FCA3
:10DF60007CFC7CFC5DFC5DFC6CFC6CFC8DFC8DFC2D
:10DF7000C1FCC1FC08FD08FD62FD62FDC2FDC2FDE1
:10DF80003CFE3CFECBFECBFE73FF73FF4800480017
:10DF90000D010D01BF01BF0149024902A702A702FD
:10DFA0000B030B0373037303C203C203DF03DF031B
:10DFB000CE03CE0390039003220322039102910229
:10DFC000E601E601260126014A004A008CFF8CFF8B
:10DFD000EEFEEEFE5DFE5DFED2FDD2FD5BFD5BFD65
:10DFE00004FD04FDB2FCB2FC9BFC9BFCA7FCA7FC5F
:10DFF000C6FCC6FCF4FCF4FC32FD32FD84FD84FD5D
:10E00000DAFDDAFD57FE57FEF7FEF7FEA8FFA8FF80
:10E010006D006D0023012301C501C5013B023B02D8
:10E020008A028A02D902D9021F031F034C034C0340
:10E03000610361036D036D0352035203FE02FE028E
:10E0400082028202E901E901380138017900790090
:10E05000B0FFB0FFEEFEEEFE4CFE4CFEC4FDC4FD74
:10E060005FFD5FFD25FD25FDFFFCFFFCECFCECFCEE
:10E07000E7FCE7FCFBFCFBFC2AFD2AFD74FD74FDBC
:10E08000F5FDF5FD8DFE8DFE3DFF3DFFEEFFEEFF44
:10E090009300930028012801AD01AD01250225025E
:10E0A00076027602BB02BB02EE02EE02F902F90230
:10E0B000F202F202E802E802DB02DB0299029902B4
:10E0C0002F022F02AE01AE01150115017000700084
:10E0D000B4FFB4FF07FF07FF77FE77FE0AFE0AFED4
:10E0E000B9FDB9FD93FD93FD83FD83FD74FD74FDC2
:10E0F00077FD77FD7EFD7EFD9FFD9FFDCAFDCAFD7C
:10E100001BFE1BFE8BFE8BFE03FF03FF88FF88FFB9
:10E11000060006007A007A00D800D8003A013A01D9
:10E120008F018F01C901C9010102010228022802E1
:10E130003D023D024B024B025F025F02630263023B
:10E1400039023902F901F901A501A5014001400197
:10E15000C600C60038003800A8FFA8FF28FF28FF27
:10E16000BBFEBBFE64FE64FE2AFE2AFE00FE00FE2D
:10E17000EAFDEAFDE2FDE2FDEBFDEBFD01FE01FE45
:10E1800023FE23FE63FE63FEBAFEBAFE19FF19FFEB
:10E190007FFF7FFFE2FFE2FF410041009A009A000B
:10E1A000EC00EC0027012701520152017A017A01AB
:10E1B0008E018E019A019A01A401A401B001B0015F
:10E1C000A401A40186018601640164012F012F01CD
:10E1D000EF00EF009B009B0045004500F0FFF0FFC3
:10E1E00091FF91FF40FF40FFFAFEFAFEBFFEBFFE27
:10E1F00098FE98FE7CFE7CFE64FE64FE5AFE5AFE8B
:10E200005EFE5EFE73FE73FE92FE92FEBBFEBBFEE2
:10E21000F3FEF3FE30FF30FF7DFF7DFFC9FFC9FF36
:10E2200013001300590059009A009A00CD00CD0048
:10E23000E900E900030103010F010F010D010D01C8
:10E2400003010301FB00FB00E900E900CE00CE0062
:10E25000BD00BD00A400A40086008600610061002E
:10E260003A003A001F001F0001000100E1FFE1FF3A
:10E27000C9FFC9FFB6FFB6FFA5FFA5FF99FF99FF2C
:10E2800099FF99FF9DFF9DFFA5FFA5FFB1FFB1FF7E
:10E29000BEFFBEFFCEFFCEFFDBFFDBFFEDFFEDFFDE
:10E2A0000300030019001900290029003600360078
:10E2B0004100410045004500440044004300430044
:10E2C0003F003F003900390036003600320032008E
:10E2D0002D002D002D002D002C002C0029002900E0
:10E2E000220022001A001A00130013000D000D0076
:10E2F0000800080002000200FCFFFCFFF6FFF6FF2A
:10E30000F3FFF3FFEEFFEEFFE6FFE6FFE1FFE1FFC5
:10E31000E4FFE4FFE5FFE5FFE7FFE7FFE8FFE8FFD5
:10E32000EAFFEAFFECFFECFFEFFFEFFFF3FFF3FF85
:10E33000F9FFF9FF03000300070007000A000A00C5
:10E340000D000D000E000E000E000E000F000F005D
:10E350000F000F000F000F000D000D000900090055
:10E36000050005000400040002000200FFFFFFFF9B
:10E37000F8FFF8FFEFFFEFFFE7FFE7FFE5FFE5FF3F
:10E38000E9FFE9FFE9FFE9FFEBFFEBFFF0FFF0FF3B
:10E39000EFFFEFFFEEFFEEFFF4FFF4FFF8FFF8FFF3
:10E3A000F5FFF5FFFCFFFCFF01000100010001008B
:10E3B000000000000000000000000000000000005D
:10E3C000000000000000000000000000000000004D
:10E3D000000000000000000000000000000000003D
:10E3E000000000000000000000000000000000002D
:10E3F000FFFFFFFFFFFFFFFFFFFFFFFFFFFFFFFF2D
:10E40000000000000000000000000000000000000C
:10E410000000000000000000FFFFFFFF0000000000
:10E4200000000000000000000000000000000000EC
:10E4300000000000FFFFFFFF070007000C000C00BA
:10E44000080008000700070005000500030003009E
:10E4500001000100000000000000000000000000BA
:10E4600000000000000000000000000000000000AC
:10E47000000000000000000000000000000000009C
:10E48000000000000000000000000000000000008C
:10E49000000000000000000000000000000000007C
:10E7000001000100FEFFFEFF19001900260026008F
:10E71000230023002B002B001D001D000C000C000B
:10E720002200220026002600210021002B002B00C1
:10E730001D001D0013001300210021000D000D001D
:10E74000FAFFFAFFF1FFF1FFE0FFE0FFDBFFDBFF85
:10E75000CDFFCDFFC3FFC3FFBEFFBEFFBAFFBAFFB1
:10E76000BDFFBDFFC6FFC6FFC9FFC9FFD9FFD9FF67
:10E77000E1FFE1FFEFFFEFFFFEFFFEFF09000900F1
:10E780001E001E0028002800310031003A003A0027
:10E790004000400045004500410041004200420069
:10E7A00046004600420042003C003C00320032007D
:10E7B0002E002E00210021001C001C001C001C004B
:10E7C000160016001100110003000300FFFFFFFFF9
:10E7D00000000000FCFFFCFFF5FFF5FFE8FFE8FF8D
:10E7E000E9FFE9FFE8FFE8FFE7FFE7FFE7FFE7FFF3
:10E7F000E9FFE9FFF6FFF6FFFEFFFEFFFAFFFAFF73
:10E80000EEFFEEFFEDFFEDFFF1FFF1FFF8FFF8FF88
:10E81000FEFFFEFFF5FFF5FFE8FFE8FFEDFFEDFF70
:10E82000FAFFFAFFFBFFFBFFF7FFF7FFF5FFF5FF2E
:10E83000EFFFEFFFE7FFE7FFE8FFE8FFEAFFEAFF90
:10E84000F1FFF1FFF8FFF8FFF5FFF5FFEFFFEFFF36
:10E85000F3FFF3FFF9FFF9FF060006000E000E00BC
:10E860000D000D0014001400160016001D001D0000
:10E8700023002300280028002A002A002400240066
:10E880002100210016001600110011000E000E00DC
:10E890000600060000000000F6FFF6FFF4FFF4FF9C
:10E8A000F0FFF0FFEDFFEDFFEDFFEDFFF1FFF1FFFA
:10E8B000F6FFF6FFFAFFFAFF01000100000000007A
:10E8C000080008000A000A001000100018001800D4
:10E8D0001A001A001800180013001300120012008A
:10E8E000100010000A000A00000000000CE90008F7
:10E8F00000000020BC00000040020008C8E9000839
:10E90000BC0000201C0400005002000800000000B1
:10E91000000E2707001C0140001C0140001C0140A4
:10E92000001C014001000000020000000400000083
:10E93000080000000E06110700020000040000009D
:10E940000004000008000000000801400008014029
:10E95000020602060706070607060706000801402A
:10E9600000100140001C0140001C0140010000009B
:10E970000020000020000000100000000206040635
:10E98000070607060100000000200000200000002C
:10E990001000000000020505000D05040628170AF6
:10E9A000401F000000000000000000006CDA0000C2
:10E9B000000000000000000001000000FFFF000058
:08E9C000FFFF00000000000051
:0400000508000131BD
:00000001FF
