Component: ARM Compiler 5.05 update 1 (build 106) Tool: armlink [4d0efa]

==============================================================================

Section Cross References

    main.o(i.change_picture) refers to gd32f303e_lcd_ili9341.o(i.lcd_picture_draw) for lcd_picture_draw
    main.o(i.change_picture) refers to gd32f303e_lcd_ili9341.o(i.lcd_char_display) for lcd_char_display
    main.o(i.change_picture) refers to picture.o(.constdata) for image_off
    main.o(i.change_picture) refers to main.o(.data) for b1
    main.o(i.get_touch_area) refers to main.o(.data) for a1
    main.o(i.main) refers to gd32f303e_eval.o(i.gd_eval_led_init) for gd_eval_led_init
    main.o(i.main) refers to systick.o(i.systick_config) for systick_config
    main.o(i.main) refers to gd32f303e_lcd_ili9341.o(i.exmc_lcd_init) for exmc_lcd_init
    main.o(i.main) refers to touch_panel.o(i.touch_panel_gpio_configure) for touch_panel_gpio_configure
    main.o(i.main) refers to systick.o(i.delay_1ms) for delay_1ms
    main.o(i.main) refers to gd32f303e_lcd_ili9341.o(i.lcd_init) for lcd_init
    main.o(i.main) refers to gd32f303e_lcd_ili9341.o(i.lcd_clear) for lcd_clear
    main.o(i.main) refers to gd32f303e_lcd_ili9341.o(i.lcd_picture_draw) for lcd_picture_draw
    main.o(i.main) refers to gd32f303e_lcd_ili9341.o(i.lcd_rectangle_draw) for lcd_rectangle_draw
    main.o(i.main) refers to gd32f303e_lcd_ili9341.o(i.lcd_char_display) for lcd_char_display
    main.o(i.main) refers to touch_panel.o(i.touch_scan) for touch_scan
    main.o(i.main) refers to touch_panel.o(i.touch_coordinate_y_get) for touch_coordinate_y_get
    main.o(i.main) refers to touch_panel.o(i.touch_coordinate_x_get) for touch_coordinate_x_get
==============================================================================

Removing Unused input sections from the image.

    Removing main.o(.rev16_text), (4 bytes).
    Removing main.o(.revsh_text), (4 bytes).
    Removing gd32f30x_it.o(.rev16_text), (4 bytes).
    Removing gd32f30x_it.o(.revsh_text), (4 bytes).
    Removing systick.o(.rev16_text), (4 bytes).
    Removing systick.o(.revsh_text), (4 bytes).
    Removing system_gd32f30x.o(.rev16_text), (4 bytes).
    Removing system_gd32f30x.o(.revsh_text), (4 bytes).
    Removing system_gd32f30x.o(i.SystemCoreClockUpdate), (184 bytes).
    Removing gd32f30x_adc.o(.rev16_text), (4 bytes).
    Removing gd32f30x_adc.o(.revsh_text), (4 bytes).
    Removing gd32f30x_adc.o(i.adc_calibration_enable), (42 bytes).
    Removing gd32f30x_adc.o(i.adc_channel_length_config), (70 bytes).
    Removing gd32f30x_adc.o(i.adc_data_alignment_config), (22 bytes).
    Removing gd32f30x_adc.o(i.adc_deinit), (88 bytes).
    Removing gd32f30x_adc.o(i.adc_disable), (10 bytes).
    Removing gd32f30x_adc.o(i.adc_discontinuous_mode_config), (76 bytes).
    Removing gd32f30x_adc.o(i.adc_dma_mode_disable), (10 bytes).
==============================================================================

Image Symbol Table

    Local Symbols

    Symbol Name                              Value     Ov Type        Size  Object(Section)

    ../clib/microlib/init/entry.s            0x00000000   Number         0  entry10b.o ABSOLUTE
    ../clib/microlib/init/entry.s            0x00000000   Number         0  entry8a.o ABSOLUTE
    ../clib/microlib/init/entry.s            0x00000000   Number         0  entry5.o ABSOLUTE
    ../clib/microlib/init/entry.s            0x00000000   Number         0  entry9b.o ABSOLUTE
    ../clib/microlib/init/entry.s            0x00000000   Number         0  entry11b.o ABSOLUTE
    ../clib/microlib/init/entry.s            0x00000000   Number         0  entry.o ABSOLUTE
    ../clib/microlib/init/entry.s            0x00000000   Number         0  entry11a.o ABSOLUTE
    ../clib/microlib/init/entry.s            0x00000000   Number         0  entry10a.o ABSOLUTE
    ../clib/microlib/init/entry.s            0x00000000   Number         0  entry9a.o ABSOLUTE
    ../clib/microlib/init/entry.s            0x00000000   Number         0  entry7b.o ABSOLUTE
    ../clib/microlib/init/entry.s            0x00000000   Number         0  entry8b.o ABSOLUTE
    ../clib/microlib/init/entry.s            0x00000000   Number         0  entry7a.o ABSOLUTE
    ../clib/microlib/init/entry.s            0x00000000   Number         0  entry2.o ABSOLUTE
    ..\..\..\Library\Firmware\CMSIS\GD\GD32F30x\Source\ARM\startup_gd32f30x_hd.s 0x00000000   Number         0  startup_gd32f30x_hd.o ABSOLUTE
    ..\..\..\Library\Firmware\CMSIS\GD\GD32F30x\Source\system_gd32f30x.c 0x00000000   Number         0  system_gd32f30x.o ABSOLUTE
    ..\..\..\Library\Firmware\GD32F30x_standard_peripheral\Source\gd32f30x_adc.c 0x00000000   Number         0  gd32f30x_adc.o ABSOLUTE
    ..\..\..\Library\Firmware\GD32F30x_standard_peripheral\Source\gd32f30x_bkp.c 0x00000000   Number         0  gd32f30x_bkp.o ABSOLUTE
    ..\..\..\Library\Firmware\GD32F30x_standard_peripheral\Source\gd32f30x_can.c 0x00000000   Number         0  gd32f30x_can.o ABSOLUTE
    ..\..\..\Library\Firmware\GD32F30x_standard_peripheral\Source\gd32f30x_crc.c 0x00000000   Number         0  gd32f30x_crc.o ABSOLUTE
    ..\..\..\Library\Firmware\GD32F30x_standard_peripheral\Source\gd32f30x_ctc.c 0x00000000   Number         0  gd32f30x_ctc.o ABSOLUTE
    ..\..\..\Library\Firmware\GD32F30x_standard_peripheral\Source\gd32f30x_dac.c 0x00000000   Number         0  gd32f30x_dac.o ABSOLUTE
    ..\..\..\Library\Firmware\GD32F30x_standard_peripheral\Source\gd32f30x_dbg.c 0x00000000   Number         0  gd32f30x_dbg.o ABSOLUTE
    ..\..\..\Library\Firmware\GD32F30x_standard_peripheral\Source\gd32f30x_dma.c 0x00000000   Number         0  gd32f30x_dma.o ABSOLUTE
    ..\..\..\Library\Firmware\GD32F30x_standard_peripheral\Source\gd32f30x_enet.c 0x00000000   Number         0  gd32f30x_enet.o ABSOLUTE
    ..\..\..\Library\Firmware\GD32F30x_standard_peripheral\Source\gd32f30x_exmc.c 0x00000000   Number         0  gd32f30x_exmc.o ABSOLUTE
    ..\..\..\Library\Firmware\GD32F30x_standard_peripheral\Source\gd32f30x_exti.c 0x00000000   Number         0  gd32f30x_exti.o ABSOLUTE
    ..\..\..\Library\Firmware\GD32F30x_standard_peripheral\Source\gd32f30x_fmc.c 0x00000000   Number         0  gd32f30x_fmc.o ABSOLUTE
    ..\..\..\Library\Firmware\GD32F30x_standard_peripheral\Source\gd32f30x_fwdgt.c 0x00000000   Number         0  gd32f30x_fwdgt.o ABSOLUTE
    ..\..\..\Library\Firmware\GD32F30x_standard_peripheral\Source\gd32f30x_gpio.c 0x00000000   Number         0  gd32f30x_gpio.o ABSOLUTE
    ..\..\..\Library\Firmware\GD32F30x_standard_peripheral\Source\gd32f30x_i2c.c 0x00000000   Number         0  gd32f30x_i2c.o ABSOLUTE
    ..\..\..\Library\Firmware\GD32F30x_standard_peripheral\Source\gd32f30x_misc.c 0x00000000   Number         0  gd32f30x_misc.o ABSOLUTE
    ..\..\..\Library\Firmware\GD32F30x_standard_peripheral\Source\gd32f30x_pmu.c 0x00000000   Number         0  gd32f30x_pmu.o ABSOLUTE
    ..\..\..\Library\Firmware\GD32F30x_standard_peripheral\Source\gd32f30x_rcu.c 0x00000000   Number         0  gd32f30x_rcu.o ABSOLUTE
    ..\..\..\Library\Firmware\GD32F30x_standard_peripheral\Source\gd32f30x_rtc.c 0x00000000   Number         0  gd32f30x_rtc.o ABSOLUTE
    ..\..\..\Library\Firmware\GD32F30x_standard_peripheral\Source\gd32f30x_sdio.c 0x00000000   Number         0  gd32f30x_sdio.o ABSOLUTE
    ..\..\..\Library\Firmware\GD32F30x_standard_peripheral\Source\gd32f30x_spi.c 0x00000000   Number         0  gd32f30x_spi.o ABSOLUTE
    ..\..\..\Library\Firmware\GD32F30x_standard_peripheral\Source\gd32f30x_timer.c 0x00000000   Number         0  gd32f30x_timer.o ABSOLUTE
    ..\..\..\Library\Firmware\GD32F30x_standard_peripheral\Source\gd32f30x_usart.c 0x00000000   Number         0  gd32f30x_usart.o ABSOLUTE
    ..\..\..\Library\Firmware\GD32F30x_standard_peripheral\Source\gd32f30x_wwdgt.c 0x00000000   Number         0  gd32f30x_wwdgt.o ABSOLUTE
    ..\..\..\Library\Utilities\gd32f303e_eval.c 0x00000000   Number         0  gd32f303e_eval.o ABSOLUTE
    ..\LCD\gd32f303e_lcd_ili9341.c           0x00000000   Number         0  gd32f303e_lcd_ili9341.o ABSOLUTE
    ..\Soft_Drive\picture.c                  0x00000000   Number         0  picture.o ABSOLUTE
    ..\Soft_Drive\touch_panel.c              0x00000000   Number         0  touch_panel.o ABSOLUTE
    ..\\..\\..\\Library\\Firmware\\CMSIS\\GD\\GD32F30x\\Source\\system_gd32f30x.c 0x00000000   Number         0  system_gd32f30x.o ABSOLUTE
    ..\\..\\..\\Library\\Firmware\\GD32F30x_standard_peripheral\\Source\\gd32f30x_adc.c 0x00000000   Number         0  gd32f30x_adc.o ABSOLUTE
    ..\\..\\..\\Library\\Firmware\\GD32F30x_standard_peripheral\\Source\\gd32f30x_bkp.c 0x00000000   Number         0  gd32f30x_bkp.o ABSOLUTE
    ..\\..\\..\\Library\\Firmware\\GD32F30x_standard_peripheral\\Source\\gd32f30x_can.c 0x00000000   Number         0  gd32f30x_can.o ABSOLUTE
    ..\\..\\..\\Library\\Firmware\\GD32F30x_standard_peripheral\\Source\\gd32f30x_crc.c 0x00000000   Number         0  gd32f30x_crc.o ABSOLUTE
    ..\\..\\..\\Library\\Firmware\\GD32F30x_standard_peripheral\\Source\\gd32f30x_ctc.c 0x00000000   Number         0  gd32f30x_ctc.o ABSOLUTE
    ..\\..\\..\\Library\\Firmware\\GD32F30x_standard_peripheral\\Source\\gd32f30x_dac.c 0x00000000   Number         0  gd32f30x_dac.o ABSOLUTE
    ..\\..\\..\\Library\\Firmware\\GD32F30x_standard_peripheral\\Source\\gd32f30x_dbg.c 0x00000000   Number         0  gd32f30x_dbg.o ABSOLUTE
    ..\\..\\..\\Library\\Firmware\\GD32F30x_standard_peripheral\\Source\\gd32f30x_dma.c 0x00000000   Number         0  gd32f30x_dma.o ABSOLUTE
    ..\\..\\..\\Library\\Firmware\\GD32F30x_standard_peripheral\\Source\\gd32f30x_enet.c 0x00000000   Number         0  gd32f30x_enet.o ABSOLUTE
    ..\\..\\..\\Library\\Firmware\\GD32F30x_standard_peripheral\\Source\\gd32f30x_exmc.c 0x00000000   Number         0  gd32f30x_exmc.o ABSOLUTE
    ..\\..\\..\\Library\\Firmware\\GD32F30x_standard_peripheral\\Source\\gd32f30x_exti.c 0x00000000   Number         0  gd32f30x_exti.o ABSOLUTE
    ..\\..\\..\\Library\\Firmware\\GD32F30x_standard_peripheral\\Source\\gd32f30x_fmc.c 0x00000000   Number         0  gd32f30x_fmc.o ABSOLUTE
    ..\\..\\..\\Library\\Firmware\\GD32F30x_standard_peripheral\\Source\\gd32f30x_fwdgt.c 0x00000000   Number         0  gd32f30x_fwdgt.o ABSOLUTE
    ..\\..\\..\\Library\\Firmware\\GD32F30x_standard_peripheral\\Source\\gd32f30x_gpio.c 0x00000000   Number         0  gd32f30x_gpio.o ABSOLUTE
    ..\\..\\..\\Library\\Firmware\\GD32F30x_standard_peripheral\\Source\\gd32f30x_i2c.c 0x00000000   Number         0  gd32f30x_i2c.o ABSOLUTE
    ..\\..\\..\\Library\\Firmware\\GD32F30x_standard_peripheral\\Source\\gd32f30x_misc.c 0x00000000   Number         0  gd32f30x_misc.o ABSOLUTE
    ..\\..\\..\\Library\\Firmware\\GD32F30x_standard_peripheral\\Source\\gd32f30x_pmu.c 0x00000000   Number         0  gd32f30x_pmu.o ABSOLUTE
    ..\\..\\..\\Library\\Firmware\\GD32F30x_standard_peripheral\\Source\\gd32f30x_rcu.c 0x00000000   Number         0  gd32f30x_rcu.o ABSOLUTE
    ..\\..\\..\\Library\\Firmware\\GD32F30x_standard_peripheral\\Source\\gd32f30x_rtc.c 0x00000000   Number         0  gd32f30x_rtc.o ABSOLUTE
    ..\\..\\..\\Library\\Firmware\\GD32F30x_standard_peripheral\\Source\\gd32f30x_sdio.c 0x00000000   Number         0  gd32f30x_sdio.o ABSOLUTE
    ..\\..\\..\\Library\\Firmware\\GD32F30x_standard_peripheral\\Source\\gd32f30x_spi.c 0x00000000   Number         0  gd32f30x_spi.o ABSOLUTE
    ..\\..\\..\\Library\\Firmware\\GD32F30x_standard_peripheral\\Source\\gd32f30x_timer.c 0x00000000   Number         0  gd32f30x_timer.o ABSOLUTE
    ..\\..\\..\\Library\\Firmware\\GD32F30x_standard_peripheral\\Source\\gd32f30x_usart.c 0x00000000   Number         0  gd32f30x_usart.o ABSOLUTE
    ..\\..\\..\\Library\\Firmware\\GD32F30x_standard_peripheral\\Source\\gd32f30x_wwdgt.c 0x00000000   Number         0  gd32f30x_wwdgt.o ABSOLUTE
    ..\\..\\..\\Library\\Utilities\\gd32f303e_eval.c 0x00000000   Number         0  gd32f303e_eval.o ABSOLUTE
    ..\\LCD\\gd32f303e_lcd_ili9341.c         0x00000000   Number         0  gd32f303e_lcd_ili9341.o ABSOLUTE
    ..\\Soft_Drive\\picture.c                0x00000000   Number         0  picture.o ABSOLUTE
    ..\\Soft_Drive\\touch_panel.c            0x00000000   Number         0  touch_panel.o ABSOLUTE
    ..\\gd32f30x_it.c                        0x00000000   Number         0  gd32f30x_it.o ABSOLUTE
    ..\\main.c                               0x00000000   Number         0  main.o ABSOLUTE
    ..\\systick.c                            0x00000000   Number         0  systick.o ABSOLUTE
    ..\gd32f30x_it.c                         0x00000000   Number         0  gd32f30x_it.o ABSOLUTE
    ..\main.c                                0x00000000   Number         0  main.o ABSOLUTE
    ..\systick.c                             0x00000000   Number         0  systick.o ABSOLUTE
    dc.s                                     0x00000000   Number         0  dc.o ABSOLUTE
    handlers.s                               0x00000000   Number         0  handlers.o ABSOLUTE
    init.s                                   0x00000000   Number         0  init.o ABSOLUTE
    RESET                                    0x08000000   Section      304  startup_gd32f30x_hd.o(RESET)
    .ARM.Collect$$$$00000000                 0x08000130   Section        0  entry.o(.ARM.Collect$$$$00000000)
    .ARM.Collect$$$$00000001                 0x08000130   Section        4  entry2.o(.ARM.Collect$$$$00000001)
    .ARM.Collect$$$$00000004                 0x08000134   Section        4  entry5.o(.ARM.Collect$$$$00000004)
    .ARM.Collect$$$$00000008                 0x08000138   Section        0  entry7b.o(.ARM.Collect$$$$00000008)
    .ARM.Collect$$$$0000000A                 0x08000138   Section        0  entry8b.o(.ARM.Collect$$$$0000000A)
    .ARM.Collect$$$$0000000B                 0x08000138   Section        8  entry9a.o(.ARM.Collect$$$$0000000B)
    .ARM.Collect$$$$0000000D                 0x08000140   Section        0  entry10a.o(.ARM.Collect$$$$0000000D)
    .ARM.Collect$$$$0000000F                 0x08000140   Section        0  entry11a.o(.ARM.Collect$$$$0000000F)
    .ARM.Collect$$$$00002712                 0x08000140   Section        4  entry2.o(.ARM.Collect$$$$00002712)
    __lit__00000000                          0x08000140   Data           4  entry2.o(.ARM.Collect$$$$00002712)
    .text                                    0x08000144   Section       36  startup_gd32f30x_hd.o(.text)
    $v0                                      0x08000144   Number         0  startup_gd32f30x_hd.o(.text)
    .text                                    0x08000168   Section       36  init.o(.text)
    i.BusFault_Handler                       0x0800018c   Section        0  gd32f30x_it.o(i.BusFault_Handler)
    i.DebugMon_Handler                       0x08000190   Section        0  gd32f30x_it.o(i.DebugMon_Handler)
    i.HardFault_Handler                      0x08000192   Section        0  gd32f30x_it.o(i.HardFault_Handler)
    i.LCD_SetCursor                          0x08000198   Section        0  gd32f303e_lcd_ili9341.o(i.LCD_SetCursor)
    i.LCD_SetParam                           0x080001d0   Section        0  gd32f303e_lcd_ili9341.o(i.LCD_SetParam)
    i.LCD_SetWindows                         0x080001fc   Section        0  gd32f303e_lcd_ili9341.o(i.LCD_SetWindows)
    i.LCD_WR_DATA                            0x08000250   Section        0  gd32f303e_lcd_ili9341.o(i.LCD_WR_DATA)
    i.LCD_WR_REG                             0x0800025c   Section        0  gd32f303e_lcd_ili9341.o(i.LCD_WR_REG)
    i.LCD_WriteRAM_Prepare                   0x08000268   Section        0  gd32f303e_lcd_ili9341.o(i.LCD_WriteRAM_Prepare)
    i.LCD_WriteReg                           0x08000278   Section        0  gd32f303e_lcd_ili9341.o(i.LCD_WriteReg)
    i.MemManage_Handler                      0x08000288   Section        0  gd32f30x_it.o(i.MemManage_Handler)
    i.NMI_Handler                            0x0800028c   Section        0  gd32f30x_it.o(i.NMI_Handler)
    i.NVIC_SetPriority                       0x08000290   Section        0  systick.o(i.NVIC_SetPriority)
    NVIC_SetPriority                         0x08000291   Thumb Code    32  systick.o(i.NVIC_SetPriority)
    i.PendSV_Handler                         0x080002b8   Section        0  gd32f30x_it.o(i.PendSV_Handler)
    i.SVC_Handler                            0x080002ba   Section        0  gd32f30x_it.o(i.SVC_Handler)
    i.SysTick_Handler                        0x080002bc   Section        0  gd32f30x_it.o(i.SysTick_Handler)
    i.SystemInit                             0x080002c4   Section        0  system_gd32f30x.o(i.SystemInit)
    i.UsageFault_Handler                     0x08000314   Section        0  gd32f30x_it.o(i.UsageFault_Handler)
    i.__scatterload_copy                     0x08000318   Section       14  handlers.o(i.__scatterload_copy)
    i.__scatterload_null                     0x08000326   Section        2  handlers.o(i.__scatterload_null)
    i.__scatterload_zeroinit                 0x08000328   Section       14  handlers.o(i.__scatterload_zeroinit)
    i.change_picture                         0x08000338   Section        0  main.o(i.change_picture)
    i.delay_1ms                              0x0800062c   Section        0  systick.o(i.delay_1ms)
    i.delay_decrement                        0x08000640   Section        0  systick.o(i.delay_decrement)
    i.exmc_lcd_init                          0x08000658   Section        0  gd32f303e_lcd_ili9341.o(i.exmc_lcd_init)
    i.exmc_norsram_enable                    0x08000720   Section        0  gd32f30x_exmc.o(i.exmc_norsram_enable)
    i.exmc_norsram_init                      0x08000738   Section        0  gd32f30x_exmc.o(i.exmc_norsram_init)
    i.find_max                               0x08000854   Section        0  main.o(i.find_max)
    i.gd_eval_led_init                       0x08000888   Section        0  gd32f303e_eval.o(i.gd_eval_led_init)
    i.gd_eval_led_off                        0x080008c8   Section        0  gd32f303e_eval.o(i.gd_eval_led_off)
    i.gd_eval_led_on                         0x080008e0   Section        0  gd32f303e_eval.o(i.gd_eval_led_on)
    i.get_touch_area                         0x080008f8   Section        0  main.o(i.get_touch_area)
    i.gpio_bit_reset                         0x080009c8   Section        0  gd32f30x_gpio.o(i.gpio_bit_reset)
    i.gpio_bit_set                           0x080009cc   Section        0  gd32f30x_gpio.o(i.gpio_bit_set)
    i.gpio_init                              0x080009d0   Section        0  gd32f30x_gpio.o(i.gpio_init)
    i.gpio_input_bit_get                     0x08000a74   Section        0  gd32f30x_gpio.o(i.gpio_input_bit_get)
    i.lcd_char_display                       0x08000a84   Section        0  gd32f303e_lcd_ili9341.o(i.lcd_char_display)
    i.lcd_clear                              0x08000bec   Section        0  gd32f303e_lcd_ili9341.o(i.lcd_clear)
    i.lcd_command_write                      0x08000c24   Section        0  gd32f303e_lcd_ili9341.o(i.lcd_command_write)
    i.lcd_gram_write                         0x08000c2c   Section        0  gd32f303e_lcd_ili9341.o(i.lcd_gram_write)
    i.lcd_init                               0x08000c34   Section        0  gd32f303e_lcd_ili9341.o(i.lcd_init)
    i.lcd_picture_draw                       0x08000e82   Section        0  gd32f303e_lcd_ili9341.o(i.lcd_picture_draw)
    i.lcd_point_set                          0x08000ed6   Section        0  gd32f303e_lcd_ili9341.o(i.lcd_point_set)
    i.lcd_rectangle_draw                     0x08000eee   Section        0  gd32f303e_lcd_ili9341.o(i.lcd_rectangle_draw)
    i.lcd_register_write                     0x08000f5e   Section        0  gd32f303e_lcd_ili9341.o(i.lcd_register_write)
    i.main                                   0x08000f6c   Section        0  main.o(i.main)
    i.rcu_periph_clock_enable                0x080011e4   Section        0  gd32f30x_rcu.o(i.rcu_periph_clock_enable)
    i.spi_clk                                0x08001204   Section        0  touch_panel.o(i.spi_clk)
    spi_clk                                  0x08001205   Thumb Code    26  touch_panel.o(i.spi_clk)
    i.spi_cs                                 0x08001224   Section        0  touch_panel.o(i.spi_cs)
    spi_cs                                   0x08001225   Thumb Code    26  touch_panel.o(i.spi_cs)
    i.spi_miso                               0x08001244   Section        0  touch_panel.o(i.spi_miso)
    spi_miso                                 0x08001245   Thumb Code    12  touch_panel.o(i.spi_miso)
    i.spi_mosi                               0x08001254   Section        0  touch_panel.o(i.spi_mosi)
    spi_mosi                                 0x08001255   Thumb Code    26  touch_panel.o(i.spi_mosi)
    i.system_clock_120m_hxtal                0x08001274   Section        0  system_gd32f30x.o(i.system_clock_120m_hxtal)
    system_clock_120m_hxtal                  0x08001275   Thumb Code   256  system_gd32f30x.o(i.system_clock_120m_hxtal)
    i.system_clock_config                    0x08001384   Section        0  system_gd32f30x.o(i.system_clock_config)
    system_clock_config                      0x08001385   Thumb Code     8  system_gd32f30x.o(i.system_clock_config)
    i.systick_config                         0x0800138c   Section        0  systick.o(i.systick_config)
    i.touch_ad_x_get                         0x080013dc   Section        0  touch_panel.o(i.touch_ad_x_get)
    i.touch_ad_xy_get                        0x080013fe   Section        0  touch_panel.o(i.touch_ad_xy_get)
    i.touch_ad_y_get                         0x08001478   Section        0  touch_panel.o(i.touch_ad_y_get)
    i.touch_coordinate_x_get                 0x0800149a   Section        0  touch_panel.o(i.touch_coordinate_x_get)
    i.touch_coordinate_y_get                 0x080014c4   Section        0  touch_panel.o(i.touch_coordinate_y_get)
    i.touch_data_filter                      0x080014f0   Section        0  touch_panel.o(i.touch_data_filter)
    i.touch_panel_gpio_configure             0x0800157c   Section        0  touch_panel.o(i.touch_panel_gpio_configure)
    i.touch_pen_irq                          0x080015dc   Section        0  touch_panel.o(i.touch_pen_irq)
    i.touch_read                             0x080015ec   Section        0  touch_panel.o(i.touch_read)
    i.touch_scan                             0x08001620   Section        0  touch_panel.o(i.touch_scan)
    i.touch_start                            0x08001668   Section        0  touch_panel.o(i.touch_start)
    i.touch_write                            0x0800168a   Section        0  touch_panel.o(i.touch_write)
    i.turn_on_led                            0x080016c6   Section        0  main.o(i.turn_on_led)
    .constdata                               0x08001730   Section       16  main.o(.constdata)
    .constdata                               0x08001740   Section    29224  picture.o(.constdata)
    .constdata                               0x08008968   Section     6096  gd32f303e_lcd_ili9341.o(.constdata)
    .data                                    0x20000000   Section       46  main.o(.data)
    .data                                    0x20000030   Section        4  systick.o(.data)
    delay                                    0x20000030   Data           4  systick.o(.data)
    .data                                    0x20000034   Section        4  system_gd32f30x.o(.data)
    .data                                    0x20000038   Section      140  gd32f303e_eval.o(.data)
    GPIO_PORT                                0x20000038   Data          16  gd32f303e_eval.o(.data)
    GPIO_PIN                                 0x20000048   Data          16  gd32f303e_eval.o(.data)
    COM_CLK                                  0x20000058   Data           4  gd32f303e_eval.o(.data)
    COM_TX_PIN                               0x2000005c   Data           8  gd32f303e_eval.o(.data)
    COM_RX_PIN                               0x20000064   Data           8  gd32f303e_eval.o(.data)
    COM_GPIO_PORT                            0x2000006c   Data           8  gd32f303e_eval.o(.data)
    COM_GPIO_CLK                             0x20000074   Data           4  gd32f303e_eval.o(.data)
    GPIO_CLK                                 0x20000078   Data           8  gd32f303e_eval.o(.data)
    KEY_PORT                                 0x20000080   Data          16  gd32f303e_eval.o(.data)
    KEY_PIN                                  0x20000090   Data          16  gd32f303e_eval.o(.data)
    KEY_CLK                                  0x200000a0   Data           8  gd32f303e_eval.o(.data)
    KEY_EXTI_LINE                            0x200000a8   Data          16  gd32f303e_eval.o(.data)
    KEY_PORT_SOURCE                          0x200000b8   Data           4  gd32f303e_eval.o(.data)
    KEY_PIN_SOURCE                           0x200000bc   Data           4  gd32f303e_eval.o(.data)
    KEY_IRQn                                 0x200000c0   Data           4  gd32f303e_eval.o(.data)
    .data                                    0x200000c4   Section        4  touch_panel.o(.data)
    .bss                                     0x200000c8   Section       14  gd32f303e_lcd_ili9341.o(.bss)
    STACK                                    0x200000d8   Section     1024  startup_gd32f30x_hd.o(STACK)

    Global Symbols

    Symbol Name                              Value     Ov Type        Size  Object(Section)

    BuildAttributes$$THM_ISAv4$E$P$D$K$B$S$7EM$VFPi3$EXTD16$VFPS$VFMA$PE$A:L22UL41UL21$X:L11$S22US41US21$IEEE1$IW$USESV6$~STKCKD$USESV7$~SHL$OSPACE$EBA8$MICROLIB$REQ8$PRES8$EABIv2 0x00000000   Number         0  anon$$obj.o ABSOLUTE
    __ARM_use_no_argv                        0x00000000   Number         0  main.o ABSOLUTE
    __cpp_initialize__aeabi_                  - Undefined Weak Reference
    __cxa_finalize                            - Undefined Weak Reference
    __decompress                              - Undefined Weak Reference
    _clock_init                               - Undefined Weak Reference
    _microlib_exit                            - Undefined Weak Reference
    __Vectors_Size                           0x00000130   Number         0  startup_gd32f30x_hd.o ABSOLUTE
    __Vectors                                0x08000000   Data           4  startup_gd32f30x_hd.o(RESET)
    __Vectors_End                            0x08000130   Data           0  startup_gd32f30x_hd.o(RESET)
    __main                                   0x08000131   Thumb Code     0  entry.o(.ARM.Collect$$$$00000000)
    _main_stk                                0x08000131   Thumb Code     0  entry2.o(.ARM.Collect$$$$00000001)
    _main_scatterload                        0x08000135   Thumb Code     0  entry5.o(.ARM.Collect$$$$00000004)
    __main_after_scatterload                 0x08000139   Thumb Code     0  entry5.o(.ARM.Collect$$$$00000004)
    _main_clock                              0x08000139   Thumb Code     0  entry7b.o(.ARM.Collect$$$$00000008)
    _main_cpp_init                           0x08000139   Thumb Code     0  entry8b.o(.ARM.Collect$$$$0000000A)
    _main_init                               0x08000139   Thumb Code     0  entry9a.o(.ARM.Collect$$$$0000000B)
    __rt_final_cpp                           0x08000141   Thumb Code     0  entry10a.o(.ARM.Collect$$$$0000000D)
    __rt_final_exit                          0x08000141   Thumb Code     0  entry11a.o(.ARM.Collect$$$$0000000F)
    Reset_Handler                            0x08000145   Thumb Code     8  startup_gd32f30x_hd.o(.text)
    ADC0_1_IRQHandler                        0x0800015f   Thumb Code     0  startup_gd32f30x_hd.o(.text)
    ADC2_IRQHandler                          0x0800015f   Thumb Code     0  startup_gd32f30x_hd.o(.text)
    CAN0_EWMC_IRQHandler                     0x0800015f   Thumb Code     0  startup_gd32f30x_hd.o(.text)
    CAN0_RX1_IRQHandler                      0x0800015f   Thumb Code     0  startup_gd32f30x_hd.o(.text)
    DMA0_Channel0_IRQHandler                 0x0800015f   Thumb Code     0  startup_gd32f30x_hd.o(.text)
    DMA0_Channel1_IRQHandler                 0x0800015f   Thumb Code     0  startup_gd32f30x_hd.o(.text)
    DMA0_Channel2_IRQHandler                 0x0800015f   Thumb Code     0  startup_gd32f30x_hd.o(.text)
    DMA0_Channel3_IRQHandler                 0x0800015f   Thumb Code     0  startup_gd32f30x_hd.o(.text)
    DMA0_Channel4_IRQHandler                 0x0800015f   Thumb Code     0  startup_gd32f30x_hd.o(.text)
    DMA0_Channel5_IRQHandler                 0x0800015f   Thumb Code     0  startup_gd32f30x_hd.o(.text)
    DMA0_Channel6_IRQHandler                 0x0800015f   Thumb Code     0  startup_gd32f30x_hd.o(.text)
    DMA1_Channel0_IRQHandler                 0x0800015f   Thumb Code     0  startup_gd32f30x_hd.o(.text)
    DMA1_Channel1_IRQHandler                 0x0800015f   Thumb Code     0  startup_gd32f30x_hd.o(.text)
    DMA1_Channel2_IRQHandler                 0x0800015f   Thumb Code     0  startup_gd32f30x_hd.o(.text)
    DMA1_Channel3_4_IRQHandler               0x0800015f   Thumb Code     0  startup_gd32f30x_hd.o(.text)
    EXMC_IRQHandler                          0x0800015f   Thumb Code     0  startup_gd32f30x_hd.o(.text)
    EXTI0_IRQHandler                         0x0800015f   Thumb Code     0  startup_gd32f30x_hd.o(.text)
    EXTI10_15_IRQHandler                     0x0800015f   Thumb Code     0  startup_gd32f30x_hd.o(.text)
    EXTI1_IRQHandler                         0x0800015f   Thumb Code     0  startup_gd32f30x_hd.o(.text)
    EXTI2_IRQHandler                         0x0800015f   Thumb Code     0  startup_gd32f30x_hd.o(.text)
    EXTI3_IRQHandler                         0x0800015f   Thumb Code     0  startup_gd32f30x_hd.o(.text)
    EXTI4_IRQHandler                         0x0800015f   Thumb Code     0  startup_gd32f30x_hd.o(.text)
    EXTI5_9_IRQHandler                       0x0800015f   Thumb Code     0  startup_gd32f30x_hd.o(.text)
    FMC_IRQHandler                           0x0800015f   Thumb Code     0  startup_gd32f30x_hd.o(.text)
    I2C0_ER_IRQHandler                       0x0800015f   Thumb Code     0  startup_gd32f30x_hd.o(.text)
    I2C0_EV_IRQHandler                       0x0800015f   Thumb Code     0  startup_gd32f30x_hd.o(.text)
    I2C1_ER_IRQHandler                       0x0800015f   Thumb Code     0  startup_gd32f30x_hd.o(.text)
    I2C1_EV_IRQHandler                       0x0800015f   Thumb Code     0  startup_gd32f30x_hd.o(.text)
    LVD_IRQHandler                           0x0800015f   Thumb Code     0  startup_gd32f30x_hd.o(.text)
    RCU_CTC_IRQHandler                       0x0800015f   Thumb Code     0  startup_gd32f30x_hd.o(.text)
    RTC_Alarm_IRQHandler                     0x0800015f   Thumb Code     0  startup_gd32f30x_hd.o(.text)
    RTC_IRQHandler                           0x0800015f   Thumb Code     0  startup_gd32f30x_hd.o(.text)
    SDIO_IRQHandler                          0x0800015f   Thumb Code     0  startup_gd32f30x_hd.o(.text)
    SPI0_IRQHandler                          0x0800015f   Thumb Code     0  startup_gd32f30x_hd.o(.text)
    SPI1_IRQHandler                          0x0800015f   Thumb Code     0  startup_gd32f30x_hd.o(.text)
    SPI2_IRQHandler                          0x0800015f   Thumb Code     0  startup_gd32f30x_hd.o(.text)
    TAMPER_IRQHandler                        0x0800015f   Thumb Code     0  startup_gd32f30x_hd.o(.text)
    TIMER0_BRK_IRQHandler                    0x0800015f   Thumb Code     0  startup_gd32f30x_hd.o(.text)
    TIMER0_Channel_IRQHandler                0x0800015f   Thumb Code     0  startup_gd32f30x_hd.o(.text)
    TIMER0_TRG_CMT_IRQHandler                0x0800015f   Thumb Code     0  startup_gd32f30x_hd.o(.text)
    TIMER0_UP_IRQHandler                     0x0800015f   Thumb Code     0  startup_gd32f30x_hd.o(.text)
    TIMER1_IRQHandler                        0x0800015f   Thumb Code     0  startup_gd32f30x_hd.o(.text)
    TIMER2_IRQHandler                        0x0800015f   Thumb Code     0  startup_gd32f30x_hd.o(.text)
    TIMER3_IRQHandler                        0x0800015f   Thumb Code     0  startup_gd32f30x_hd.o(.text)
    TIMER4_IRQHandler                        0x0800015f   Thumb Code     0  startup_gd32f30x_hd.o(.text)
    TIMER5_IRQHandler                        0x0800015f   Thumb Code     0  startup_gd32f30x_hd.o(.text)
    TIMER6_IRQHandler                        0x0800015f   Thumb Code     0  startup_gd32f30x_hd.o(.text)
    TIMER7_BRK_IRQHandler                    0x0800015f   Thumb Code     0  startup_gd32f30x_hd.o(.text)
    TIMER7_Channel_IRQHandler                0x0800015f   Thumb Code     0  startup_gd32f30x_hd.o(.text)
    TIMER7_TRG_CMT_IRQHandler                0x0800015f   Thumb Code     0  startup_gd32f30x_hd.o(.text)
    TIMER7_UP_IRQHandler                     0x0800015f   Thumb Code     0  startup_gd32f30x_hd.o(.text)
    UART3_IRQHandler                         0x0800015f   Thumb Code     0  startup_gd32f30x_hd.o(.text)
    UART4_IRQHandler                         0x0800015f   Thumb Code     0  startup_gd32f30x_hd.o(.text)
    USART0_IRQHandler                        0x0800015f   Thumb Code     0  startup_gd32f30x_hd.o(.text)
    USART1_IRQHandler                        0x0800015f   Thumb Code     0  startup_gd32f30x_hd.o(.text)
    USART2_IRQHandler                        0x0800015f   Thumb Code     0  startup_gd32f30x_hd.o(.text)
    USBD_HP_CAN0_TX_IRQHandler               0x0800015f   Thumb Code     0  startup_gd32f30x_hd.o(.text)
    USBD_LP_CAN0_RX0_IRQHandler              0x0800015f   Thumb Code     0  startup_gd32f30x_hd.o(.text)
    USBD_WKUP_IRQHandler                     0x0800015f   Thumb Code     0  startup_gd32f30x_hd.o(.text)
    WWDGT_IRQHandler                         0x0800015f   Thumb Code     0  startup_gd32f30x_hd.o(.text)
    __scatterload                            0x08000169   Thumb Code    28  init.o(.text)
    __scatterload_rt2                        0x08000169   Thumb Code     0  init.o(.text)
    BusFault_Handler                         0x0800018d   Thumb Code     4  gd32f30x_it.o(i.BusFault_Handler)
    DebugMon_Handler                         0x08000191   Thumb Code     2  gd32f30x_it.o(i.DebugMon_Handler)
    HardFault_Handler                        0x08000193   Thumb Code     4  gd32f30x_it.o(i.HardFault_Handler)
    LCD_SetCursor                            0x08000199   Thumb Code    52  gd32f303e_lcd_ili9341.o(i.LCD_SetCursor)
    LCD_SetParam                             0x080001d1   Thumb Code    40  gd32f303e_lcd_ili9341.o(i.LCD_SetParam)
    LCD_SetWindows                           0x080001fd   Thumb Code    78  gd32f303e_lcd_ili9341.o(i.LCD_SetWindows)
    LCD_WR_DATA                              0x08000251   Thumb Code    12  gd32f303e_lcd_ili9341.o(i.LCD_WR_DATA)
    LCD_WR_REG                               0x0800025d   Thumb Code    12  gd32f303e_lcd_ili9341.o(i.LCD_WR_REG)
    LCD_WriteRAM_Prepare                     0x08000269   Thumb Code    12  gd32f303e_lcd_ili9341.o(i.LCD_WriteRAM_Prepare)
    LCD_WriteReg                             0x08000279   Thumb Code    16  gd32f303e_lcd_ili9341.o(i.LCD_WriteReg)
    MemManage_Handler                        0x08000289   Thumb Code     4  gd32f30x_it.o(i.MemManage_Handler)
    NMI_Handler                              0x0800028d   Thumb Code     2  gd32f30x_it.o(i.NMI_Handler)
    PendSV_Handler                           0x080002b9   Thumb Code     2  gd32f30x_it.o(i.PendSV_Handler)
    SVC_Handler                              0x080002bb   Thumb Code     2  gd32f30x_it.o(i.SVC_Handler)
    SysTick_Handler                          0x080002bd   Thumb Code     8  gd32f30x_it.o(i.SysTick_Handler)
    SystemInit                               0x080002c5   Thumb Code    66  system_gd32f30x.o(i.SystemInit)
    UsageFault_Handler                       0x08000315   Thumb Code     4  gd32f30x_it.o(i.UsageFault_Handler)
    __scatterload_copy                       0x08000319   Thumb Code    14  handlers.o(i.__scatterload_copy)
    __scatterload_null                       0x08000327   Thumb Code     2  handlers.o(i.__scatterload_null)
    __scatterload_zeroinit                   0x08000329   Thumb Code    14  handlers.o(i.__scatterload_zeroinit)
    change_picture                           0x08000339   Thumb Code   722  main.o(i.change_picture)
    delay_1ms                                0x0800062d   Thumb Code    16  systick.o(i.delay_1ms)
    delay_decrement                          0x08000641   Thumb Code    18  systick.o(i.delay_decrement)
    exmc_lcd_init                            0x08000659   Thumb Code   186  gd32f303e_lcd_ili9341.o(i.exmc_lcd_init)
    exmc_norsram_enable                      0x08000721   Thumb Code    22  gd32f30x_exmc.o(i.exmc_norsram_enable)
    exmc_norsram_init                        0x08000739   Thumb Code   280  gd32f30x_exmc.o(i.exmc_norsram_init)
    find_max                                 0x08000855   Thumb Code    52  main.o(i.find_max)
    gd_eval_led_init                         0x08000889   Thumb Code    50  gd32f303e_eval.o(i.gd_eval_led_init)
    gd_eval_led_off                          0x080008c9   Thumb Code    16  gd32f303e_eval.o(i.gd_eval_led_off)
    gd_eval_led_on                           0x080008e1   Thumb Code    16  gd32f303e_eval.o(i.gd_eval_led_on)
    get_touch_area                           0x080008f9   Thumb Code   192  main.o(i.get_touch_area)
    gpio_bit_reset                           0x080009c9   Thumb Code     4  gd32f30x_gpio.o(i.gpio_bit_reset)
    gpio_bit_set                             0x080009cd   Thumb Code     4  gd32f30x_gpio.o(i.gpio_bit_set)
    gpio_init                                0x080009d1   Thumb Code   164  gd32f30x_gpio.o(i.gpio_init)
    gpio_input_bit_get                       0x08000a75   Thumb Code    16  gd32f30x_gpio.o(i.gpio_input_bit_get)
    lcd_char_display                         0x08000a85   Thumb Code   350  gd32f303e_lcd_ili9341.o(i.lcd_char_display)
    lcd_clear                                0x08000bed   Thumb Code    50  gd32f303e_lcd_ili9341.o(i.lcd_clear)
    lcd_command_write                        0x08000c25   Thumb Code     8  gd32f303e_lcd_ili9341.o(i.lcd_command_write)
    lcd_gram_write                           0x08000c2d   Thumb Code     8  gd32f303e_lcd_ili9341.o(i.lcd_gram_write)
    lcd_init                                 0x08000c35   Thumb Code   590  gd32f303e_lcd_ili9341.o(i.lcd_init)
    lcd_picture_draw                         0x08000e83   Thumb Code    84  gd32f303e_lcd_ili9341.o(i.lcd_picture_draw)
    lcd_point_set                            0x08000ed7   Thumb Code    24  gd32f303e_lcd_ili9341.o(i.lcd_point_set)
    lcd_rectangle_draw                       0x08000eef   Thumb Code   112  gd32f303e_lcd_ili9341.o(i.lcd_rectangle_draw)
    lcd_register_write                       0x08000f5f   Thumb Code    14  gd32f303e_lcd_ili9341.o(i.lcd_register_write)
    main                                     0x08000f6d   Thumb Code   592  main.o(i.main)
    rcu_periph_clock_enable                  0x080011e5   Thumb Code    28  gd32f30x_rcu.o(i.rcu_periph_clock_enable)
    systick_config                           0x0800138d   Thumb Code    74  systick.o(i.systick_config)
    touch_ad_x_get                           0x080013dd   Thumb Code    34  touch_panel.o(i.touch_ad_x_get)
    touch_ad_xy_get                          0x080013ff   Thumb Code   122  touch_panel.o(i.touch_ad_xy_get)
    touch_ad_y_get                           0x08001479   Thumb Code    34  touch_panel.o(i.touch_ad_y_get)
    touch_coordinate_x_get                   0x0800149b   Thumb Code    42  touch_panel.o(i.touch_coordinate_x_get)
    touch_coordinate_y_get                   0x080014c5   Thumb Code    44  touch_panel.o(i.touch_coordinate_y_get)
    touch_data_filter                        0x080014f1   Thumb Code   140  touch_panel.o(i.touch_data_filter)
    touch_panel_gpio_configure               0x0800157d   Thumb Code    88  touch_panel.o(i.touch_panel_gpio_configure)
    touch_pen_irq                            0x080015dd   Thumb Code    12  touch_panel.o(i.touch_pen_irq)
    touch_read                               0x080015ed   Thumb Code    50  touch_panel.o(i.touch_read)
    touch_scan                               0x08001621   Thumb Code    64  touch_panel.o(i.touch_scan)
    touch_start                              0x08001669   Thumb Code    34  touch_panel.o(i.touch_start)
    touch_write                              0x0800168b   Thumb Code    60  touch_panel.o(i.touch_write)
    turn_on_led                              0x080016c7   Thumb Code   106  main.o(i.turn_on_led)
    image_on                                 0x08001740   Data        3208  picture.o(.constdata)
    image_off                                0x080023c8   Data        3208  picture.o(.constdata)
    picture                                  0x08003050   Data       22808  picture.o(.constdata)
    ascii_8x16                               0x08008968   Data        1536  gd32f303e_lcd_ili9341.o(.constdata)
    ASCII_Table_16x24                        0x08008f68   Data        4560  gd32f303e_lcd_ili9341.o(.constdata)
    Region$$Table$$Base                      0x0800a138   Number         0  anon$$obj.o(Region$$Table)
    Region$$Table$$Limit                     0x0800a158   Number         0  anon$$obj.o(Region$$Table)
    a1                                       0x20000000   Data           2  main.o(.data)
    a2                                       0x20000002   Data           2  main.o(.data)
    a3                                       0x20000004   Data           2  main.o(.data)
    b1                                       0x20000006   Data           2  main.o(.data)
    b2                                       0x20000008   Data           2  main.o(.data)
    b3                                       0x2000000a   Data           2  main.o(.data)
    error_string                             0x2000000c   Data          25  main.o(.data)
    char_format                              0x20000026   Data           8  main.o(.data)
    SystemCoreClock                          0x20000034   Data           4  system_gd32f30x.o(.data)
    touch_ad_x                               0x200000c4   Data           2  touch_panel.o(.data)
    touch_ad_y                               0x200000c6   Data           2  touch_panel.o(.data)
    lcddev                                   0x200000c8   Data          14  gd32f303e_lcd_ili9341.o(.bss)
    __initial_sp                             0x200004d8   Data           0  startup_gd32f30x_hd.o(STACK)



==============================================================================

Memory Map of the image

  Image Entry point : 0x08000131

  Load Region LR_IROM1 (Base: 0x08000000, Size: 0x0000a220, Max: 0x00080000, ABSOLUTE)

    Execution Region ER_IROM1 (Base: 0x08000000, Size: 0x0000a158, Max: 0x00080000, ABSOLUTE)

    Base Addr    Size         Type   Attr      Idx    E Section Name        Object

    0x08000000   0x00000130   Data   RO         4482    RESET               startup_gd32f30x_hd.o
    0x08000130   0x00000000   Code   RO         4667  * .ARM.Collect$$$$00000000  mc_w.l(entry.o)
    0x08000130   0x00000004   Code   RO         4670    .ARM.Collect$$$$00000001  mc_w.l(entry2.o)
    0x08000134   0x00000004   Code   RO         4673    .ARM.Collect$$$$00000004  mc_w.l(entry5.o)
    0x08000138   0x00000000   Code   RO         4675    .ARM.Collect$$$$00000008  mc_w.l(entry7b.o)
    0x08000138   0x00000000   Code   RO         4677    .ARM.Collect$$$$0000000A  mc_w.l(entry8b.o)
    0x08000138   0x00000008   Code   RO         4678    .ARM.Collect$$$$0000000B  mc_w.l(entry9a.o)
    0x08000140   0x00000000   Code   RO         4680    .ARM.Collect$$$$0000000D  mc_w.l(entry10a.o)
    0x08000140   0x00000000   Code   RO         4682    .ARM.Collect$$$$0000000F  mc_w.l(entry11a.o)
    0x08000140   0x00000004   Code   RO         4671    .ARM.Collect$$$$00002712  mc_w.l(entry2.o)
    0x08000144   0x00000024   Code   RO         4483    .text               startup_gd32f30x_hd.o
    0x08000168   0x00000024   Code   RO         4684    .text               mc_w.l(init.o)
    0x0800018c   0x00000004   Code   RO          170    i.BusFault_Handler  gd32f30x_it.o
    0x08000190   0x00000002   Code   RO          171    i.DebugMon_Handler  gd32f30x_it.o
    0x08000192   0x00000004   Code   RO          172    i.HardFault_Handler  gd32f30x_it.o
    0x08000196   0x00000002   PAD
    0x08000198   0x00000038   Code   RO         4489    i.LCD_SetCursor     gd32f303e_lcd_ili9341.o
    0x080001d0   0x0000002c   Code   RO         4490    i.LCD_SetParam      gd32f303e_lcd_ili9341.o
    0x080001fc   0x00000054   Code   RO         4491    i.LCD_SetWindows    gd32f303e_lcd_ili9341.o
    0x08000250   0x0000000c   Code   RO         4492    i.LCD_WR_DATA       gd32f303e_lcd_ili9341.o
    0x0800025c   0x0000000c   Code   RO         4493    i.LCD_WR_REG        gd32f303e_lcd_ili9341.o
    0x08000268   0x00000010   Code   RO         4494    i.LCD_WriteRAM_Prepare  gd32f303e_lcd_ili9341.o
    0x08000278   0x00000010   Code   RO         4495    i.LCD_WriteReg      gd32f303e_lcd_ili9341.o
    0x08000288   0x00000004   Code   RO          173    i.MemManage_Handler  gd32f30x_it.o
    0x0800028c   0x00000002   Code   RO          174    i.NMI_Handler       gd32f30x_it.o
    0x0800028e   0x00000002   PAD
    0x08000290   0x00000028   Code   RO          257    i.NVIC_SetPriority  systick.o
    0x080002b8   0x00000002   Code   RO          175    i.PendSV_Handler    gd32f30x_it.o
    0x080002ba   0x00000002   Code   RO          176    i.SVC_Handler       gd32f30x_it.o
    0x080002bc   0x00000008   Code   RO          177    i.SysTick_Handler   gd32f30x_it.o
    0x080002c4   0x00000050   Code   RO          301    i.SystemInit        system_gd32f30x.o
    0x08000314   0x00000004   Code   RO          178    i.UsageFault_Handler  gd32f30x_it.o
    0x08000318   0x0000000e   Code   RO         4688    i.__scatterload_copy  mc_w.l(handlers.o)
    0x08000326   0x00000002   Code   RO         4689    i.__scatterload_null  mc_w.l(handlers.o)
    0x08000328   0x0000000e   Code   RO         4690    i.__scatterload_zeroinit  mc_w.l(handlers.o)
    0x08000336   0x00000002   PAD
    0x08000338   0x000002f4   Code   RO            3    i.change_picture    main.o
    0x0800062c   0x00000014   Code   RO          258    i.delay_1ms         systick.o
    0x08000640   0x00000018   Code   RO          259    i.delay_decrement   systick.o
    0x08000658   0x000000c8   Code   RO         4496    i.exmc_lcd_init     gd32f303e_lcd_ili9341.o
    0x08000720   0x00000016   Code   RO         1583    i.exmc_norsram_enable  gd32f30x_exmc.o
    0x08000736   0x00000002   PAD
    0x08000738   0x0000011c   Code   RO         1584    i.exmc_norsram_init  gd32f30x_exmc.o
    0x08000854   0x00000034   Code   RO            4    i.find_max          main.o
    0x08000888   0x00000040   Code   RO         4277    i.gd_eval_led_init  gd32f303e_eval.o
    0x080008c8   0x00000018   Code   RO         4278    i.gd_eval_led_off   gd32f303e_eval.o
    0x080008e0   0x00000018   Code   RO         4279    i.gd_eval_led_on    gd32f303e_eval.o
    0x080008f8   0x000000d0   Code   RO            5    i.get_touch_area    main.o
    0x080009c8   0x00000004   Code   RO         2084    i.gpio_bit_reset    gd32f30x_gpio.o
    0x080009cc   0x00000004   Code   RO         2085    i.gpio_bit_set      gd32f30x_gpio.o
    0x080009d0   0x000000a4   Code   RO         2094    i.gpio_init         gd32f30x_gpio.o
    0x08000a74   0x00000010   Code   RO         2095    i.gpio_input_bit_get  gd32f30x_gpio.o
    0x08000a84   0x00000168   Code   RO         4497    i.lcd_char_display  gd32f303e_lcd_ili9341.o
    0x08000bec   0x00000038   Code   RO         4498    i.lcd_clear         gd32f303e_lcd_ili9341.o
    0x08000c24   0x00000008   Code   RO         4499    i.lcd_command_write  gd32f303e_lcd_ili9341.o
    0x08000c2c   0x00000008   Code   RO         4502    i.lcd_gram_write    gd32f303e_lcd_ili9341.o
    0x08000c34   0x0000024e   Code   RO         4505    i.lcd_init          gd32f303e_lcd_ili9341.o
    0x08000e82   0x00000054   Code   RO         4506    i.lcd_picture_draw  gd32f303e_lcd_ili9341.o
    0x08000ed6   0x00000018   Code   RO         4508    i.lcd_point_set     gd32f303e_lcd_ili9341.o
    0x08000eee   0x00000070   Code   RO         4509    i.lcd_rectangle_draw  gd32f303e_lcd_ili9341.o
    0x08000f5e   0x0000000e   Code   RO         4512    i.lcd_register_write  gd32f303e_lcd_ili9341.o
    0x08000f6c   0x00000278   Code   RO            6    i.main              main.o
    0x080011e4   0x00000020   Code   RO         2625    i.rcu_periph_clock_enable  gd32f30x_rcu.o
    0x08001204   0x00000020   Code   RO         4352    i.spi_clk           touch_panel.o
    0x08001224   0x00000020   Code   RO         4353    i.spi_cs            touch_panel.o
    0x08001244   0x00000010   Code   RO         4355    i.spi_miso          touch_panel.o
    0x08001254   0x00000020   Code   RO         4356    i.spi_mosi          touch_panel.o
    0x08001274   0x00000110   Code   RO          302    i.system_clock_120m_hxtal  system_gd32f30x.o
    0x08001384   0x00000008   Code   RO          303    i.system_clock_config  system_gd32f30x.o
    0x0800138c   0x00000050   Code   RO          260    i.systick_config    systick.o
    0x080013dc   0x00000022   Code   RO         4357    i.touch_ad_x_get    touch_panel.o
    0x080013fe   0x0000007a   Code   RO         4358    i.touch_ad_xy_get   touch_panel.o
    0x08001478   0x00000022   Code   RO         4359    i.touch_ad_y_get    touch_panel.o
    0x0800149a   0x0000002a   Code   RO         4362    i.touch_coordinate_x_get  touch_panel.o
    0x080014c4   0x0000002c   Code   RO         4363    i.touch_coordinate_y_get  touch_panel.o
    0x080014f0   0x0000008c   Code   RO         4364    i.touch_data_filter  touch_panel.o
    0x0800157c   0x00000060   Code   RO         4365    i.touch_panel_gpio_configure  touch_panel.o
    0x080015dc   0x00000010   Code   RO         4366    i.touch_pen_irq     touch_panel.o
    0x080015ec   0x00000032   Code   RO         4367    i.touch_read        touch_panel.o
    0x0800161e   0x00000002   PAD
    0x08001620   0x00000048   Code   RO         4368    i.touch_scan        touch_panel.o
    0x08001668   0x00000022   Code   RO         4369    i.touch_start       touch_panel.o
    0x0800168a   0x0000003c   Code   RO         4370    i.touch_write       touch_panel.o
    0x080016c6   0x0000006a   Code   RO            7    i.turn_on_led       main.o
    0x08001730   0x00000010   Data   RO            8    .constdata          main.o
    0x08001740   0x00007228   Data   RO         4332    .constdata          picture.o
    0x08008968   0x000017d0   Data   RO         4516    .constdata          gd32f303e_lcd_ili9341.o
    0x0800a138   0x00000020   Data   RO         4686    Region$$Table       anon$$obj.o


    Execution Region RW_IRAM1 (Base: 0x20000000, Size: 0x000004d8, Max: 0x00010000, ABSOLUTE)

    Base Addr    Size         Type   Attr      Idx    E Section Name        Object

    0x20000000   0x0000002e   Data   RW            9    .data               main.o
    0x2000002e   0x00000002   PAD
    0x20000030   0x00000004   Data   RW          261    .data               systick.o
    0x20000034   0x00000004   Data   RW          304    .data               system_gd32f30x.o
    0x20000038   0x0000008c   Data   RW         4281    .data               gd32f303e_eval.o
    0x200000c4   0x00000004   Data   RW         4371    .data               touch_panel.o
    0x200000c8   0x0000000e   Zero   RW         4515    .bss                gd32f303e_lcd_ili9341.o
    0x200000d6   0x00000002   PAD
    0x200000d8   0x00000400   Zero   RW         4480    STACK               startup_gd32f30x_hd.o


==============================================================================

Image component sizes


      Code (inc. data)   RO Data    RW Data    ZI Data      Debug   Object Name

       112         30          0        140          0       2930   gd32f303e_eval.o
      1696         48       6096          0         14      15467   gd32f303e_lcd_ili9341.o
       306          4          0          0          0      13786   gd32f30x_exmc.o
       188          0          0          0          0       3081   gd32f30x_gpio.o
        32          0          0          0          0       4374   gd32f30x_it.o
        32          4          0          0          0      17842   gd32f30x_rcu.o
      1754         90         16         46          0      49523   main.o
         0          0      29224          0          0        661   picture.o
        36          8        304          0       1024        948   startup_gd32f30x_hd.o
       360         30          0          4          0       2255   system_gd32f30x.o
       164         24          0          4          0      29242   systick.o
       856         42          0          4          0      10825   touch_panel.o

    ----------------------------------------------------------------------
      5544        280      35672        200       1040     150934   Object Totals
         0          0         32          0          0          0   (incl. Generated)
         8          0          0          2          2          0   (incl. Padding)

    ----------------------------------------------------------------------

      Code (inc. data)   RO Data    RW Data    ZI Data      Debug   Library Member Name

         0          0          0          0          0          0   entry.o
         0          0          0          0          0          0   entry10a.o
         0          0          0          0          0          0   entry11a.o
         8          4          0          0          0          0   entry2.o
         4          0          0          0          0          0   entry5.o
         0          0          0          0          0          0   entry7b.o
         0          0          0          0          0          0   entry8b.o
         8          4          0          0          0          0   entry9a.o
        30          0          0          0          0          0   handlers.o
        36          8          0          0          0         68   init.o

    ----------------------------------------------------------------------
        88         16          0          0          0         68   Library Totals
         2          0          0          0          0          0   (incl. Padding)

    ----------------------------------------------------------------------

      Code (inc. data)   RO Data    RW Data    ZI Data      Debug   Library Name

        86         16          0          0          0         68   mc_w.l

    ----------------------------------------------------------------------
        88         16          0          0          0         68   Library Totals

    ----------------------------------------------------------------------

==============================================================================


      Code (inc. data)   RO Data    RW Data    ZI Data      Debug   

      5632        296      35672        200       1040     145306   Grand Totals
      5632        296      35672        200       1040     145306   ELF Image Totals
      5632        296      35672        200          0          0   ROM Totals

==============================================================================

    Total RO  Size (Code + RO Data)                41304 (  40.34kB)
    Total RW  Size (RW Data + ZI Data)              1240 (   1.21kB)
    Total ROM Size (Code + RO Data + RW Data)      41504 (  40.53kB)

==============================================================================

